S01F0000776966695F687474705F6F7461665F736F635F32373038412E733337E9
S31500000000010000000D900D903C3C01000100000035
S31500000010001020008B7C49A30000000000000000B7
S3150000002000000000000000000000000000000000CA
S315000000300000000000000000000000000D900D9080
S31500000040A55A0000002020080000008000000000E3
S31500000050000000000000000000000000000000009A
S31500000060000000000000000000000000000000008A
S31500000070000000000000000000000000000000007A
S31500000080000000000000000000000000000000006A
S31500001000102D010081212008795D2008795D2008D6
S31500001010795D2008795D2008795D200800000000D0
S31500001020000000000000000000000000D12C200895
S31500001030795D200800000000212D2008772820086F
S31500001040795D2008795D2008795D2008795D2008A2
S31500001050795D2008795D2008795D2008795D200892
S31500001060795D2008795D20084D632008A588200851
S315000010709569200861D92008795D2008795D2008E6
S31500001080795D2008795D200809CE2008ADCE2008BC
S31500001090795D2008A1CD200825B32008795D2008B8
S315000010A0795D2008795D2008795D2008795D200842
S315000010B0795D2008795D2008102D0100795D2008F2
S315000010C081212008A5622008795D2008795D200825
S315000010D0795D2008795D20087D69200889692008E6
S315000010E0F55C2008795D200849D9200813BE6859A7
S315000010F0795D2008795D2008F5612008795D200872
S31500001100795D2008795D200871CD200889CD2008F9
S31500001110B1CC2008C9CC2008E1CC2008F9CC2008A5
S3150000112011CD200829CD200841CD200859CD200811
S31500001130795D200855D92008795D2008795D200859
S31500001140795D2008795D2008795D2008795D2008A1
S31500001150795D2008795D2008795D2008795D200891
S31500001160795D2008795D20085DE620080000000012
S315000011700000000000000000000000000000000069
S3150000118010B503F0FBFD084C03F00AFE074BA168FF
S315000011904FF4B67218460DF0BBFFA06003F0D0FE08
S315000011A0BDE8104000F0E5B800ED00E000040000E6
S315000011B00348044B834202D0034B03B118477047E0
S315000011C02C1000002C100000000000000548064B03
S315000011D01B1AD90F01EBA301491002D0034B03B12F
S315000011E0184770472C1000002C100000000000006B
S315000011F010B5064C237843B9FFF7DAFF044B13B159
S315000012000448AFF300800123237010BD2C100000AA
S3150000121000000000AC38210808B5054B1BB1054994
S315000012200548AFF30080BDE80840FFF7CFBF00BF19
S315000012300000000030100000AC382108EFF31080E9
S3150000124072B6704710B962B6BFF36F8F7047EFF38F
S3150000125011800C2383F31188704780F31188BFF344
S315000012606F8F704710B5144602F000FB2060002017
S3150000127010BD000073B5FFF7E1FF0D4D0D4B2E7845
S315000012801C68FFF7DFFF00F09AFB38B1FF2E05D090
S31500001290297801AA0020FFF7E5FF019C2CB9FFF78A
S315000012A0CDFF054B1C68FFF7CDFF204602B070BD91
S315000012B084050000481000004C10000010B50446DC
S315000012C0FFF7BCFF024B1C60FFF7BCFF002010BD00
S315000012D04C10000070B50C46154610B9FFF7CAFF52
S315000012E038B143682BB12A4621460068BDE87040F4
S315000012F01847232070BDF7B50D4616461C4648B163
S3150000130003B901ACC7685FB1234632462946006877
S31500001310B84706E0FFF7AEFF04B901AC0028F1D1EB
S31500001320232003B0F0BD00207047FEE74FF40053C2
S315000013304B600020704701207047012070474FF036
S31500001340FF3070470020704707B5002001AB0190C1
S31500001350FFF7D1FF0198002808BF4FF0FF3003B018
S315000013605DF804FB10B500201446FFF7B3FF2046D6
S3150000137010BD08B500F012F800F056F8FEE7704709
S31500001380704708B503F006FB03F012FB03F017FBEA
S3150000139003F01CFBBDE8084003F019BB08B5FFF7D6
S315000013A0EEFF03F00FFD00F013F9FFF7E9FF00F081
S315000013B06FFA00F007F803F0F8FABDE8084000F00D
S315000013C019B8704708B503F0E1FA03F0E0FA03F044
S315000013D0DFFA03F0DEFAFFF7F4FF08BD08B503F005
S315000013E041FB034B1868BDE8084000F0EABA00BFAD
S315000013F05010000030B5094D0FCD8BB001AC0FC4B5
S315000014000FCD0FC42B680648236001AA002100F007
S3150000141081FA044B18600BB030BD00BFD41E210802
S31500001420DD2320085010000003F0C0BA00230B7023
S315000014307047000030B50E4C416123688BB92060BF
S3150000144083600DE0891A9A6841611D466AB11346A8
S315000014505A698A42F6D935B1A860521A83605A6130
S3150000146030BD0025F4E72060F7E798608260F7E773
S315000014706410000038B508F0E3FE094C094B1A6801
S3150000148023680025C31A2AB123B15169994203D3AF
S31500001490C91A5161206038BD55615B1A9268F2E73E
S315000014A0601000006410000038B5154D2B682BB392
S315000014B05B69A3B1134A146802201C4408F0CAFEF3
S315000014C0204608F0D1FE10492A6800230B7022B18D
S315000014D0D08880070AD501230B70002038BD022072
S315000014E008F0B8FE022008F013FFECE79268002A25
S315000014F0F3D050690344012BEAD9EEE72220EDE749
S3150000150064100000601000005C10000070B5164604
S315000015109DF814200271049A0260C0E90336002285
S31500001520BDF81830826004460D46C380EEB908F057
S3150000153087FE2844A0619DB12E46FFF77FFE054633
S31500001540FFF798FF31462046FFF774FF104B1B68E4
S31500001550A34201D1FFF7A8FF2846FFF773FE02E07A
S31500001560E36865617BB9002070BD08F069FE304410
S31500001570A061002DE0D1E3686561002BDDD0216814
S3150000158020469847D9E7216820469847EBE700BFF1
S31500001590641000000D490B6898B100229BB183428C
S315000015A003D1836822B90B6003E01A469B68F5E70E
S315000015B0936083681BB15A6941690A445A610020E5
S315000015C07047222070470220704700BF6410000059
S315000015D070B5154EFFF73BFE34780546FCB9134B44
S315000015E01C60134B1C60134B1C6008F0E3FD0120CC
S315000015F008F030FE08F0B4FE0F4B0246186020B922
S315000016002846FFF72AFE232070BD23460B4840F2EA
S31500001610E7310CF009FD0A4B1860012333702846A8
S31500001620FFF71BFE0020EFE75D10000064100000CE
S31500001630601000006C1000006810000018FCFFFF2E
S315000016405810000038B50C460546A8B1A1B10023D4
S315000016500B70FFF7FCFD094B1B68012133B9FFF73F
S31500001660FCFD002038BD9D4204D121702278002A5D
S31500001670F9D0F4E79B68F1E72220F3E76410000055
S31500001680F0B587B01F4600230D4616468DF8173075
S315000016900446A8B1C3610DF11701FFF7D3FF9DF80A
S315000016A017207AB9BDF8343002939DF830302946B8
S315000016B0CDE9007320463346FFF728FF07B0F0BD9B
S315000016C02220FBE70320F9E738B5074B1D680446DF
S315000016D0002140F2E7304FF47A720023E5FB040163
S315000016E00CF0A2FC38BD00BF6810000000B58DB03C
S315000016F001238DF80F30FFF7E7FF0023CDE9003314
S315000017000146074A0DF10F0304A8FFF7B9FF18B900
S315000017109DF80F30002BFBD10DB05DF804FB00BF28
S315000017202D242008C2072DE9F843044607D5444A6C
S31500001730136801331360FFF79DFEFFF7B5FEA3079D
S315000017407CD5FFF784FD0546FFF794FE4FF00008B1
S315000017503C4F46463C680CB16369A3B13A4B002244
S31500001760012E1A7003D118F0020F18BF1E70FFF772
S315000017709BFE222802D1022008F0B4FD2846BDE8CF
S31500001780F843FFF76ABD23465A693AB91A792179AF
S31500001790914288BF1C469B68002BF5D12846FFF76F
S315000017A05CFD2569DDB108F04BFDA269A0EB0208DE
S315000017B04FEAE873A84573F1000311DB236913446C
S315000017C0A361E36813B1216820469847B4F8068000
S315000017D0FFF73DFD01360546FFF74CFEBAE7A84682
S315000017E0FFF735FD81462046FFF7D4FE4846FFF752
S315000017F034FD2369002BE4D0A38BB5EB080533B188
S31500001800E28B13449BB2B3F57A7F0FD2E383FFF7E3
S315000018101EFD294680462046FFF70CFEA369226975
S315000018201344A3614046FFF718FDCAE7A3F57A7390
S31500001830E383A369013B013DA361E8E7BDE8F883C3
S315000018406C100000641000005410000010B5EFF397
S31500001850058414B10124204610BD02F01BF80128AE
S31500001860F9D0EFF31083002BF4D1EFF31184003C91
S3150000187018BF0124EFE708B54FF0E0231B6902F01B
S3150000188009F8012803D0BDE8084000F0EFBA08BD0A
S3150000189008B5FFF7DBFF48B901F0FCFF0128034656
S315000018A007D1054A106820B9136008BD6FF005001E
S315000018B0FBE74FF0FF30F8E7601D000008B501F0C8
S315000018C0E9FF38B1022804D0034B1868431E58427A
S315000018D0584108BD0320FCE7601D000010B5FFF766
S315000018E0B5FF044668B901F0D5FF01280CD1084BB5
S315000018F01A68012A08D102221A6001F039FC204632
S3150000190010BD6FF00500FBE74FF0FF30F8E700BFB2
S31500001910601D00002DE9F04186B0002305460E4605
S3150000192090460593FFF792FF00BBFDB1B8F1000F9B
S315000019303ED0D8F818402CB1631E372B03D906B019
S31500001940BDE8F0811824D8F80430DB0735D4D8F880
S3150000195014306BB19A08D8E90270D8F8001057B164
S31500001960772803D9D8F8100000B1BBB90598E6E787
S315000019704FF48072EFE70028F8D1D8F81030002B2A
S31500001980F4D105AB013C019300943346284601F09F
S3150000199018FB01281CBF00230593E7E7013CCDE9AE
S315000019A0010700943346284601F0C1FA0590DDE7A9
S315000019B0414618244FF48072E3E70020BFE701F0A8
S315000019C063BF38B50546FFF741FF044650B965B118
S315000019D0284601F081FB04280AD0284601F020FBA6
S315000019E0204638BD6FF00500FBE76FF00300F8E70F
S315000019F06FF00200F5E737B50C46054630B3B1F196
S31500001A00807F23D2FFF722FFC8B1002301AA214617
S31500001A102846019300F010F9D8B1284600F0B8F82E
S31500001A20019B4BB14FF0E0234FF08052C3F8042DD9
S31500001A30BFF34F8FBFF36F8F204303B030BD2146F6
S31500001A40284603B0BDE8304000F0B0B86FF00300A0
S31500001A50F3E76FF00200F0E738B50546FFF7F6FE4C
S31500001A6010B10024204638BD25B9BDE83840012014
S31500001A7000F0A0BE6B681A07F3D4D5E9021203F092
S31500001A80010379B14F2AECD99BB1042000F05EFE28
S31500001A9004460028E5D0296809B101F07DF844F034
S31500001AA00104DFE7002ADCD17BB1042000F082FECE
S31500001AB0EEE7012000F04AFE04460028D1D029684E
S31500001AC00029CFD001F068F8CCE7012000F072FEC3
S31500001AD0F2E7F8B505460C4620F0010600F00107CE
S31500001AE0FFF7B4FEA0B9012D15D92146304667B1DE
S31500001AF001F031F8012801D10020F8BD002C14BFF7
S31500001B006FF001006FF00200F7E700F070FFF1E7F9
S31500001B106FF00500F1E76FF00300EEE770B50446DD
S31500001B2020F0010500F00106FFF790FE90B9012CA8
S31500001B3013D946B1284600F01EFE01280CBF00202E
S31500001B406FF0020070BD334632463146284600F03B
S31500001B5041FDF2E76FF00500F4E76FF00300F1E7EF
S31500001B60034B0360034B0B604FF4807313607047A5
S31500001B70E81C0000E8180000034B0360034B0B60F1
S31500001B804FF4007313607047701800007010000067
S31500001B90EFF311834FF0140282F31188BFF36F8FB6
S31500001BA0BFF34F8F006883F3118870472DE9F0412A
S31500001BB00D46044640B94FF0140383F31188BFF372
S31500001BC06F8FBFF34F8FFEE7B1F1807F08D34FF0E1
S31500001BD0140383F31188BFF36F8FBFF34F8FFEE7B4
S31500001BE000F10C0601F018FB236820692B432360E3
S31500001BF000258642216807D121EA0501216001F00E
S31500001C00E1FB2068BDE8F081D0E9002822F07F439F
S31500001C1012F0806F03EA010702D11FB94046E8E7D8
S31500001C20BB42FBD1D20141F0007148BF1D4301F018
S31500001C3065FDF3E7FFF7BABF13460A4601460148BA
S31500001C4002F0C2B8352C200800F108034FF0FF322D
S31500001C50C0E9022343600361002303607047002349
S31500001C600361704743684B609A688A605160996067
S31500001C700368086101330360704730B50C68631C64
S31500001C800AD103695A684A6091608B60596003689B
S31500001C9008610133036030BD00F108021346526843
S31500001CA01568A542FAD9EDE7D0E9011203698A6001
S31500001CB051605968814208BF5A6000220261186863
S31500001CC001381860704700000000000000000000A6
S31500001CD0074B19680868B0E8F04F80F30988BFF32E
S31500001CE06F8F4FF0000080F311887047AFF30080CC
S31500001CF0C8EA000008480068006880F308884FF0CA
S31500001D00000080F3148862B661B6BFF34F8FBFF34D
S31500001D106F8F00DF00BF000008ED00E0000000004C
S31500001D20EFF30980BFF36F8F154B1A681EF0100F83
S31500001D3008BF20ED108A20E9F04F10602DE9090058
S31500001D404FF0140080F31188BFF34F8FBFF36F8FEE
S31500001D5001F0E6FB4FF0000080F3118809BC19681A
S31500001D600868B0E8F04F1EF0100F08BFB0EC108AFC
S31500001D7080F30988BFF36F8F704700BFAFF3008011
S31500001D80C8EA0000DFF80C00016841F47001016048
S31500001D907047000088ED00E082B0002301930D4BF0
S31500001DA01B68013308D04FF0140383F31188BFF387
S31500001DB06F8FBFF34F8FFEE74FF0140383F3118845
S31500001DC0BFF36F8FBFF34F8F019B002BFCD002B088
S31500001DD0704700BF880500004FF0807340F8043C50
S31500001DE0074B40F80C3C21F001016FF0020340F86C
S31500001DF0081C40F8202C40F8243C4438704700BFAB
S31500001E00992D20084FF0140383F31188BFF36F8FC9
S31500001E10BFF34F8F0A4A13680133012B13600ED1AB
S31500001E204FF0E023D3F8043DDBB243B14FF0140387
S31500001E3083F31188BFF36F8FBFF34F8FFEE77047B1
S31500001E4088050000084A136843B94FF0140383F36A
S31500001E501188BFF36F8FBFF34F8FFEE7013B13600F
S31500001E600BB983F3118870478805000008B54FF059
S31500001E70140383F31188BFF36F8FBFF34F8F01F005
S31500001E80DFF928B14FF0E0234FF08052C3F8042D5C
S31500001E90002383F3118808BD4FF0E022002313616D
S31500001EA09361054B4FF47A711B68B3FBF1F3013B69
S31500001EB0536107231361704778EC00004FF0E0236D
S31500001EC037B5D3F8001D534A914208D14FF0140399
S31500001ED083F31188BFF36F8FBFF34F8FFEE7D3F8FD
S31500001EE0001D4D4A914208D14FF0140383F3118827
S31500001EF0BFF36F8FBFF34F8FFEE7D3F8083D474A16
S31500001F00D96A914208D04FF0140383F31188BFF3C6
S31500001F106F8FBFF34F8FFEE79A6B414B9A4208D003
S31500001F204FF0140383F31188BFF36F8FBFF34F8F06
S31500001F30FEE7002301933B4B1A78D2B28DF80220BC
S31500001F40FF221A701B78384ADBB28DF803309DF8F1
S31500001F50033003F01403137043B94FF0140383F3F3
S31500001F601188BFF36F8FBFF34F8FFEE79DF80330E5
S31500001F70DB4313F0140F10D04FF0140383F31188D2
S31500001F80BFF36F8FBFF34F8FFEE7013301939DF8C9
S31500001F9003305B00DBB28DF803309DF8033013F09D
S31500001FA0800F019BF1D1082B18BF019B1F4A14BF5C
S31500001FB0C3F1070300231B0203F4E06313609DF8DB
S31500001FC00230184A4FF0E024DBB21370D4F8203DFB
S31500001FD043F47F03C4F8203DD4F8203D002543F0A8
S31500001FE07F43C4F8203DC4F81C5DFFF755FF104B36
S31500001FF01D60FFF7C7FED4F8343F43F04043C4F8F2
S31500002000343FFFF777FE01F08BFAFFF7C5FE28464F
S3150000201003B030BD71C20F4170C20F41D12C2008F0
S31500002020212D200800E400E0681D0000641D00006A
S3150000203088050000EFF305830F2B0ED9114A9B5C30
S31500002040114A12789A4208D94FF0140383F3118883
S31500002050BFF36F8FBFF34F8FFEE74FF0E0230B4ABE
S31500002060D3F80C3D126803F4E063934208D94FF0AD
S31500002070140383F31188BFF36F8FBFF34F8FFEE70F
S31500002080704700BFF0E300E0681D0000641D00001B
S31500002090F8B5431E0A33624D24D901F0BDF82B680A
S315000020A063BB00245F4A604853071FBFD11D21F060
S315000020B0070102F54842531A0CBF4FF448430A463B
S315000020C01344083B23F00703002141600260C3E983
S315000020D00011991AC2E900312B60544B1960544B18
S315000020E019601BE010F0070300F108040BD101F0A2
S315000020F093F82B68002BD5D0002C11DA01F062F989
S3150000210000252846F8BDA3F10902A242C5D3103026
S31500002110C41A01F081F82B68002BC3D0002CEDDD2A
S31500002120DFF80CC1DCF80010A142E7D33E4ADFF825
S31500002130F4E01368734502D33E4FBB4217D94FF004
S31500002140140383F31188BFF36F8FBFF34F8FFEE73E
S31500002150764502D3BE421A4608D94FF0140383F3DC
S315000021601188BFF36F8FBFF34F8FFEE73346586872
S31500002170A04202D21E68002EEAD12D689D42BDD033
S3150000218015680835754501D3BD4208D94FF01403CB
S3150000219083F31188BFF36F8FBFF34F8FFEE71F687E
S315000021A01760A0420FD3001B102819D91E1916F06C
S315000021B0070F11D04FF0140383F31188BFF36F8F0D
S315000021C0BFF34F8FFEE74FF0140383F31188BFF37D
S315000021D06F8FBFF34F8FFEE770605C601F51166014
S315000021E058680A1A1149CCF800200C68A24238BF78
S315000021F00A6000221A60104A40F0004058601368D6
S315000022000133136001F0DEF86B073FF47AAF4FF04D
S31500002210140383F31188BFF36F8FBFF34F8FFEE76D
S315000022207C1D0000881D0000801D0000741D00003C
S31500002230781D000087E50000701D0000F8B5054612
S3150000224000286FD0384FA0F10804BC4212D3374E95
S31500002250B4420FD850F8043C002B14DA50F8082C7E
S31500002260D2B14FF0140383F31188BFF36F8FBFF31E
S315000022704F8FFEE74FF0140383F31188BFF36F8F80
S31500002280BFF34F8FFEE74FF0140383F31188BFF3BC
S315000022906F8FBFF34F8FFEE723F0004340F8043CF7
S315000022A000F0BAFF224A55F8041C13680B44136069
S315000022B0204B18461A461B689C42FBD882420CD01B
S315000022C0BA4201D3B24208D94FF0140383F31188FE
S315000022D0BFF36F8FBFF34F8FFEE750681618B442F7
S315000022E006D1014450188342516010D1144602E0D1
S315000022F06018834213D11048006883421FBF586894
S315000023004018606018682060A24218BF14600B4A2B
S31500002310136801331360BDE8F84001F053B845F87F
S31500002320083CF1E7F8BD00BF881D000087E5000006
S31500002330781D0000801D00007C1D00006C1D000043
S3150000234010B50446FFF75EFDA46BFFF77BFDB4FAFC
S3150000235084F0400910BD70B51646026C856B0446C4
S3150000236042B906689EB9806801F0EAFAA6600135AE
S31500002370A56370BD6EB940680CF0CAFE6368226C36
S315000023801344A2686360934224BF236863600020FD
S31500002390EDE7C0680CF0BCFE226CE36851429B1A64
S315000023A02268E36093423EBFA3685B18E360022E97
S315000023B0EDD10DB1013DEAE72846D8E7034610B452
S315000023C01A6C08466AB1DC68996814448C4228BFC6
S315000023D01968DC6028BFD960D9685DF8044B0CF039
S315000023E097BE5DF8044B704770B50446FFF70AFDCB
S315000023F094F8455004F124066DB2002D14DCFF2339
S3150000240084F84530FFF71EFDFFF7FCFC94F84450B6
S3150000241004F110066DB2002D12DCFF2384F844305F
S31500002420BDE87040FFF70EBD636A002BE7D030466B
S3150000243001F000F908B101F013FA013D6DB2DCE7D5
S315000024402369002BE9D0304601F0F4F808B101F019
S3150000245007FA013D6DB2DEE770B50E46044640B997
S315000024604FF0140383F31188BFF36F8FBFF34F8FC1
S31500002470FEE7C56BA5B3036CA3FB053585BBFFF76C
S31500002480C1FCD4E90F31226862604B43D0185B1A55
S315000024901A44FF23A563A06084F84430E26084F800
S315000024A04530A6B9236973B104F1100001F0C2F8F2
S315000024B048B14FF0E0234FF08052C3F8042DBFF32C
S315000024C04F8FBFF36F8FFFF7BDFC012070BD04F186
S315000024D01000FFF7B9FB04F12400FFF7B5FBF2E7A4
S315000024E04FF0140383F31188BFF36F8FBFF34F8F41
S315000024F0FEE737B50D461C4643B94FF0140383F388
S315000025001188BFF36F8FBFF34F8FFEE748B3B2B1A9
S3150000251039B350230193019B502B19D1019B2260A3
S315000025200121C4E90F0584F846102046FFF794FF01
S315000025309DF8183084F84C30204603B030BD81B980
S3150000254050230193019B502B02D1019B2246E6E7C3
S315000025504FF0140383F31188BFF36F8FBFF34F8FD0
S31500002560FEE74FF0140383F31188BFF36F8FBFF3B9
S315000025704F8FFEE72DE9F0410D461746064600B39C
S31500002580A1FB0038B8F1000F1BD1484310F1510FE1
S3150000259017D85030FFF77CFD044668B180F84680B6
S315000025A06DB100F15003C4E90F6523600121204697
S315000025B0FFF752FF84F84C702046BDE8F0810346D1
S315000025C0F1E74FF0140383F31188BFF36F8FBFF366
S315000025D04F8FFEE7F0B585B00E4601921D460446C4
S315000025E040B94FF0140383F31188BFF36F8FBFF325
S315000025F04F8FFEE751B9036C43B14FF0140383F3D9
S315000026001188BFF36F8FBFF34F8FFEE7022D0BD1FB
S31500002610E36B012B08D04FF0140383F31188BFF34B
S315000026206F8FBFF34F8FFEE701F034F908B9019BB6
S3150000263003BBFFF7E7FBA26BE36B9A4223D22A4662
S3150000264031462046FFF787FE636A1BB104F124007A
S3150000265000F0F0FF48B14FF0E0234FF08052C3F88E
S31500002660042DBFF34F8FBFF36F8FFFF7EBFB0120F6
S3150000267005B0F0BD4FF0140383F31188BFF36F8FDD
S31500002680BFF34F8FFEE7022DD9D000231F4637E058
S3150000269013B902A801F090F8FFF7D4FB00F0BCFDD7
S315000026A0FFF7B0FB94F84430FF2B08BF84F8447062
S315000026B094F84530FF2B08BF84F84570FFF7C2FB3E
S315000026C001A902A801F084F8002839D1FFF79AFB86
S315000026D0A26BE36B9A421AD1FFF7B4FB019904F19E
S315000026E0100000F063FF2046FFF77EFE00F06AFE52
S315000026F0D8B1FFF787FBA36BE26B9A429FD8012301
S31500002700019A002AC4D1FFF79DFB0020B0E7FFF72E
S3150000271099FB2046FFF768FE00F054FEFFF772FBB8
S31500002720A26BE36B9A42EAD289E74FF0E0234FF0BF
S315000027308052C3F8042DBFF34F8FBFF36F8FEDE7C1
S315000027402046FFF751FE00F03DFEDEE713B50022FE
S315000027500B46009011460120FFF7CBFE044638B128
S31500002760002383600360C3601A461946FFF732FFF1
S31500002770204602B010BD38B5044640B94FF01403E8
S3150000278083F31188BFF36F8FBFF34F8FFEE7856822
S3150000279001F07AF885420BD1E368013BE3600BB1A7
S315000027A0012038BD1A4619462046FFF713FFF7E702
S315000027B00020F6E710B5024600210120FFF7DAFEF9
S315000027C0044638B1002383600360C3601A46194685
S315000027D0FFF700FF204610BD2DE9F843894617464E
S315000027E01E46044640B94FF0140383F31188BFF325
S315000027F06F8FBFF34F8FFEE751B9036C43B14FF0B4
S31500002800140383F31188BFF36F8FBFF34F8FFEE777
S31500002810022E0BD1E36B012B08D04FF0140383F388
S315000028201188BFF36F8FBFF34F8FFEE7FFF702FCF0
S31500002830EFF311884FF0140383F31188BFF36F8F02
S31500002840BFF34F8FA26BE36B9A4201D3022E2DD1B9
S3150000285094F84550A36B6DB2324649462046FFF7C1
S315000028607AFD6B1C0ED1636A3BB104F1240000F0C3
S31500002870E1FE10B10FB101233B60012088F31188FE
S31500002880BDE8F88300F0D6FC8542F6D27F2D08D14C
S315000028904FF0140383F31188BFF36F8FBFF34F8F8D
S315000028A0FEE701356DB284F84550E6E70020E5E71E
S315000028B0F0B585B00E460192044640B94FF01403B8
S315000028C083F31188BFF36F8FBFF34F8FFEE751B9C4
S315000028D0036C43B14FF0140383F31188BFF36F8F7A
S315000028E0BFF34F8FFEE700F0D5FF50B9019B43B110
S315000028F04FF0140383F31188BFF36F8FBFF34F8F2D
S31500002900FEE7FFF77FFAA56BDDB131462046FFF7FC
S3150000291055FD2369013DA56373B104F1100000F074
S3150000292089FE48B14FF0E0234FF08052C3F8042DE2
S31500002930BFF34F8FBFF36F8FFFF784FA012005B007
S31500002940F0BD019B1BB9FFF77DFA0020F7E702A84F
S3150000295000F032FF2F46FFF775FA00F05DFCFFF737
S3150000296051FA94F84430FF2B08BF84F8447094F869
S315000029704530FF2B08BF84F84570FFF763FA01A9BD
S3150000298002A800F025FF38BB2046FFF7D9FCE8B1C6
S31500002990019904F1240000F009FE2046FFF724FD0A
S315000029A000F010FD48B94FF0E0234FF08052C3F815
S315000029B0042DBFF34F8FBFF36F8FFFF723FAA56B7D
S315000029C0002DA2D1019B002BC5D1BCE72046FFF705
S315000029D00BFD00F0F7FCF0E72046FFF705FD00F0E1
S315000029E0F1FC2046FFF7ACFC0028E6D0ADE7F0B5D9
S315000029F085B00446019140B94FF0140383F3118862
S31500002A00BFF36F8FBFF34F8FFEE7056C45B14FF0F5
S31500002A10140383F31188BFF36F8FBFF34F8FFEE765
S31500002A2000F038FF064620B32E460027FFF7EAF9E6
S31500002A30A36B53B3013BA363236813B901F01CF8DE
S31500002A40A060236973B104F1100000F0F3FD48B1F2
S31500002A504FF0E0234FF08052C3F8042DBFF34F8FA1
S31500002A60BFF36F8FFFF7EEF9012005B0F0BD3546D5
S31500002A70DBE7019B002BFAD04FF0140383F3118898
S31500002A80BFF36F8FBFF34F8FFEE7019B1BB9FFF7B5
S31500002A90D9F90020E9E716B902A800F08DFEFFF784
S31500002AA0D1F900F0B9FBFFF7ADF994F84430FF2BEC
S31500002AB008BF84F8447094F84530FF2B08BF84F8AB
S31500002AC04570FFF7BFF901A902A800F081FE50BBCF
S31500002AD02046FFF735FC00B323683BB9FFF792F9B0
S31500002AE0A06800F0E7FE0546FFF7ACF9019904F18E
S31500002AF0240000F05BFD2046FFF776FC00F062FC48
S31500002B0048B94FF0E0234FF08052C3F8042DBFF3CD
S31500002B104F8FBFF36F8F012688E72046FFF764FCCF
S31500002B2000F050FCF7E72046FFF75EFC00F04AFC99
S31500002B302046FFF705FC0028EDD0002DA9D0FFF7B1
S31500002B4061F9616A19B1236B1968C1F13801A0688E
S31500002B5000F040FF9BE770B50D46044640B94FF0C4
S31500002B60140383F31188BFF36F8FBFF34F8FFEE714
S31500002B70866800F089FE864204D1E3680133E3608B
S31500002B80012070BD29462046FFF731FF0028F8D006
S31500002B90E3680133E360F4E770B540B94FF014031E
S31500002BA083F31188BFF36F8FBFF34F8FFEE7B9B181
S31500002BB00C4A00231C4615465668864204D105EB8E
S31500002BC0C403C3E900100BE01BB91668002E08BF4A
S31500002BD013460134082C02F10802EDD1002BF0D186
S31500002BE070BD00BF88E5000070B504460D46164668
S31500002BF0FFF708F994F84430FF2B04BF002384F84C
S31500002C00443094F84530FF2B04BF002384F8453048
S31500002C10FFF718F9A36B2BB93246294604F12400B5
S31500002C2000F0DEFC2046BDE87040FFF7DDBB00008B
S31500002C302DE9F0410446FFF7E5F8334B334E1A68A9
S31500002C40334F01321A603568002D52D134601B684B
S31500002C50012B1FD1B84640460135FEF7F5FF382D4A
S31500002C6008F11408F7D1DFF8D0802A4D4046FEF768
S31500002C70EBFF2846FEF7E8FF2748FEF7E5FF274863
S31500002C80FEF7E2FF2648FEF7DFFF264BC3F800807B
S31500002C90254B1D60254A136801331360244AA3643B
S31500002CA01168E36A8B4288BF136014225343F918F4
S31500002CB0201D4A68A2609568E56068609060FA58D1
S31500002CC061610132FA50FFF7BDF81A4B1B6873B108
S31500002CD03368DA6AE36A9A4209D24FF0E0234FF08A
S31500002CE08052C3F8042DBFF34F8FBFF36F8FBDE83B
S31500002CF0F081104B1A68E36A002ACBD13268D26A97
S31500002D009A4298BF3460C5E7F0E50000C8EA0000C3
S31500002D1068E6000040E6000024E6000010E6000039
S31500002D20F8E500003CE6000038E60000D4E50000C7
S31500002D30E8E50000E4E5000054E600002DE9F8436C
S31500002D401F4B204C1D68204BD3F800801F4B0646B6
S31500002D50D3F8009023682068002283F8722004309C
S31500002D600F46FEF7A1FF731C14D19FB1184B2168C3
S31500002D705A688A6021689068C86021680431416099
S31500002D80216804319160226853611A6801321A6021
S31500002D90BDE8F88323682168AD195D6001F104017F
S31500002DA004D34846BDE8F843FEF767BF4046FEF742
S31500002DB064FF084B1A68AA4288BF1D60E8E700BF97
S31500002DC0ECE50000C8EA00003CE6000038E600003A
S31500002DD0F8E50000D0E50000064A13681968064BBE
S31500002DE019B94FF0FF321A6070471268D26812683C
S31500002DF0F9E700BF3CE60000D0E5000010B590F80A
S31500002E00713004463BB9006BFFF718FA2046BDE85F
S31500002E101040FFF713BA012BF9D0022B08D04FF060
S31500002E20140383F31188BFF36F8FBFF34F8FFEE751
S31500002E3010BD0000F8B50C4C0C4F0D4D236803B9BE
S31500002E40F8BDFEF7DFFFFB68DE68301DFEF72CFFDE
S31500002E502B68013B2B602368013B2360FEF7F2FFE2
S31500002E603046FFF7CBFFE9E70CE6000010E600006E
S31500002E70F0E5000008B5084E4FF0E0244FF080550D
S31500002E80FFF7D8FF3368012BFAD9C4F8045DBFF306
S31500002E904F8FBFF36F8FF3E768E600002DE9F04729
S31500002EA00A9C9600324680460D46206BA52199461F
S31500002EB0DDE9087A0CF0BAF8236B043E1E4426F0CE
S31500002EC0070666646DB16B1E04F133020E3513F806
S31500002ED0011F02F8011F09B1AB42F8D1002384F8A3
S31500002EE04230372F08D94FF0140383F31188BFF30C
S31500002EF06F8FBFF34F8FFEE7E7622765201DFEF752
S31500002F00AEFEC7F1380704F11800FEF7A8FE2461EB
S31500002F10A76164624A4641463046FEF75DFF20607F
S31500002F20BAF1000F01D0CAF80040BDE8F0872DE9DC
S31500002F30F04387B0DDE90F940E460021054617469B
S31500002F4098460491B9F1000F08D14FF0140383F3AA
S31500002F501188BFF36F8FBFF34F8FFEE744B94FF071
S31500002F60140383F31188BFF36F8FBFF34F8FFEE710
S31500002F7078230593059A9A4208D04FF0140383F3F9
S31500002F801188BFF36F8FBFF34F8FFEE72046059B77
S31500002F900CF04CF8022384F8713004ABC4F830907E
S31500002FA001930E9B00933A464346314628460294C7
S31500002FB0FFF774FF2046FFF73BFE049807B0BDE815
S31500002FC0F0832DE9F043074685B090008846164603
S31500002FD09946FFF75DF80546F0B17820FFF758F8F7
S31500002FE00446B0B1782200210CF020F80D9B256331
S31500002FF001930C9B009332464B4641463846029459
S31500003000FFF74CFF2046FFF713FE012005B0BDE891
S31500003010F0832846FFF712F94FF0FF30F6E700007D
S31500003020F8B50446254DFEF7EDFE04B92C68271DBC
S315000030303846FEF739FEA36A1BB104F11800FEF705
S3150000304033FE1F4A1F4E1368013313602B68A342D9
S31500003050336800D15BB91C4A1368013B1360FFF764
S31500003060BBFEFEF7EFFE2046FFF7C8FE09E0174855
S315000030703946FEF7F7FD164A136801331360FEF76B
S31500003080E1FE3368C3B12B68A34215D1114B1B680F
S3150000309043B14FF0140383F31188BFF36F8FBFF36F
S315000030A04F8FFEE74FF0E0234FF08052C3F8042D18
S315000030B0BFF34F8FBFF36F8FF8BD00BFC8EA0000A4
S315000030C0D4E50000E4E50000F0E5000010E60000AD
S315000030D00CE60000C8E500002DE9F041044640B9C1
S315000030E04FF0140383F31188BFF36F8FBFF34F8F35
S315000030F0FEE7194B1B68834226D0FEF783FE174B6B
S31500003100D4F828801F68164B65691E68FEF79AFE7C
S31500003110144B98451AD0BD421AD0B54218D0124B5E
S315000031209D4209D1A36A9BB994F87030012B14BF54
S3150000313003200220BDE8F0810C4B9D420AD0002DF1
S3150000314014BF01200420F5E70020F3E70120F1E792
S315000031500220EFE70420EDE7C8EA00003CE60000A5
S3150000316038E6000024E60000F8E5000010E600005E
S3150000317030B58DB008AB214A1D4612F8014B03F855
S31500003180014B002CF9D107AA06A905A8CDE90544EB
S31500003190FEF7E6FC059B0293069B079A1848CDE9C5
S315000031A0004329462346FFF7C2FE164B1860A8B116
S315000031B000F0D8FD012815D14FF0140383F31188D0
S315000031C0BFF36F8FBFF34F8F0F4B4FF0FF321A6075
S315000031D00E4B18600E4B1C60FEF770FE0D4B1B6805
S315000031E00DB030BD0130F9D14FF0140383F31188CF
S315000031F0BFF36F8FBFF34F8FFEE700BFF81E2108A6
S31500003200753E2008CCE50000D0E50000E4E50000AE
S31500003210ECE500008C050000024A136801331360D8
S31500003220704700BFC8E50000014B1868704700BF33
S31500003230ECE50000014B1868704700BFF0E50000A0
S315000032402DE9F84F544B1B68002B40F09E80534BE2
S315000032501C6801341C60BCB9514B1A68126842B133
S315000032604FF0140383F31188BFF36F8FBFF34F8FB3
S31500003270FEE74C4A19681068186011604A4A1368DC
S3150000328001331360FFF7A8FD484D494A2B68DFF864
S315000032902CB19C424FF000000FD2DBF80030DB6A05
S315000032A014214B43D358022B424B1B6828BF0120E5
S315000032B0002B18BF0120BDE8F88FDFF804C10746D0
S315000032C0374B1B681B681BB94FF0FF332B60E4E7D5
S315000032D0334B1B68DB68DB6859688C4201D2296076
S315000032E0DBE7D3E90219D3F81480C1F80890C9F8CE
S315000032F00410D8F8041003F1040E7145D8F8001034
S3150000330008BFC8F8049001395F61C8F80010D3F807
S315000033102880B8F1000F13D0D3E90719C1F8089037
S31500003320C9F80410D8F8041003F1180A5145D8F862
S31500003330001008BFC8F8049001399F62C8F8001051
S31500003340D96ADCF800801426414506FB01F802EB39
S31500003350080A88BFCCF80010DAF80490C3F8089081
S31500003360D9F80860DE60C6F804E0C9F808E0C3F8DA
S3150000337014A052F80830013342F80830DBF8003068
S31500003380DB6A994288BF01209AE70B4A136801332A
S31500003390136000208FE700BFC8E50000ECE50000E1
S315000033A03CE6000038E60000D8E50000D0E5000065
S315000033B068E60000DCE50000E0E50000C8EA000081
S315000033C0E8E500002DE9F84FFEF71CFD4C4B1A68A6
S315000033D042B94FF0140383F31188BFF36F8FBFF325
S315000033E04F8FFEE71A68013A1A601B682BB100245A
S315000033F0FEF728FD2046BDE8F88F424A1268002AEB
S31500003400F5D04148414C424A424E434F14254FF0B5
S31500003410010C51E0C368DB68D3E90718D3F828E04C
S31500003420C1F80880C8F80410DEF8041003F1180982
S3150000343049454FF0000108BFCEF804809962DEF8D6
S3150000344000100139CEF80010D3E90218D3F814E0C1
S31500003450C1F80880C8F80410DEF8041003F1040966
S315000034604945DEF8001008BFCEF804800139CEF8D1
S315000034700010D3F82CE0216805FB0EF802EB080AD1
S315000034808E45DAF804109960D1F808B0C3F80CB08C
S31500003490CBF80490C1F8089052F8081088BFC4F819
S315000034A000E00131C3F814A042F808103168C96A77
S315000034B08E4501D9C7F800C001680029AAD10BB111
S315000034C0FFF78AFC154D2C6844B1134E0127FFF710
S315000034D0B7FE00B13760013CF9D12C600E4B1B687A
S315000034E0002B84D00B4B1B684FF0E0234FF080522B
S315000034F0C3F8042DBFF34F8FBFF36F8F012477E717
S31500003500C8E50000F0E5000024E60000E8E500005C
S3150000351068E60000C8EA0000DCE50000E0E500001F
S315000035201C4B1A681C4BF0B512B101221A60F0BD93
S315000035301A481A601A4D03681A4E2A685A671A49B9
S3150000354032684FF0140C0CFB02F35C18CF58A7B18D
S31500003550676808337F6867600B449F4204BFE3686F
S315000035606360142303FB02114B68DB68036032605F
S31500003570036803685B6F2B60D9E742B94FF0140309
S3150000358083F31188BFF36F8FBFF34F8FFEE7013AC6
S31500003590D9E700BFC8E50000DCE50000C8EA000086
S315000035A0F4E50000E8E5000068E6000010B50C460A
S315000035B040B94FF0140383F31188BFF36F8FBFF345
S315000035C04F8FFEE7054B19681831FEF756FB20466C
S315000035D00121BDE81040FFF7B1BB00BFC8EA0000FB
S315000035E070B40C46114640B94FF0140383F31188AA
S315000035F0BFF36F8FBFF34F8FFEE70D4B42681D6819
S315000036009668EA611D682E621D68183575601D682A
S315000036101B681835956098620368002903F1010359
S3150000362003600CBF20464FF0FF3070BCFFF786BB2F
S31500003630C8EA0000C368DB68F0B543B94FF014036D
S3150000364083F31188BFF36F8FBFF34F8FFEE7D3E984
S3150000365007019A6A81604860506803F11804A04225
S3150000366008BF5160002199621168013911601D4A35
S31500003670D96A1268002A29D1D3E902405A69A060A2
S31500003680446054681D1DAC4208BF50601068013884
S315000036901060154A1068814288BF116013481422D1
S315000036A04A43861874689C60A768DF607D60A560E1
S315000036B05E618358013383500D4B1B68DB6A994268
S315000036C083BF0C4B012018600020F0BD0A4A5068E9
S315000036D0D86185681D626C6084609A6213680133E4
S315000036E01360E9E7C8E50000E8E5000068E60000C9
S315000036F0C8EA0000DCE5000024E60000294B1B6850
S31500003700F0B543B94FF0140383F31188BFF36F8FFD
S31500003710BFF34F8FFEE7C36841F00041016043B934
S315000037204FF0140383F31188BFF36F8FBFF34F8FEE
S31500003730FEE7D0E901410269A1604C605468844209
S3150000374008BF516000210161116801391160D3E998
S3150000375002015A698160486050681D1DA84208BF71
S3150000376051601168013911600F4AD96A10688142A7
S3150000377088BF11600D4814224A43861874689C60FD
S31500003780A768DF607D60A5605E6183580133835062
S31500003790074B1B68DB6A994282BF064B01221A60FF
S315000037A0F0BD00BFC8E50000E8E5000068E60000DF
S315000037B0C8EA0000DCE50000034B1B680360034B0E
S315000037C01B684360704700BFD8E50000ECE50000C9
S315000037D070B50D46044640B94FF0140383F31188C3
S315000037E0BFF36F8FBFF34F8FFEE741B94FF014035E
S315000037F083F31188BFF36F8FBFF34F8FFEE7FEF79A
S3150000380001FB144B62681968134B186890F8720034
S3150000381040B11B68002283F872200124FEF712FBD8
S31500003820204670BD2B68581C12D00C4826680068CC
S31500003830864204D08A4202D800232B60EDE7881A1C
S315000038408342F9D95B1A13442B602046FFF7B4FF75
S315000038500024E3E7ECE50000C8EA0000D8E5000034
S31500003860014B01221A607047DCE50000042906D8E6
S3150000387008B9044B1868163150F82100704700202B
S31500003880704700BFC8EA0000014B1868704700BFC8
S31500003890C8EA0000054B1B6833B1054B1868B0FA3F
S315000038A080F040094000704701207047E4E50000C1
S315000038B0C8E50000F8B5044600282ED01D4DC36AA1
S315000038C02A68D26A93422DD282691B4E002AA1BF72
S315000038D02A68D26AC2F138028261142202FB0363AB
S315000038E042699A421AD1071D3846FEF7DDF92B6860
S315000038F0124ADB6A1168E3628B4288BF13601422A6
S315000039005343F1184A68A2609068E0604760976088
S31500003910F25861610132F2500120F8BD2B68DB6A72
S31500003920C362F9E72B68006DDB6A98422CBF002062
S315000039300120F2E7C8EA000068E60000E8E50000BA
S3150000394070B5044608B9002070BD1F4B1B68834242
S3150000395008D04FF0140383F31188BFF36F8FBFF3C2
S315000039604F8FFEE75B6D43B94FF0140383F3118865
S31500003970BFF36F8FBFF34F8FFEE7C16A026D013B46
S3150000398091424365DFD0002BDDD1051D2846FEF7A9
S315000039908BF9236DE362C3F13802A2610B4A116809
S315000039A08B4288BF13601421094A4B43D0184168E3
S315000039B0A1608E68E66075608D60D15860610131E6
S315000039C0D1500120C0E700BFC8EA0000E8E50000CA
S315000039D068E6000070B50446002846D0426D42B93C
S315000039E04FF0140383F31188BFF36F8FBFF34F8F2C
S315000039F0FEE7036D994238BF1946C36A8B4234D03D
S31500003A00012A32D1194A1268824208D14FF01403B2
S31500003A1083F31188BFF36F8FBFF34F8FFEE7826981
S31500003A20134DC162002A4FF0140202FB0353426990
S31500003A30A4BFC1F1380181619A4216D1061D3046F4
S31500003A40FEF732F90B4AE36A11688B4288BF1360AE
S31500003A5014225343E9184A68A2609068E060466001
S31500003A609660EA5861610132EA5070BDC8EA00000A
S31500003A7068E60000E8E50000034B186810B1436DE6
S31500003A8001334365704700BFC8EA0000914208B59C
S31500003A90416000610AD8D21A83699A420DD2084B56
S31500003AA0011D1868FEF7E9F8002008BD9A4201D208
S31500003AB0994202D2034B011DF3E70120F5E700BF4F
S31500003AC078EB00007CEB000070B504460D46164608
S31500003AD0A1692B46324629442046FFF7D7FF00B995
S31500003AE070BDA36920461D44236A9847F0E700008D
S31500003AF00E4B1B68DB6870B5DC680546201D0E465C
S31500003B00FEF7D2F894F828305A0709D532462946E6
S31500003B102046FFF7D9FF236A2046BDE870401847C4
S31500003B2023F0010384F82830F5E700BF7CEB0000A2
S31500003B30F8B50F4E0546FFF777FB33688342044618
S31500003B4009D90C4F3B681A6852B90B4A116839609B
S31500003B501360012300E000232B6034602046F8BD8B
S31500003B60DB684FF0FF311868FFF7C2FFEAE700BFD6
S31500003B706CEB00007CEB000078EB00002DE9F041D7
S31500003B805B4F5C4E86B03B68D3F80080B8F1000FFF
S31500003B9038D0DB68D3F800800024FFF73DFB02A88D
S31500003BA0FFF7C6FF029B0546002B48D164BB404584
S31500003BB030D3FFF707FC29464046FFF799FF10224E
S31500003BC0002102A80BF032FA3068002202A9FEF7A3
S31500003BD06FFE0028D7D0029B0498002B32DB049C92
S31500003BE06369002B35D101A8FFF7A2FF029B013BB9
S31500003BF00546082BE8D8DFE803F03030535A733017
S31500003C0030535A000124C8E73B4B1B681C68B4FAC2
S31500003C1084F4640930682246A8EB0501FEF7E4FF48
S31500003C20FFF7D0FB0028CAD14FF0E0234FF08052B7
S31500003C30C3F8042DBFF34F8FBFF36F8FBFE7FFF7B6
S31500003C40C1FBBCE7039B05999847029B002BBBDB96
S31500003C50C5E7201DFEF728F8C5E794F82830A169C6
S31500003C6043F0010384F82830039B0246194420469A
S31500003C70FFF70CFF0028A7D094F8283059070AD57B
S31500003C80A36903992A4619442046FFF71DFF236AB4
S31500003C902046984798E723F0010384F82830F6E792
S31500003CA094F8283023F0010384F828308CE794F840
S31500003CB0283043F0010384F828300399A16141B903
S31500003CC04FF0140383F31188BFF36F8FBFF34F8F49
S31500003CD0FEE70346024601442046FFF7D7FE73E798
S31500003CE094F828309A07DDD42046FEF7A7FA6BE74A
S31500003CF07CEB000074EB000078EB0000F7B5114C8C
S31500003D00FEF780F82568BDB90F4F104E3846FDF70F
S31500003D109BFF3046FDF798FF0D4B0E4A1F600E4B7A
S31500003D2010211E6005200D4B0095FEF7E2FB20607A
S31500003D3010B10B49FEF730FF03B0BDE8F040FEF7C7
S31500003D4081B800BF74EB000094EB000080EB00002C
S31500003D507CEB00001CEB000078EB0000CCEA0000D6
S31500003D60FD1E210810B588B0FFF7C8FF124B1B686F
S31500003D70B3B1002407AA06A905A8CDE90544FDF7B5
S31500003D80FBFE059B0293069B019337230093079A3C
S31500003D900A490B482346FFF7CAF80A4B186040B990
S31500003DA04FF0140383F31188BFF36F8FBFF34F8F68
S31500003DB0FEE7012008B010BD74EB0000021F2108C9
S31500003DC07D4B200870EB00001FB514461A466FF0B5
S31500003DD00103CDE900300548CDE902140023694608
S31500003DE00068FEF7F9FC04B010BD00BF74EB0000DC
S31500003DF0044A136801331360C30742BF024B012212
S31500003E001A707047A8EB0000B4EB000037B50E48F7
S31500003E100E4D0068002401230DF107020DF1060185
S31500003E208DF806408DF807402C7008F075FA40B9F9
S31500003E30074B2A780AB9013BFBD19DF8070003B06E
S31500003E4030BD2046FBE700BFB8EB0000B4EB000036
S31500003E5041420F0007B502238DF804008DF80510C6
S31500003E6001AA3021002008F0DDFB03B05DF804FB59
S31500003E70F8B5002506462C46871C16F8240017F8C8
S31500003E80241000EA0103FF2B05D0FFF7E3FF00B182
S31500003E9001350134F1E72A4621460248BDE8F840DB
S31500003EA00BF054B80A1F210808B50121FF20FFF7BF
S31500003EB0D1FF80211220FFF7CDFF6420FDF716FC0D
S31500003EC012480BF0ABF81248FFF7D2FF11480BF07F
S31500003ED0A5F81148FFF7CCFF10480BF09FF81048E3
S31500003EE0FFF7C6FF0121FF20FFF7B4FF00211520D1
S31500003EF0FFF7B0FF0B480BF091F80B48FFF7B8FF40
S31500003F00BDE8084009480BF089B800BF271F210803
S31500003F10662D21083D1F21083E2D2108501F21082E
S31500003F201A2D2108611F21083A2B21087A1F210822
S31500003F3013B5104C00203C238DF806308DF8070091
S31500003F40207001F051F90C480DF1060100680123BB
S31500003F500DF1070208F0E0F9014620B107480AF022
S31500003F60F5FF02B010BD064B2278002AF9D1013BBD
S31500003F70FAD1F6E7B4EB0000B8EB0000911F210878
S31500003F8041420F0013B501238DF807000C460DF1D1
S31500003F9007023021002008F045FB034628B901231B
S31500003FA02246302108F0B0FB0346184602B010BD89
S31500003FB00F4A1378052B17D850781BB9392815D90D
S31500003FC007F092BF5A1E012A05D9032B08D0042BED
S31500003FD008D0062800E0102834BF002021207047B2
S31500003FE00A28F9E70C28F7E721207047184670479A
S31500003FF09005000038B5FFF7DBFF88BB224B1D7824
S315000040005C78052D0AD921484FF49B7108F02EFEE5
S315000040101E484FF49F7108F029FE2EE0032D0ED99D
S31500004020042D28D10B2C04D9184840F23B1108F076
S315000040301DFE240104F1105404F598240EE085B900
S315000040404B2C04D911484FF49C7108F00FFE04EB79
S315000040500514240104F18C4404F5981401236360CB
S3150000406038BD012D01D13B2CEBE7022D01D12B2CC4
S31500004070E7E71B2CE5E7052CCAD8054BA4001A591F
S3150000408042F020021A51EBE790050000B01F21080C
S315000040901C86042438B5FFF78BFF88BB224B1D789E
S315000040A05C78052D0AD921484FF4CE7108F0DEFD63
S315000040B01E484FF4D27108F0D9FD2EE0032D0ED91B
S315000040C0042D28D10B2C04D9184840F2A11108F070
S315000040D0CDFD240104F1105404F598240EE085B9B1
S315000040E04B2C04D911484FF4CF7108F0BFFD04EBF7
S315000040F00514240104F18C4404F59814002363602C
S3150000410038BD012D01D13B2CEBE7022D01D12B2C23
S31500004110E7E71B2CE5E7052CCAD8054BA4001A597E
S315000041206FF345121A51EBE790050000B01F210806
S315000041301C86042473B5194E8DF8011060F07F03B8
S31500004140044600208DF80030ADF80400307001F010
S315000041504BF8FFF79FFF12480223006801AA694641
S3150000416008F0DAF8054640B1FFF744FF0D4822464D
S3150000417029460AF0EBFE02B070BD0B4B32780AB945
S31500004180013BFBD133782BB9084B09481A68214605
S315000041900AF0DCFEFFF72EFFEDE700BFB4EB0000F0
S315000041A0B8EB00007D20210841420F00A8EB00007B
S315000041B0A620210801210420FFF7BCBFF7B51B4F3D
S315000041C08DF80000044600200D468DF80100ADF87C
S315000041D00400387001F008F8FFF75CFF144802236A
S315000041E0006801AA694608F097F8064650B1FFF73D
S315000041F001FF10482346324629460AF0A7FE002052
S3150000420003B0F0BD0C4B3A780AB9013BFBD13B78C1
S315000042103BB92246294609480AF098FEFFF7EAFE0E
S31500004220EDE7FFF7E7FE9DF80500E9E7B4EB0000D0
S31500004230B8EB0000DE20210841420F00FF202108D4
S3150000424038B50A4D44202946FFF7B8FF294604042D
S315000042504320FFF7B3FF294644EA00244220FFF734
S31500004260ADFF2043C0F3160038BD00BF1B21210857
S315000042702DE9F04181488EB00AF0D0FE00204FF4BF
S31500004280807308A9ADF820308DF82200099008F057
S315000042900FF902460146002838D079480AF056FE42
S315000042A0784D79480AF0BAFE2946002007F0C8FF83
S315000042B0014600284DD075480AF048FE7448754DF1
S315000042C0754C0AF0ABFE80210720FFF733FF7348D9
S315000042D00AF03CFE6420FDF709FA00210720FFF7EB
S315000042E029FF6420FDF702FA55210020FFF722FF7F
S315000042F029460020FFF762FF552856D020460AF0CF
S315000043008DFE4FF47A70FDF7F1F9EDE708F070F9DC
S31500004310014610B162480AF019FE0121002008F09A
S3150000432075FA014610B15F480AF010FE5E4B0A931B
S3150000433003F101230B930AA800238DF8303008F00F
S3150000434071FA014659480AF001FE59480AF066FE1C
S31500004350A6E7584B0FCB0AAC84E80F002146286825
S3150000436007F092FF014608B15348A5E7534928686C
S3150000437007F0F0FF044610B1014651489CE74FF4A0
S31500004380E053ADF820308DF8220007F043FC089882
S3150000439007F0EEFD012221464A4807F0D0FDFFF75F
S315000043A029FE49480AF03AFE88E748480AF036FEF0
S315000043B000230121FF208DF81E308DF81F308DF867
S315000043C020308DF82830FFF745FD06460120FDF721
S315000043D08DF90DF11E010A20FFF7D4FD0DF11F0125
S315000043E007460B20FFF7CEFD80460120FDF77EF93C
S315000043F008A90A20FFF7C6FD0AA904460B20FFF705
S31500004400C1FD9DF8283005939DF820300294CDE932
S31500004410030305469DF81F3001932C439DF81E307B
S3150000442000932B4843463A463146E4B20AF08EFDE5
S31500004430E4B99DF82030262B18D19DF82830413B51
S31500004440012B13D823480AF0E9FDFFF72DFD22487A
S31500004450FFF70EFD4FF47A70FDF748F9FFF7AAFE55
S315000044601E480EB0BDE8F0410AF0D8BD1C480AF05F
S31500004470D5FD4FF47A70FDF739F999E72421210823
S3150000448046212108B8EB0000CA212108DF212108B6
S315000044904E2221081B212108872221086422210897
S315000044A05C2121088321210800060401A32121089B
S315000044B0BD21210864302108F9212108F14D200889
S315000044C0192221089005000040222108A92221086E
S315000044D0C82221082C2321083A2B21084A23210827
S315000044E0652321082DE9FF41FF2300208DF80830C0
S315000044F0012203AB02A98DF809000390FCF7FBFE2D
S31500004500039B9BB39DF808109E480AF01FFD039B72
S3150000451063B39DF80830212B25D8212B26D8DFE858
S3150000452013F06A0075007E00870090009900A200D3
S31500004530AB00B40025002500250025002500250038
S315000045402500BD00C4002500250025002500250006
S31500004550C80012012500250025002500250025009C
S31500004560250017011E01302B00F00081864E3368AE
S31500004570012B40F0A181854C2378012B09D1FFF74F
S3150000458019FEFFF717FE02210420FFF7D3FD0023D3
S3150000459023707F4C23789BB17E494120FFF70EFEA6
S315000045A00546FFF74DFEC5F3C00301900093217841
S315000045B079482B4608220AF0C9FC2378013B237070
S315000045C074494120FFF7FAFD020740F175817348EF
S315000045D00AF024FDFFF734FE714B9842044640F280
S315000045E0CC8070480AF01AFDFFF7E4FD0023336023
S315000045F004B0BDE8F0816C48FFF73AFC4FF47A70DE
S31500004600FDF774F869480AF009FDAFE76848FFF757
S315000046102FFC4FF47A70FDF769F86648F3E76648B1
S31500004620FFF726FC4FF47A70FDF760F86348EAE777
S315000046306348FFF71DFC4FF47A70FDF757F86148A1
S31500004640E1E76148FFF714FC4FF47A70FDF74EF886
S315000046505E48D8E75E48FFF70BFC4FF47A70FDF72B
S3150000466045F85C48CFE75C48FFF702FC4FF47A70E8
S31500004670FDF73CF85948C6E75948FFF7F9FB4FF4F0
S315000046807A70FDF733F85748BDE75748FFF7F0FB58
S315000046904FF47A70FDF72AF85448B4E73A4A54487A
S315000046A001231360394A1370ADE7FFF7FDFB51484C
S315000046B0A9E75148374E514F0AF0B0FC50480AF06E
S315000046C0ADFCFFF777FD4F480AF0A8FCFFF772FD37
S315000046D04D480AF0A3FC02210420FFF72BFD00241D
S315000046E031464120FFF76AFD4FF47A72B4FBF2F3CC
S315000046F002FB134305464BB9FFF7A2FDC5F3C00302
S3150000470000902A46082138460AF020FC290709D4D9
S315000047100120FCF7EBFF01344CF250339C42DFD111
S315000047203A4870E7FFF78CFD394905463D20FFF70B
S3150000473045FD2946044637480AF008FC2146364816
S315000047400AF004FC12E7124B34480A221A705AE7A0
S315000047500D4A3348022313600C4A137053E70B4A81
S31500004760304800231370084A13604CE7064A2E4867
S3150000477003231360054A137045E7002858D12B48D8
S3150000478030E700BF8C232108B0EB0000AEEB000041
S31500004790ACEB00001B212108C426210811272108A3
S315000047A0FEFF0500302721087A2C210899232108CD
S315000047B0DA2B2108BF2321083A2B2108E5232108FB
S315000047C09A2A21080B242108F629210831242108D8
S315000047D05229210857242108B62821087D242108BA
S315000047E012282108A42421086E272108CC24210898
S315000047F0F424210819252108372521086C252108CC
S31500004800572521085E25210865252108F32521085D
S31500004810AA252108BB252108CE2521080526210821
S315000048203C262108642621088B26210848272108D2
S31500004830514DFFF72FFCFFF77BFBFFF7E7FA00234D
S315000048408DF80A302B70013C9DF80A308DF80B303C
S31500004850FFF7DCFA2F788DF80A0077B101220DF107
S315000048600A010020FCF736FD9DF80A30D92B0AD143
S315000048709DF80B30FF2B06D107E0D828F4D19DF820
S315000048800B30FF2B06D0013CDED2FFF7B3FB002333
S315000048902B70A9E64FF00108384885F800800AF029
S315000048A0BDFB42460DF10B013846FCF713FD4246AF
S315000048B00DF10A013846D5E73368022B7FF498AE2E
S315000048C02F4D2C78022C09D1FFF774FCFFF772FCF0
S315000048D021460420FFF72EFC00232B702949412096
S315000048E0FFF76CFC03077FF583AEFFF7A9FC264BA9
S315000048F0441E9C4204D9FFF75DFC02232B7077E629
S31500004900FFF716FBFFF782FA1B4E8DF8080000230F
S315000049103370013C16D39DF808308DF80930FFF747
S3150000492075FA37788DF808007FB1012202A90020B8
S31500004930FCF7D0FC9DF80830D92BEAD19DF8093058
S31500004940FF2BE6D100233370D5E7D828F2D19DF8A6
S315000049500930FF2BDDD14FF00108084886F80080AA
S315000049600AF05CFB42460DF109013846FCF7B2FC41
S31500004970424602A93846DBE7ADEB00006027210876
S31500004980AEEB00001B212108FDFF050070477047B4
S315000049907047704708B500F077FB05F0CBFA08F0D2
S315000049A05FFEBDE8084000F065B87047FCF796BFAB
S315000049B008B500F00DF8BDE8084000F04DB808B5A0
S315000049C000F048F8BDE8084000F008B870477047A6
S315000049D0014807F027BF00BF92050000064B1B6881
S315000049E01A7A022A04D812B1044A1B681360704767
S315000049F0032AF9D0704700BF9C050000BCEB0000FD
S31500004A0030B5104D0FCD8DB005AC0FC495E807003D
S31500004A104FF4E133059301238DF81830022384E81F
S31500004A2007000A93084B93E8070002AC074B84E89B
S31500004A300700009305AA00232146054805F086FBDA
S31500004A400DB030BD7C30210898302108E0EB000025
S31500004A50FCEB0000FFF7D4BF014800F0EDBF00BF3C
S31500004A60A430210808B5FCF78CFCFFF701FCFFF722
S31500004A7039FDFCE770B5134C134D23685E6C0023BB
S31500004A80194628460222B04723681E6800231946A5
S31500004A9002222846B04723680C4DD3F8C0300520C3
S31500004AA0984723685E6C0023194628460A22B047B9
S31500004AB023681C6800232846A4460A22BDE87040E5
S31500004AC0194660470001300000C004240000134668
S31500004AD00FB404B07047000030B5114B93F858304E
S31500004AE0013BDBB2FD2B8FB018D80E4D0FCD6C46B7
S31500004AF00FC40FCD0FC40FCD0FC495E8030084E893
S31500004B000300094C6846D4F844370DF0CFFE05F093
S31500004B109DFCD4F8443700200FB030BD0120FBE7E0
S31500004B2000021F0858021F0800800524134B016865
S31500004B30D3F84437F0B50127013900D2F0BDD0F8DB
S31500004B4008C04668CCF38455C5EBDC623468013294
S31500004B500023013A0CD203FA05F203EA0C03C3F36D
S31500004B60150324EA0202AB40134333600830E3E73F
S31500004B7007FA02FE43EA0E03EBE700BF00800524B6
S31500004B8008B51848FFF7D2FF1748FFF7CFFF05F023
S31500004B90D5FE05F0E7FE05F0F1FE05F003FF05F092
S31500004BA00DFF1248FFF7C2FF1148FFF7BFFF11487C
S31500004BB0FFF7BCFF1048FFF7B9FF1048FFF7B6FF35
S31500004BC00F48FFF7B3FF0F48FFF7B0FF0E48FFF798
S31500004BD0ADFF0E48FFF7AAFFBDE808400C48FFF7F7
S31500004BE0A5BF00BFD80F00003C0F0000780B0000E7
S31500004BF0440C0000380C0000580C0000180B000094
S31500004C000C0B0000000B0000540B00009C0B000076
S31500004C10900B000010B5254CFFF7B2FF94F8040680
S31500004C2000F00100FFF758FF4FF4C023C4F86C34BE
S31500004C30D4F840311E4843F40023C4F84031D4F878
S31500004C40403143F00103C4F84031D4F8403143F019
S31500004C500203C4F84031FFF769FF16491648D1F838
S31500004C60103543F00203C1F81035636923F40033AD
S31500004C706361636943F480336361D0F84027D0F8F9
S31500004C807837C2F34342023A23F4F07343EA4213FD
S31500004C90C0F87837D1F8943443F40023C1F894343B
S31500004CA0236943F46013236110BD00BF0080042410
S31500004CB0640D000000A005240080052408B550B14D
S31500004CC00748FFF733FF0748FFF730FF0648BDE800
S31500004CD00840FFF72BBF0548FFF728FF0448F6E713
S31500004CE0AC0D0000540E0000480E0000200E00001F
S31500004CF0CC0D00000B48D0F800D05DF804EB5DF851
S31500004D0004CB5DF804BB5DF804AB5DF8049B5DF86D
S31500004D10048B80BC40BC20BC10BC08BC04BC02BCDC
S31500004D2001BC704724EC0000114AD2F8103623F477
S31500004D308073C2F810360F4B596B41F0010159636D
S31500004D40596B41F0020159630423C2F8383482B02A
S31500004D5000238DF807309DF80730092B01D902B0E2
S31500004D60704700BF9DF807300133DBB2F1E700BFA3
S31500004D700080042400840424FEE7FEE7054B064A6F
S31500004D8006498B4200D3704752F8040B43F8040BD4
S31500004D90F7E700BF00040000D03A21082C100000FD
S31500004DA0064B0748DA1C121AC11E22F0030299426A
S31500004DB088BF002200210AF039B900BF0CFD0000AF
S31500004DC02C10000070B562B63E4B3F4A1A603F4B4E
S31500004DD03F4A93F806363F4C3F4D03F00F030F2B27
S31500004DE015BF3E4B4FF00063D3F89312D3F8371438
S31500004DF00CBF116011603A4A0CBFD3F83634D3F8B1
S31500004E009232136005F0A2FC2F4BE36308F0FAFB25
S31500004E10032005F059FF05F09BFC324BDB694FF090
S31500004E208061D3F880304FF08C409847EB690226BA
S31500004E3066F30E33EB612C4BDA696FF30202DA612B
S31500004E40304605F0FFFC214B0D22C3F828265A698F
S31500004E5042F001025A615A691A6A66F302021A623C
S31500004E601A6A1207FCD5AB69022262F38403AB61AE
S31500004E70AB691B04FCD51D4B1D4D5A6E6FF34102E9
S31500004E805A665A6E6FF300025A66FFF74DFF1949CC
S31500004E900D4B21614FF4FA40E1611749606200222F
S31500004EA020624FF40040C4E90033C4E90B15C4E99D
S31500004EB00F33A2606261E360A06263636164A26112
S31500004EC070BD00BF78EC0000005A62020080042426
S31500004ED020EC000028EC00000081042400001F08DC
S31500004EE01CEC000000013000008604240084042429
S31500004EF0002D310100B4C4040048E8014FF0E0235E
S31500004F0084B0D3F8402F0192D3F8442F029201992E
S31500004F10094A91420DD10299084A914209D1D3F822
S31500004F20882D0392039A42F470020392039AC3F8FF
S31500004F30882D04B0704700BF210011101100001128
S31500004F4013B50023009301932F4BD3F8102500923D
S31500004F50009A00922D4A116821F00F011160116824
S31500004F601160D3F89C1421F46071C3F89C14D3F833
S31500004F70041701910199C3F80415D3F8001701919C
S31500004F800199C3F80015D3F8101541F01C01C3F8B8
S31500004F901015D2F8024014F48074FAD11C48436903
S31500004FA043F480334361436964F351434361FFF73C
S31500004FB0A5FF184B4FF080725A60174BC0F840316E
S31500004FC0164B5A6864F3C3025A60036A0E4A43F4E6
S31500004FD080330362036A43F400330362D2F89434E5
S31500004FE043F40023C2F89434036943F46013036165
S31500004FF00B4B1A6842F400221A601A6842F48022A7
S315000050001A6002B010BD00BF00A0052400000524F0
S3150000501000800424000030410300080000810424BD
S315000050200084042430B50E4D2B6885B043B90D4B72
S315000050300FCB6C4684E80F002046FCF70DFD286078
S31500005040FCF73CFC022808D1286830B14FF0FF314C
S3150000505005B0BDE83040FCF73CBD05B030BD00BF33
S31500005060CCEC0000A830210808B5FCF727FC022884
S3150000507006D1044B186818B1BDE80840FCF74EBDD0
S3150000508008BD00BFCCEC0000044802231421C2185E
S3150000509001334B2B82F80013F9D1704700E100E091
S315000050A0064B1868002382B262F30F03000C60F30C
S315000050B01F4382B0184602B0704700BF3031210846
S315000050C009207047014803F023BC00BFE4302108E3
S315000050D037B5044606200D4600F0D8FDE2B2132A85
S315000050E00346084A02D11178A52908D01278009201
S315000050F02946054A204602F0F5FE03B030BD6FF0A2
S315000051000600FAE7B0050000E4302108014803F084
S315000051102DBB00BFE43021081FB5064B1B68029368
S31500005120054B0193054B0093054B03F00DFA05B0B3
S315000051305DF804FB60F10000ECED0000C005000026
S31500005140E430210807B5064B064A1B680193064B57
S315000051500093064B03F0F8F803B05DF804FB00BFBC
S3150000516060F10000E4302108ECED0000C00500000D
S3150000517007B5064B064A1B680193064B0093064B80
S3150000518003F02AF803B05DF804FB00BF60F10000ED
S31500005190E4302108ECED0000C0050000014902F0F2
S315000051A087BD00BFE43021080149024802F058BD1E
S315000051B0C0050000E430210807B5064B0193064BF5
S315000051C00093064A064B074902F000FC03B05DF85F
S315000051D004FB00BFE4F0000060F10000C005000021
S315000051E000FC0200E4302108014B1870704700BF34
S315000051F0B0050000014803F0F3BA00BFE43021080F
S315000052000F4BDA79920714D51B79ABB90D4B5A6956
S3150000521048B142F010025A615A6939B142F00102AE
S315000052205A610020704760F30412F4E761F300024C
S31500005230F6E74FF0FF3070476FF00100704700BF90
S31500005240ECEC000000000345024BD87900F00100A9
S31500005250704700BFECEC00000B28014603D1054A5D
S31500005260012003F08CBA0A2803D1024A012003F078
S31500005270A1BA7047E43021080B28014603D1054A3C
S31500005280022003F07CBA0A2803D1024A022003F066
S3150000529091BA7047E4302108014802F06FBD00BFA3
S315000052A0E430210838B5234B0222C3F88420BFF32B
S315000052B04F8FBFF36F8F204BD3F80028D30735D419
S315000052C001231946202B01D11C4606E001FA03F4FE
S315000052D0144203F1010027D0DCB2184B03EB041390
S315000052E09A68C2F38162032A22D09B689B0F032B24
S315000052F01ED0134B142202FB0433D3E90253ED1ADA
S3150000530018BF01250F4B0E4ADB680C49DB690E48B6
S3150000531098472DB1084A01235169A3400B435361B5
S31500005320044B02225A6038BD0346CBE70024D4E77B
S315000053300025E7E700E100E00000034400FC02006E
S31500005340ECED000000013000C005000038B5244B2C
S315000053504FF48062C3F88020BFF34F8FBFF36F8F87
S31500005360204BD3F80028D30736D4012319460C2B3B
S3150000537001D11C4606E001FA03F4144203F10100D0
S3150000538028D0DCB2184B03EB04139A68C2F381628F
S31500005390032A23D09B689B0F032B1FD0134B142289
S315000053A002FB0433D3E90253ED1A18BF0125104B53
S315000053B00E4ADB680C49DB690E4898472DB1094A4D
S315000053C001235169A3400B435361054B4FF480629F
S315000053D01A6038BD0346CAE70024D3E70025E6E78E
S315000053E000E100E000800724001C0624FCEC00001D
S315000053F000013000B4050000064B1868002382B295
S3150000540062F30F03000C60F31F4382B0184602B02C
S31500005410704700BF18322108014B1868704700BF5B
S315000054206C060000014B1868704700BF10060000AC
S31500005430014B1868704700BFCC050000014AC9B28D
S3150000544003F0E2BD6C060000014AC9B203F0DCBD00
S3150000545010060000014AC9B203F002BE6C06000045
S31500005460014AC9B203F0FCBD10060000014804F071
S3150000547005BC00BF6C060000014804F0FFBB00BF7E
S3150000548010060000014804F0F9BB00BFCC0500007F
S31500005490014904F0B3BB00BF6C060000014904F0EB
S315000054A0ADBB00BF10060000014904F0A7BB00BF5A
S315000054B0CC050000014804F07FBB00BF6C0600006D
S315000054C0014804F079BB00BF10060000014804F053
S315000054D073BB00BFCC05000037B5044600200D465F
S315000054E000F0D4FB064B1B680193064B0093024663
S315000054F0054B2946204604F015F903B030BD00BF20
S3150000550060F10000C00500006C06000037B50446D7
S3150000551001200D4600F0BAFB064B1B680193064BB3
S3150000552000930246054B2946204604F0FBF803B0DB
S3150000553030BD00BF60F10000C0050000100600008D
S3150000554037B504460B200D4600F0A0FB064B1B6842
S315000055500193064B00930246054B2946204604F06C
S31500005560E1F803B030BD00BF5CF10000B4050000F7
S31500005570CC050000014804F0D1B800BF6C0600005D
S31500005580014804F0CBB800BF10060000014804F043
S31500005590C5B800BFCC050000014804F0BCB800BF88
S315000055A06C060000014804F0B6B800BF1006000003
S315000055B0014804F0B0B800BFCC0500007FB5104B21
S315000055C0D3E90354B2F5806F2E883ABF02F1FF3358
S315000055D0C3F3090340F2FF3363F30D162E802588CB
S315000055E063F30D15074B25801B680293064B019349
S315000055F0064B0093024B04F055F804B070BD00BF93
S315000056006C06000060F10000ECED0000C005000033
S315000056107FB5104BD3E90354B2F5806F2E883ABF9D
S3150000562002F1FF33C3F3090340F2FF3363F30D16B0
S315000056302E80258863F30D15074B25801B68029382
S31500005640064B0193064B0093024B04F02BF804B073
S3150000565070BD00BF1006000060F10000ECED000018
S31500005660C00500007FB5104BD3E90354B2F5806F37
S315000056702E883ABF02F1FF33C3F3090340F2FF332A
S3150000568063F30D162E80258863F30D15074B2580D1
S315000056901B680293064B0193064B0093024B04F0E2
S315000056A001F804B070BD00BFCC0500005CF100003D
S315000056B0FCEC0000B40500000D4B1A69B1F5806FD3
S315000056C013B538BF01F1FF33148834BFC3F30903A0
S315000056D040F2FF3363F30D14064B14801B680193ED
S315000056E0054B0093024A054B03F056FF02B010BD6E
S315000056F06C06000060F10000ECED0000C005000043
S315000057000D4B1A69B1F5806F13B538BF01F1FF3340
S31500005710148834BFC3F3090340F2FF3363F30D1457
S31500005720064B14801B680193054B0093024A054BF8
S3150000573003F032FF02B010BD1006000060F1000059
S31500005740ECED0000C00500000D4B1A69B1F5806F45
S3150000575013B538BF01F1FF33148834BFC3F309030F
S3150000576040F2FF3363F30D14064B14801B6801935C
S31500005770054B0093024A054B03F00EFF02B010BD25
S31500005780CC0500005CF10000FCEC0000B405000054
S315000057900D4BDA68B1F5806F13B538BF01F1FF33F1
S315000057A0148834BFC3F3090340F2FF3363F30D14C7
S315000057B0064B14801B680193054B0093024A054B68
S315000057C003F054FE02B010BD6C06000060F100004C
S315000057D0ECED0000C00500000D4BDA68B1F5806FF6
S315000057E013B538BF01F1FF33148834BFC3F309037F
S315000057F040F2FF3363F30D14064B14801B680193CC
S31500005800054B0093024A054B03F030FE02B010BD73
S315000058101006000060F10000ECED0000C00500007D
S315000058200D4BDA68B1F5806F13B538BF01F1FF3360
S31500005830148834BFC3F3090340F2FF3363F30D1436
S31500005840064B14801B680193054B0093024A054BD7
S3150000585003F00CFE02B010BDCC0500005CF10000A8
S31500005860FCEC0000B4050000024B034A1B68034928
S3150000587003F048BD60F10000C00500006C060000A2
S31500005880024B034A1B68034903F03CBD60F100006C
S31500005890C005000010060000024B034A1B680349BE
S315000058A003F030BD5CF10000B4050000CC0500003B
S315000058B00149024803F0C6BCC00500006C060000A2
S315000058C00149024803F0BEBCC005000010060000F6
S315000058D0034B044904484FF400129A6403F0B2BC27
S315000058E000840424B4050000CC05000007B5064B6F
S315000058F00193064B0093064A064B074903F016FC34
S3150000590003B05DF804FB00BFE4F0000060F10000A6
S31500005910C005000000FC02006C06000007B5064B3F
S315000059200193064B0093064A064B074903F0FEFB1C
S3150000593003B05DF804FB00BFE4F0000060F1000076
S31500005940C005000000FC02001006000007B5064B6B
S315000059500193064B0093064A064B074903F0E6FB04
S3150000596003B05DF804FB00BF6CF000005CF10000C2
S31500005970B4050000001C0624CC050000014803F015
S3150000598043BA00BF6C060000014803F03DBA00BFF1
S3150000599010060000014803F037BA00BFCC0500002E
S315000059A0012809D0022809D050B9064B5B6993F843
S315000059B0290000F001007047034BF7E7034BF5E7BA
S315000059C0002070476C06000010060000CC050000A1
S315000059D01928014603D1094A012003F015BB1828EE
S315000059E003D1064A012003F03BBB1B2801D1044A20
S315000059F0F2E71A2801D1024AF4E770476C06000064
S31500005A00100600001928014603D1094A022003F0B6
S31500005A10FBBA182803D1064A022003F021BB1B2833
S31500005A2001D1044AF2E71A2801D1024AF4E7704785
S31500005A306C0600001006000013B50446807880B995
S31500005A4006F09BF863788DF8043023788DF80530DE
S31500005A5000238DF80630019802B0BDE8104006F02C
S31500005A6087BA0120ECE70000354BDFED366AD3F844
S31500005A70102242F04002C3F8102207EE900AD3F833
S31500005A801022F4EEE67A42F01002F1EE10FA07EE7A
S31500005A90101A82B0C3F8102206DCF0EE086AB4EEE3
S31500005AA0E67AF1EE10FA08D5D3F8102242F0200279
S31500005AB0C3F81022002002B070479FED237AF4EE5F
S31500005AC0C77AF1EE10FA10D5D3F810226FF303025D
S31500005AD0C3F81022D3F810226FF38612C3F81022EF
S31500005AE0D3F810226FF30412E2E777EEC77ADFED00
S31500005AF0176A134A87EEA67AF7EE007A77EE277AC8
S31500005B00FCEEE77ACDED017A9DF80430F6EE007AE8
S31500005B1077EE277A07EE103AB8EE477AB4EEE77AD0
S31500005B20F1EE10FAC2BFFCEEE77ACDED017A9DF8F0
S31500005B300430D2F8101263F30301C2F81012B9E769
S31500005B400038042433333340CDCCCC3F0AD7A33DB1
S31500005B500A4B9A6C013A052A0ED8DFE802F00305D3
S31500005B600705090B586C7047D86A7047D86B7047A1
S31500005B70186B7047586B70470020704728EC000080
S31500005B8006281DD8DFE800F0040A0D1013161900C8
S31500005B900C4B586809B1B0FBF1F07047094B186A15
S31500005BA0F8E7084B586AF5E7064B986AF2E7054BA3
S31500005BB0D86AEFE7034B186BECE7024BD868E9E7C6
S31500005BC00020E7E728EC000010B5032814D8DFE82A
S31500005BD000F0020A0D100F48C06A7AB1A3B981B16C
S31500005BE0B0FBF1F00DE00B48C069F6E709484069E3
S31500005BF0F3E708488068F0E70020EEE723B909B923
S31500005C00400810BD4900EBE7CB07FAD50229F8D9C1
S31500005C10E6E700BF28EC0000F8B50C461546042858
S31500005C2028D8DFE800F003211B1E2400FFF790FFB1
S31500005C3015B394B107F0C4FE064620460F4607F09A
S31500005C40BFFE104B002207F07FFD02460B46304692
S31500005C50394608F059F808F0C7F9F8BD0A4BD86973
S31500005C60E6E7094B5869E3E7074B9868E0E7064B18
S31500005C70D868DDE70020DBE7002CEED0B0FBF4F0BF
S31500005C80EBE700BF0000E03F28EC000010B50E284F
S31500005C9000F28F81DFE810F00F001E002D00530088
S31500005CA0720084009600B300CA00DD00E700090117
S31500005CB03201600182014FF08C43BDE81040D86983
S31500005CC0D969DA69C1F3C301C2F3407200F0070073
S31500005CD0FFF7A2BF4FF08C43BDE81040D869D969E1
S31500005CE0DA69C1F38321C2F38072C0F3C210FFF7F1
S31500005CF093BF4FF08C4293699469C3F3C233C4F3E4
S31500005D00C324052B19D8DFE803F003090C0F12157D
S31500005D10FFF71EFF0CB1B0FBF4F010BD8C4B98687A
S31500005D20F8E78B4B1869F5E7894B5869F2E7884B1A
S31500005D30D869EFE7864BD868ECE70020EAE74FF032
S31500005D408C42936A946AC3F34243C4F30554032B0B
S31500005D5012D8DFE803F002080B0EFFF7F9FE002C5D
S31500005D60DBD06400D7E77A4B5869F8E7784B986838
S31500005D70F5E7774BD868F2E70020F0E74FF08C4361
S31500005D80BDE81040986999699A69DB69C2F34022B7
S31500005D90C3F30073C1F3C50100F00700FFF714BF9A
S31500005DA04FF08C43BDE81040D86F99699A69DB695A
S31500005DB0C2F34022C3F30073C1F3C501C0F342200E
S31500005DC0FFF702BF4FF08C439B69C3F30263042BBA
S31500005DD000F2EF80DFE803F003060A0D10005C4BCB
S31500005DE0D8689AE7BDE81040FFF7B2BE584B9868EE
S31500005DF093E7574BD86990E7554B58698DE74FF0B5
S31500005E008C4291699369926911F4802F5049C2F3CB
S31500005E10C0520CBF48698868C3F3C3431AB1002B4C
S31500005E203FF47BAF12E083B9400876E74FF08C432E
S31500005E309A6A9B6A12F4806F454A0CBF9069D068D3
S31500005E40C3F3C523002B3FF468AF5B00B0FBF3F050
S31500005E5063E7404B98699969BDE81040C1F3464134
S31500005E60000FFFF78DBE3B4BDA69DB69C2F34302D5
S31500005E70C3F34713052A16D8DFE802F00306090C18
S31500005E800F12334A5068DDE7314A106ADAE7304AC2
S31500005E90506AD7E72E4A906AD4E72D4AD06AD1E7EE
S31500005EA02B4A106BCEE70020CCE72A4B1A6A1B6AF6
S31500005EB0C2F34302C3F34213072A1DD8DFE802F0F8
S31500005EC004070A0D10131619214A5068A7E7204A3D
S31500005ED0106AA4E71E4A506AA1E71D4A906A9EE727
S31500005EE01B4AD06A9BE71A4A106B98E7184AD06893
S31500005EF095E7174A506B92E7002090E7154B1B6B0E
S31500005F00C3F34303062B54D801A252F823F000BF73
S31500005F102D6F2008336F2008396F20083F6F200847
S31500005F20456F20084B6F2008DF6D2008084B586826
S31500005F30F3E6074B186AF0E6054B586AEDE6044BA4
S31500005F40986AEAE6024BD86AE7E6014B186BE4E684
S31500005F5028EC000000140424174B5B6BC3F34303C7
S31500005F60082B26D801A252F823F000BF2D6F200877
S31500005F70336F2008396F20083F6F2008456F2008CF
S31500005F804B6F2008DF6D2008916F2008976F20085F
S31500005F900A4B586BC1E6094B9869BEE6064BD86AB0
S31500005FA0D96ABDE81040C1F34711C0F34300FFF7BB
S31500005FB0E7BD0020B1E600BF0014042428EC000071
S31500005FC0024B1B68D3F8BC30184700BF00013000F5
S31500005FD0024B1B68D3F8CC30184700BF00013000D5
S31500005FE0024B1B68D3F8EC30184700BF00013000A5
S31500005FF007EE100AFDEEC77AF8EEE76AF4EEC76A16
S31500006000F1EE10FA41BF17EE903A013307EE903ADF
S31500006010F8EEE76A16EE900A70470000024B01217F
S315000060209B69C0B2184700BF14F20000FFF7F6BF25
S315000060301346054A126810B4546C0A46A446002159
S315000060405DF8044B604700BF0001300010B54FF407
S31500006050006004F0B7FB094C094B4FF000725A641C
S3150000606022782AB9074B08481B6A01219B6A984780
S31500006070237843F00103237010BD00BF64F50000D0
S3150000608000840424000130000014042482B0ADF81A
S3150000609004000A4B4FF400621A609DF80420084B76
S315000060A02AB9D3F8082242F40062C3F808225A68D3
S315000060B0002042F001025A6002B0704700E100E0A1
S315000060C0003804242DE9F04F224B234893F81CE0B6
S315000060D0224B1A7800231C4602F59875D9B28E45D4
S315000060E00CD8DFF880800023A8F5107902F5907CA3
S315000060F0DAB2964509D80020BDE8F08F30F81510C1
S315000061008C4238BF0C460133E8E743B929F81C3006
S315000061100133EDE7B5F820B0594489B20AE000270B
S315000061201FFA83FABEB2B442F2D900220C4D1046D1
S3150000613035F8021F8C4203D9B142EBD1013080B24F
S31500006140013292B25245F3D301370028EAD128F83A
S315000061501360DDE714F2000034F2000010F20000D4
S3150000616072F4000074F40000012800D17047C307E0
S3150000617001D44008F8E70020704703460120834217
S3150000618008DC00EBD072A3EB6203B3EBA00FB8BF41
S31500006190400870474000F2E784B02DE9F7430AACA7
S315000061A084E80F000023ADF806309DF8BC515F4B24
S315000061B09DF8BD715A885B68B3FBF2F30DB9012FE8
S315000061C040D15B4901250A885A4C07EE903A92B2B3
S315000061D00AAB03EB820393ED057AF8EE677AB8EE25
S315000061E0477AC7EE877A17EE900AFFF701FF07EEA8
S315000061F0900A0B88FCEEE77A9BB203F5987317EECC
S31500006200902A24F813200B889BB203F5987334F870
S315000062101330012B06D80B889BB203F59873022224
S3150000622024F81320444E0DF138094FF00008B7EE5C
S31500006230006A5FFA88F39F4207D803B0BDE8F043CF
S3150000624004B070470DF10601BDE7B8F1000F17D095
S31500006250D9ED007A3288B8EE677AD9ED017AF8EE90
S31500006260677AC7EE277A17EE900AFFF7C1FE07EEA8
S31500006270900AFCEEE77A17EE903A13FB02F373806E
S31500006280012F08D072881046FFF76EFF18B9104626
S31500006290FFF773FF70808DB10B880AAA9BB202EBE1
S315000062A04303B3F8F430012B08D10B889BB203F5F6
S315000062B0987334F81320920824F81320DFED1F7A20
S315000062C000231FFA88F09842ADF806300AD2F4EEA1
S315000062D0C67AF1EE10FA27DC08F10108023609F158
S315000062E00409A6E70A8892B202F59872013334F8D7
S315000062F0122007EE102AB8EE477A9BB2C6EE076A5E
S3150000630077EEA67ADFE70A8892B202F59872013331
S3150000631034F812C04FEA4C0C24F812C09BB29842D3
S31500006320ADF80630EFD2D7E70023F8E714F2000005
S3150000633010F2000034F2000092F4000000000000A9
S3150000634007EE100ADFED087A084837EE277AF7EEEF
S31500006350006AC6EE877AFCEEE77A17EE903A834239
S3150000636028BF03461846704795BFD633404B4C00AE
S3150000637084B0F0B506AC84E80E00DFED957A002116
S3150000638023AC0DF16B050A460B46CEB2B04200F2C5
S31500006390B080002B00F0A480B0EE007AF4EEC77A4D
S315000063A0F1EE10FAB0EE047A05DBF4EEC77AF1EE00
S315000063B010FA00F1DD80F4EEC77AF1EE10FAB0EED5
S315000063C0087A05DBF4EEC77AF1EE10FA00F1D68012
S315000063D0F4EEC77AF1EE10FAB1EE007A05DBF4EED0
S315000063E0C77AF1EE10FA00F1CC80F4EEC77AF1EE3E
S315000063F010FAB1EE047A05DBF4EEC77AF1EE10FA84
S3150000640000F1C280F4EEC77AF1EE10FA07DBB1EEC6
S31500006410087AF4EEC77AF1EE10FA00F1B880B1EE20
S315000064200C7AF4EEC77AF1EE10FAB2EE007A05DBDA
S31500006430F4EEC77AF1EE10FA00F1AC80F4EEC77A0A
S31500006440F1EE10FAB2EE027A05DBF4EEC77AF1EE5F
S3150000645010FA00F1A280F4EEC77AF1EE10FA07DB2B
S31500006460B2EE047AF4EEC77AF1EE10FA00F19880F3
