S0190000776966695F687474705F6F7461665F736F632E73333760
S31500000000010000000D900D90F46F0100010000004A
S3150000001000102000F72F9EBA00000000000000002C
S3150000002000000000000000000000000000000000CA
S315000000300000000000000000000000000D900D9080
S31500000040A55A0000002020080000008000000000E3
S31500000050000000000000000000000000000000009A
S31500000060000000000000000000000000000000008A
S31500000070000000000000000000000000000000007A
S31500000080000000000000000000000000000000006A
S31500001000183201004D5720080157200801572008C3
S31500001010015720080157200801572008000000004A
S31500001020000000000000000000000000812D2008E4
S315000010300157200800000000D12D20080B242008AD
S31500001040015720080157200801572008015720089A
S31500001050015720080157200801572008015720088A
S315000010600157200801572008595F20087D80200875
S31500001070016220080157200801572008015720085F
S31500001080015720080157200845A92008E9A920088A
S3150000109001572008DDA8200801572008015720081D
S315000010A0015720080157200801572008015720083A
S315000010B0015720080157200818320100015720085F
S315000010C04D572008B15E2008015720080157200817
S315000010D00157200801572008E9612008F56120081A
S315000010E0CD562008015720080157200873236B5955
S315000010F001572008015720080157200801572008EA
S315000011000157200801572008ADA82008C5A82008C7
S31500001110EDA7200805A820081DA8200835A8200846
S315000011204DA8200865A820087DA8200895A82008B5
S3150000113001572008015720080157200801572008A9
S315000011400157200801572008015720080157200899
S315000011500157200801572008015720080157200889
S315000011600157200801572008BDB3200800000000E1
S315000011700000000000000000000000000000000069
S315000011800348044B834202D0034B03B11847704710
S315000011900811000008110000000000000548064B79
S315000011A01B1AD90F01EBA301491002D0034B03B15F
S315000011B018477047081100000811000000000000E1
S315000011C010B5064C237843B9FFF7DAFF044B13B189
S315000011D00448AFF300800123237010BD08110000FE
S315000011E0000000009C67210808B5054B1BB10549A6
S315000011F00548AFF30080BDE80840FFF7CFBF00BF4A
S31500001200000000000C1100009C672108EFF310801D
S3150000121072B6704710B962B6BFF36F8F7047EFF3BF
S3150000122011800C2383F31188704780F31188BFF374
S315000012306F8F704703680B60016070470346006854
S3150000124018B102681A60002303607047036803B987
S3150000125070478B4204D10B68036000230B60704714
S315000012601846F3E7034638B10020814204D01A5CE1
S3150000127002B970470130F8E770474FF0FF31FFF7CA
S31500001280F1BF000040B1054A1378012B04D8037062
S3150000129001331370002070470120704724110000AD
S315000012A008B502F033FC002008BD70B5B0B1ABB193
S315000012B04C4204F00304214489B2C0E900330181A1
S315000012C042811C460025501EA842264607DC002AFD
S315000012D008BF002048434FF0FF321A5070BD0C443F
S315000012E034600135F0E738B5044630B1FFF797FFB3
S315000012F025686B1C04D1FFF798FF0025284638BDEA
S315000013002B682360FFF791FFF8E738B504460D46D2
S31500001310FFF785FF23682B602560BDE83840FFF79F
S3150000132084BF08B500F013F800F056F8FEE77047E2
S315000013307047704708B503F07BF803F087F803F0B1
S3150000134087F803F086F8BDE8084003F083B808B5CF
S31500001350FFF7EDFF03F006FAFFF7EAFF00F062F889
S3150000136000F007F803F06FF8BDE8084000F01AB87F
S31500001370704708B503F058F803F057F803F056F82D
S3150000138003F055F8FFF7F4FF08BD000008B503F0B9
S3150000139069F8034B1868BDE8084000F0E8B800BFDC
S315000013A02811000030B5094D0FCD8BB001AC0FC42C
S315000013B00FCD0FC42B680648236001AA002100F058
S315000013C07FF8044B18600BB030BD00BFE848210819
S315000013D08D2320082811000003F036B8002070473E
S315000013E010B5EFF3058414B10124204610BD02F0B8
S315000013F0A9FB0128F9D0EFF31083002BF4D1EFF30A
S315000014001184003C18BF0124EFE708B54FF0E02334
S315000014101B6902F097FB012803D0BDE8084000F0E5
S315000014207DBD08BD08B5FFF7DBFF48B902F08AFBB2
S315000014300128034607D1054A106820B9136008BD84
S315000014406FF00500FBE74FF0FF30F8E71C1E0000C9
S3150000145008B502F077FB38B1022804D0034B1868B0
S31500001460431E5842584108BD0320FCE71C1E0000DD
S3150000147010B5FFF7B5FF044668B902F063FB012813
S315000014800CD1084B1A68012A08D102221A6001F011
S3150000149059FF204610BD6FF00500FBE74FF0FF3007
S315000014A0F8E700BF1C1E000008B5FFF799FF18B14A
S315000014B0BDE8084001F0A8BFBDE8084001F09EBFA6
S315000014C02DE9F04186B0002305460E469046059369
S315000014D0FFF786FF00BBFDB1B8F1000F3ED0D8F88C
S315000014E018402CB1631E372B03D906B0BDE8F08136
S315000014F01824D8F80430DB0735D4D8F814306BB18B
S315000015009A08D8E90270D8F8001057B1772803D99D
S31500001510D8F8100000B1BBB90598E6E74FF4807221
S31500001520EFE70028F8D1D8F81030002BF4D105AB3E
S31500001530013C019300943346284601F02CFE012815
S315000015401CBF00230593E7E7013CCDE901070094A2
S315000015503346284601F0D5FD0590DDE741461824BF
S315000015604FF48072E3E70020BFE702F0E5BA38B532
S315000015700546FFF735FF044650B965B1284601F028
S3150000158095FE04280AD0284601F034FE204638BDD0
S315000015906FF00500FBE76FF00300F8E76FF002005D
S315000015A0F5E710B50446FFF71BFF28B914B120462E
S315000015B002F0A8F8002010BD6FF00500FBE710B59B
S315000015C00446FFF70DFF50B95CB1D4E9020328B118
S315000015D01F2B04D9BDE8104000F00ABA0BB1002059
S315000015E010BDBDE8104000F027BA37B50C460546D9
S315000015F030B3B1F1807F23D2FFF7F2FEC8B10023EA
S3150000160001AA21462846019300F06CFBD8B1284672
S3150000161000F0E6FA019B4BB14FF0E0234FF0805209
S31500001620C3F8042DBFF34F8FBFF36F8F204303B072
S3150000163030BD2146284603B0BDE8304000F0DEBA92
S315000016406FF00300F3E76FF00200F0E770B50E46A7
S31500001650054600B3B1F1807F1DD2FFF7C1FEA0B1F0
S31500001660284600F0BDFA31460446284600F0B0FA96
S31500001670A0B14FF0E0234FF08052C3F8042DBFF322
S315000016804F8FBFF36F8F204670BD31462846BDE8A9
S31500001690704000F077BA6FF00304F4E76FF00204CD
S315000016A0F1E72DE9F3410C4615461E46074610B1F3
S315000016B0B1F1807F04D36FF0030002B0BDE8F08182
S315000016C0FFF78EFE20B1002EF5D16FF00500F4E78E
S315000016D005F0010885F00202C2F340020096434677
S315000016E02146384600F0B6F904EA0002B8F1000FC8
S315000016F008D0A242E1D0002E14BF6FF001006FF0B7
S315000017000200DAE7002AF6D0D7E738B50546FFF734
S3150000171067FE044628B93DB1284600F0B5FA2046D2
S3150000172038BD6FF00500FBE76FF00300F8E738B54A
S315000017300546FFF755FE10B10024204638BD25B9F1
S31500001740BDE83840012001F08DB86B681A07F3D464
S31500001750D5E9021203F0010379B14F2AECD99BB106
S31500001760042001F04BF804460028E5D0296809B1A9
S3150000177001F0C6FA44F00104DFE7002ADCD17BB1B0
S31500001780042001F06FF8EEE7012001F037F8044677
S315000017900028D1D029680029CFD001F0B1FACCE7D2
S315000017A0012001F05FF8F2E7F8B505460C4620F097
S315000017B0010600F00107FFF713FEA0B9012D15D9A8
S315000017C02146304667B101F01EFA012801D10020FA
S315000017D0F8BD002C14BF6FF001006FF00200F7E7B0
S315000017E001F05DF9F1E76FF00500F1E76FF0030036
S315000017F0EEE770B5044620F0010500F00106FFF79C
S31500001800EFFD90B9012C13D946B1284601F00BF82B
S3150000181001280CBF00206FF0020070BD334632462F
S315000018203146284600F02EFFF2E76FF00500F4E798
S315000018306FF00300F1E738B50546FFF7D1FD044622
S3150000184040B955B1284601F083FA284601F0A2FABC
S31500001850204638BD6FF00500FBE76FF00300F8E7A0
S31500001860F7B505460E461446FFF7BAFD18B1002532
S31500001870284603B0F0BD002DF9D0002EF7D03CB3BA
S31500001880D4E90232BBB14F2AF1D92269002AEED03F
S31500001890676906FB05F18F42E9D300903146284679
S315000018A000F07FFE05460028E1D021680029DFD040
S315000018B001F026FADCE7002AD9D12369002BD6D11C
S315000018C06269002AD3D13146284600F0ABFEE9E72B
S315000018D022463146284603B0BDE8F04000F0A2BEDD
S315000018E073B51C4605460E46FFF77AFD0346F0B172
S315000018F05DB356B34CBB234601AA31462846019434
S3150000190000F0C2FF012803D06FF0020002B070BDE4
S31500001910019B0BB90020F9E74FF0E0234FF080520E
S31500001920C3F8042DBFF34F8FBFF36F8FF2E765B196
S315000019305EB122463146284600F0A4FE0128E9D0D1
S31500001940002CE1D06FF00100E0E76FF00300DDE767
S3150000195073B505460E461C46FFF742FDE8B155B382
S315000019604EB344BB01AA31462846019401F06CF9F6
S31500001970012803D06FF0020002B070BD019B0BB9C5
S315000019800020F9E74FF0E0234FF08052C3F8042D12
S31500001990BFF34F8FBFF36F8FF2E765B15EB122469B
S315000019A03146284600F0DCFF0128E9D0002CE1D0C2
S315000019B06FF00100E0E76FF00300DDE7FFF73BBFE4
S315000019C0034B0360034B0B604FF480731360704747
S315000019D0A41D0000A4190000034B0360034B0B6019
S315000019E04FF40073136070472C1900002C1100008F
S315000019F013B5044640B94FF0140383F31188BFF3BF
S31500001A006F8FBFF34F8FFEE720230193019B202B9F
S31500001A1008D04FF0140383F31188BFF36F8FBFF321
S31500001A204F8FFEE7002340F8043B00F063F90123E3
S31500001A302046237702B010BD38B5202000F080FB89
S31500001A40044628B1002540F8045B00F053F92577D9
S31500001A50204638BD2DE9F843DDF820900C461746A0
S31500001A609846064640B94FF0140383F31188BFF336
S31500001A706F8FBFF34F8FFEE7B1F1807F08D34FF032
S31500001A80140383F31188BFF36F8FBFF34F8FFEE705
S31500001A9041B94FF0140383F31188BFF36F8FBFF37F
S31500001AA04F8FFEE702F04EF8D0B9B9F1000F08D01B
S31500001AB04FF0140383F31188BFF36F8FBFF34F8F7B
S31500001AC0FEE701F093FC356804EA0503B8F1000F60
S31500001AD032D09C4232D18FB325EA040434602DE023
S31500001AE001F084FC356804EA0503B8F1000F2AD139
S31500001AF0002BF0D1B9F1000F20D0391E18BF0121FB
S31500001B0009064A462143301D01F082FE01F04CFDD4
S31500001B1028B302F009F9830105460AD400F0CAF990
S31500001B20356804EA0503B8F1000F23D123BB00F0A2
S31500001B30E1F925F07F4503E0002BCCD101F034FD1F
S31500001B402846BDE8F8839C42C5D0B9F1000FF5D010
S31500001B50391E18BF0121090641F08061D1E74FF017
S31500001B60E0234FF08052C3F8042DBFF34F8FBFF32D
S31500001B706F8FCEE79C42DAD1002FD8D025EA040435
S31500001B803460D4E770B50C46054640B94FF01403EF
S31500001B9083F31188BFF36F8FBFF34F8FFEE7B1F169
S31500001BA0807F08D34FF0140383F31188BFF36F8F40
S31500001BB0BFF34F8FFEE700F07DF92E6826EA040496
S31500001BC02C6000F097F9304670BDFFF7DBBF0000D0
S31500001BD00A4600230146014802F05ABACB2B2008D8
S31500001BE0EFF311834FF0140282F31188BFF36F8F66
S31500001BF0BFF34F8F006883F3118870472DE9F041DA
S31500001C000D46044640B94FF0140383F31188BFF321
S31500001C106F8FBFF34F8FFEE7B1F1807F08D34FF090
S31500001C20140383F31188BFF36F8FBFF34F8FFEE763
S31500001C3000F10C0601F0DAFB236820692B432360D0
S31500001C4000258642216807D121EA0501216001F0BD
S31500001C50ABFC2068BDE8F081D0E9002822F07F4384
S31500001C6012F0806F03EA010702D11FB94046E8E788
S31500001C70BB42FBD1D20141F0007148BF1D4301F0C8
S31500001C808DFEF3E7FFF7BABF38B5044640B94FF00B
S31500001C90140383F31188BFF36F8FBFF34F8FFEE7F3
S31500001CA001F0A4FB04F10C05636843B901F07CFC68
S31500001CB0237FABB92046BDE8384000F017BB20694A
S31500001CC0A84208D14FF0140383F31188BFF36F8F36
S31500001CD0BFF34F8FFEE74FF0007101F05FFEE3E7C1
S31500001CE038BD000013460A460146014802F0D0B945
S31500001CF0852C200800F108034FF0FF32C0E90223CB
S31500001D00436003610023036070470023036170474B
S31500001D1043684B609A688A605160996003680861FD
S31500001D2001330360704730B50C68631C0AD1036940
S31500001D305A684A6091608B60596003680861013394
S31500001D40036030BD00F10802134652681568A542CB
S31500001D50FAD9EDE7D0E9011203698A605160596842
S31500001D60814208BF5A600022026118680138186073
S31500001D7070470000000000000000000000000000A6
S31500001D80074B19680868B0E8F04F80F30988BFF37D
S31500001D906F8F4FF0000080F311887047AFF300801B
S31500001DA084EB000008480068006880F308884FF05C
S31500001DB0000080F3148862B661B6BFF34F8FBFF39D
S31500001DC06F8F00DF00BF000008ED00E0000000009C
S31500001DD0EFF30980BFF36F8F154B1A681EF0100FD3
S31500001DE008BF20ED108A20E9F04F10602DE90900A8
S31500001DF04FF0140080F31188BFF34F8FBFF36F8F3E
S31500001E0001F0A6FC4FF0000080F3118809BC1968A8
S31500001E100868B0E8F04F1EF0100F08BFB0EC108A4B
S31500001E2080F30988BFF36F8F704700BFAFF3008060
S31500001E3084EB0000DFF80C00016841F470010160DA
S31500001E407047000088ED00E082B0002301930D4B3F
S31500001E501B68013308D04FF0140383F31188BFF3D6
S31500001E606F8FBFF34F8FFEE74FF0140383F3118894
S31500001E70BFF36F8FBFF34F8F019B002BFCD002B0D7
S31500001E80704700BF0C0000004FF0807340F8043C20
S31500001E90074B40F80C3C21F001016FF0020340F8BB
S31500001EA0081C40F8202C40F8243C4438704700BFFA
S31500001EB0492E20084FF0140383F31188BFF36F8F68
S31500001EC0BFF34F8F0A4A13680133012B13600ED1FB
S31500001ED04FF0E023D3F8043DDBB243B14FF01403D7
S31500001EE083F31188BFF36F8FBFF34F8FFEE7704701
S31500001EF00C000000084A136843B94FF0140383F33B
S31500001F001188BFF36F8FBFF34F8FFEE7013B13605E
S31500001F100BB983F3118870470C00000008B54FF029
S31500001F20140383F31188BFF36F8FBFF34F8F01F054
S31500001F3079FA28B14FF0E0234FF08052C3F8042D10
S31500001F40002383F3118808BD4FF0E02200231361BC
S31500001F509361054B4FF47A711B68B3FBF1F3013BB8
S31500001F605361072313617047C8EC00004FF0E0236C
S31500001F7037B5D3F8001D534A914208D14FF01403E8
S31500001F8083F31188BFF36F8FBFF34F8FFEE7D3F84C
S31500001F90001D4D4A914208D14FF0140383F3118876
S31500001FA0BFF36F8FBFF34F8FFEE7D3F8083D474A65
S31500001FB0D96A914208D04FF0140383F31188BFF316
S31500001FC06F8FBFF34F8FFEE79A6B414B9A4208D053
S31500001FD04FF0140383F31188BFF36F8FBFF34F8F56
S31500001FE0FEE7002301933B4B1A78D2B28DF802200C
S31500001FF0FF221A701B78384ADBB28DF803309DF841
S31500002000033003F01403137043B94FF0140383F342
S315000020101188BFF36F8FBFF34F8FFEE79DF8033034
S31500002020DB4313F0140F10D04FF0140383F3118821
S31500002030BFF36F8FBFF34F8FFEE7013301939DF818
S3150000204003305B00DBB28DF803309DF8033013F0EC
S31500002050800F019BF1D1082B18BF019B1F4A14BFAB
S31500002060C3F1070300231B0203F4E06313609DF82A
S315000020700230184A4FF0E024DBB21370D4F8203D4A
S3150000208043F47F03C4F8203DD4F8203D002543F0F7
S315000020907F43C4F8203DC4F81C5DFFF755FF104B85
S315000020A01D60FFF7C7FED4F8343F43F04043C4F841
S315000020B0343FFFF777FE01F04BFBFFF7C5FE2846DE
S315000020C003B030BD71C20F4170C20F41812D20088F
S315000020D0D12D200800E400E0241E0000201E000090
S315000020E00C000000EFF305830F2B0ED9114A9B5C01
S315000020F0114A12789A4208D94FF0140383F31188D3
S31500002100BFF36F8FBFF34F8FFEE74FF0E0230B4A0D
S31500002110D3F80C3D126803F4E063934208D94FF0FC
S31500002120140383F31188BFF36F8FBFF34F8FFEE75E
S31500002130704700BFF0E300E0241E0000201E0000F0
S31500002140F8B5431E0A33624D24D901F04FF92B68C6
S3150000215063BB00245F4A604853071FBFD11D21F0AF
S31500002160070102F54842531A0CBF4FF448430A468A
S315000021701344083B23F00703002141600260C3E9D2
S315000021800011991AC2E900312B60544B1960544B67
S3150000219019601BE010F0070300F108040BD101F0F1
S315000021A025F92B68002BD5D0002C11DA01F0FCF9AB
S315000021B000252846F8BDA3F10902A242C5D3103076
S315000021C0C41A01F013F92B68002BC3D0002CEDDDE7
S315000021D0DFF80CC1DCF80010A142E7D33E4ADFF875
S315000021E0F4E01368734502D33E4FBB4217D94FF054
S315000021F0140383F31188BFF36F8FBFF34F8FFEE78E
S31500002200764502D3BE421A4608D94FF0140383F32B
S315000022101188BFF36F8FBFF34F8FFEE733465868C1
S31500002220A04202D21E68002EEAD12D689D42BDD082
S3150000223015680835754501D3BD4208D94FF014031A
S3150000224083F31188BFF36F8FBFF34F8FFEE71F68CD
S315000022501760A0420FD3001B102819D91E1916F0BB
S31500002260070F11D04FF0140383F31188BFF36F8F5C
S31500002270BFF34F8FFEE74FF0140383F31188BFF3CC
S315000022806F8FBFF34F8FFEE770605C601F51166063
S3150000229058680A1A1149CCF800200C68A24238BFC7
S315000022A00A6000221A60104A40F000405860136825
S315000022B00133136001F078F96B073FF47AAF4FF002
S315000022C0140383F31188BFF36F8FBFF34F8FFEE7BD
S315000022D0381E0000441E00003C1E0000301E000098
S315000022E0341E000043E600002C1E0000F8B505462B
S315000022F000286FD0384FA0F10804BC4212D3374EE5
S31500002300B4420FD850F8043C002B14DA50F8082CCD
S31500002310D2B14FF0140383F31188BFF36F8FBFF36D
S315000023204F8FFEE74FF0140383F31188BFF36F8FCF
S31500002330BFF34F8FFEE74FF0140383F31188BFF30B
S315000023406F8FBFF34F8FFEE723F0004340F8043C46
S3150000235001F04CF8224A55F8041C13680B4413602C
S31500002360204B18461A461B689C42FBD882420CD06A
S31500002370BA4201D3B24208D94FF0140383F311884D
S31500002380BFF36F8FBFF34F8FFEE750681618B44246
S3150000239006D1014450188342516010D1144602E020
S315000023A06018834213D11048006883421FBF5868E3
S315000023B04018606018682060A24218BF14600B4A7B
S315000023C0136801331360BDE8F84001F0EDB845F835
S315000023D0083CF1E7F8BD00BF441E000043E60000DC
S315000023E0341E00003C1E0000381E0000281E00009F
S315000023F010B50446FFF75EFDA46BFFF77BFDB4FA4C
S3150000240084F0400910BD70B51646026C856B044613
S3150000241042B906689EB9806801F0EAFBA6600135FC
S31500002420A56370BD6EB940680FF0E2F96368226C6F
S315000024301344A2686360934224BF2368636000204C
S31500002440EDE7C0680FF0D4F9226CE36851429B1A9D
S315000024502268E36093423EBFA3685B18E360022EE6
S31500002460EDD10DB1013DEAE72846D8E7034610B4A1
S315000024701A6C08466AB1DC68996814448C4228BF15
S315000024801968DC6028BFD960D9685DF8044B0FF085
S31500002490AFB95DF8044B704770B50446FFF70AFD07
S315000024A094F8455004F124066DB2002D14DCFF2388
S315000024B084F84530FFF71EFDFFF7FCFC94F8445006
S315000024C004F110066DB2002D12DCFF2384F84430AF
S315000024D0BDE87040FFF70EBD636A002BE7D03046BB
S315000024E001F0F8F908B101F00BFB013D6DB2DCE734
S315000024F02369002BE9D0304601F0ECF908B101F070
S31500002500FFFA013D6DB2DEE770B50E46044640B9EE
S315000025104FF0140383F31188BFF36F8FBFF34F8F10
S31500002520FEE7C56BA5B3036CA3FB053585BBFFF7BB
S31500002530C1FCD4E90F31226862604B43D0185B1AA4
S315000025401A44FF23A563A06084F84430E26084F84F
S315000025504530A6B9236973B104F1100001F0BAF948
S3150000256048B14FF0E0234FF08052C3F8042DBFF37B
S315000025704F8FBFF36F8FFFF7BDFC012070BD04F1D5
S315000025801000FFF7B7FB04F12400FFF7B3FBF2E7F7
S315000025904FF0140383F31188BFF36F8FBFF34F8F90
S315000025A0FEE737B50D461C4643B94FF0140383F3D7
S315000025B01188BFF36F8FBFF34F8FFEE748B3B2B1F9
S315000025C039B350230193019B502B19D1019B2260F3
S315000025D00121C4E90F0584F846102046FFF794FF51
S315000025E09DF8183084F84C30204603B030BD81B9D0
S315000025F050230193019B502B02D1019B2246E6E713
S315000026004FF0140383F31188BFF36F8FBFF34F8F1F
S31500002610FEE74FF0140383F31188BFF36F8FBFF308
S315000026204F8FFEE72DE9F0410D461746064600B3EB
S31500002630A1FB0038B8F1000F1BD1484310F1510F30
S3150000264017D85030FFF77CFD044668B180F8468005
S315000026506DB100F15003C4E90F65236001212046E6
S31500002660FFF752FF84F84C702046BDE8F081034620
S31500002670F1E74FF0140383F31188BFF36F8FBFF3B5
S315000026804F8FFEE7F0B585B00E4601921D46044613
S3150000269040B94FF0140383F31188BFF36F8FBFF374
S315000026A04F8FFEE751B9036C43B14FF0140383F328
S315000026B01188BFF36F8FBFF34F8FFEE7022D0BD14B
S315000026C0E36B012B08D04FF0140383F31188BFF39B
S315000026D06F8FBFF34F8FFEE701F034FA08B9019B05
S315000026E003BBFFF7E7FBA26BE36B9A4223D22A46B2
S315000026F031462046FFF787FE636A1BB104F12400CA
S3150000270001F0E8F848B14FF0E0234FF08052C3F8EB
S31500002710042DBFF34F8FBFF36F8FFFF7EBFB012045
S3150000272005B0F0BD4FF0140383F31188BFF36F8F2C
S31500002730BFF34F8FFEE7022DD9D000231F4637E0A7
S3150000274013B902A801F088F9FFF7D4FB00F04EFE9A
S31500002750FFF7B0FB94F84430FF2B08BF84F84470B1
S3150000276094F84530FF2B08BF84F84570FFF7C2FB8D
S3150000277001A902A801F07CF9002839D1FFF79AFBDC
S31500002780A26BE36B9A421AD1FFF7B4FB019904F1ED
S31500002790100001F023F82046FFF77EFE00F004FF4C
S315000027A0D8B1FFF787FBA36BE26B9A429FD8012350
S315000027B0019A002AC4D1FFF79DFB0020B0E7FFF77E
S315000027C099FB2046FFF768FE00F0EEFEFFF772FB6E
S315000027D0A26BE36B9A42EAD289E74FF0E0234FF00F
S315000027E08052C3F8042DBFF34F8FBFF36F8FEDE711
S315000027F02046FFF751FE00F0D7FEDEE713B50022B4
S315000028000B46009011460120FFF7CBFE044638B177
S31500002810002383600360C3601A461946FFF732FF40
S31500002820204602B010BD38B5044640B94FF0140337
S3150000283083F31188BFF36F8FBFF34F8FFEE7856871
S3150000284001F07AF985420BD1E368013BE3600BB1F5
S31500002850012038BD1A4619462046FFF713FFF7E751
S315000028600020F6E710B5024600210120FFF7DAFE48
S31500002870044638B1002383600360C3601A461946D4
S31500002880FFF700FF204610BD2DE9F843894617469D
S315000028901E46044640B94FF0140383F31188BFF374
S315000028A06F8FBFF34F8FFEE751B9036C43B14FF003
S315000028B0140383F31188BFF36F8FBFF34F8FFEE7C7
S315000028C0022E0BD1E36B012B08D04FF0140383F3D8
S315000028D01188BFF36F8FBFF34F8FFEE7FFF702FC40
S315000028E0EFF311884FF0140383F31188BFF36F8F52
S315000028F0BFF34F8FA26BE36B9A4201D3022E2DD109
S3150000290094F84550A36B6DB2324649462046FFF710
S315000029107AFD6B1C0ED1636A3BB104F1240000F012
S31500002920D9FF10B10FB101233B60012088F3118854
S31500002930BDE8F88300F070FD8542F6D27F2D08D100
S315000029404FF0140383F31188BFF36F8FBFF34F8FDC
S31500002950FEE701356DB284F84550E6E70020E5E76D
S31500002960F0B585B00E460192044640B94FF0140307
S3150000297083F31188BFF36F8FBFF34F8FFEE751B913
S31500002980036C43B14FF0140383F31188BFF36F8FC9
S31500002990BFF34F8FFEE701F0D5F850B9019B43B165
S315000029A04FF0140383F31188BFF36F8FBFF34F8F7C
S315000029B0FEE7FFF77FFAA56BDDB131462046FFF74C
S315000029C055FD2369013DA56373B104F1100000F0C4
S315000029D081FF48B14FF0E0234FF08052C3F8042D39
S315000029E0BFF34F8FBFF36F8FFFF784FA012005B057
S315000029F0F0BD019B1BB9FFF77DFA0020F7E702A89F
S31500002A0001F02AF82F46FFF775FA00F0EFFCFFF702
S31500002A1051FA94F84430FF2B08BF84F8447094F8B8
S31500002A204530FF2B08BF84F84570FFF763FA01A90C
S31500002A3002A801F01DF838BB2046FFF7D9FCE8B123
S31500002A40019904F1240000F0C9FE2046FFF724FD99
S31500002A5000F0AAFD48B94FF0E0234FF08052C3F8CA
S31500002A60042DBFF34F8FBFF36F8FFFF723FAA56BCC
S31500002A70002DA2D1019B002BC5D1BCE72046FFF754
S31500002A800BFD00F091FDF0E72046FFF705FD00F095
S31500002A908BFD2046FFF7ACFC0028E6D0ADE7F0B58D
S31500002AA085B00446019140B94FF0140383F31188B1
S31500002AB0BFF36F8FBFF34F8FFEE7056C45B14FF045
S31500002AC0140383F31188BFF36F8FBFF34F8FFEE7B5
S31500002AD001F038F8064620B32E460027FFF7EAF93C
S31500002AE0A36B53B3013BA363236813B901F028F921
S31500002AF0A060236973B104F1100000F0EBFE48B149
S31500002B004FF0E0234FF08052C3F8042DBFF34F8FF0
S31500002B10BFF36F8FFFF7EEF9012005B0F0BD354624
S31500002B20DBE7019B002BFAD04FF0140383F31188E7
S31500002B30BFF36F8FBFF34F8FFEE7019B1BB9FFF704
S31500002B40D9F90020E9E716B902A800F085FFFFF7DA
S31500002B50D1F900F04BFCFFF7ADF994F84430FF2BA8
S31500002B6008BF84F8447094F84530FF2B08BF84F8FA
S31500002B704570FFF7BFF901A902A800F079FF50BB25
S31500002B802046FFF735FC00B323683BB9FFF792F9FF
S31500002B90A06800F0E7FF0546FFF7ACF9019904F1DC
S31500002BA0240000F01BFE2046FFF776FC00F0FCFC3C
S31500002BB048B94FF0E0234FF08052C3F8042DBFF31D
S31500002BC04F8FBFF36F8F012688E72046FFF764FC1F
S31500002BD000F0EAFCF7E72046FFF75EFC00F0E4FCB5
S31500002BE02046FFF705FC0028EDD0002DA9D0FFF701
S31500002BF061F9616A19B1236B1968C1F13801A068DE
S31500002C0001F040F89BE770B50D46044640B94FF019
S31500002C10140383F31188BFF36F8FBFF34F8FFEE763
S31500002C20866800F089FF864204D1E3680133E360D9
S31500002C30012070BD29462046FFF731FF0028F8D055
S31500002C40E3680133E360F4E72DE9F84389469046EB
S31500002C50044640B94FF0140383F31188BFF36F8F16
S31500002C60BFF34F8FFEE751B9036C43B14FF0140326
S31500002C7083F31188BFF36F8FBFF34F8FFEE7FFF724
S31500002C8031FAEFF311874FF0140383F31188BFF382
S31500002C906F8FBFF34F8FA66B86B394F844504946A7
S31500002CA06DB22046FFF7E2FB013E6B1CA66311D115
S31500002CB0236953B104F1100000F00CFE28B1B8F1FD
S31500002CC0000F02D00123C8F80030012087F31188D5
S31500002CD0BDE8F88300F0A0FB8542F6D27F2D08D12F
S31500002CE04FF0140383F31188BFF36F8FBFF34F8F39
S31500002CF0FEE701356DB284F84450E6E73046E5E775
S31500002D0070B540B94FF0140383F31188BFF36F8F8A
S31500002D10BFF34F8FFEE7B9B10C4A00231C46154698
S31500002D205668864204D105EBC403C3E900100BE0E4
S31500002D301BB91668002E08BF13460134082C02F191
S31500002D400802EDD1002BF0D170BD00BF44E60000B3
S31500002D5010B540B94FF0140383F31188BFF36F8F9A
S31500002D60BFF34F8FFEE7094A002352F83310814222
S31500002D704FEAC30406D1064A002142F83310224422
S31500002D80516010BD0133082BEFD1FAE748E6000089
S31500002D9044E6000010B540B94FF0140383F31188E0
S31500002DA0BFF36F8FBFF34F8FFEE7FFF7D1FF90F8AA
S31500002DB046301BB9BDE81040FFF798BA10BD70B594
S31500002DC004460D461646FFF775F894F84430FF2B77
S31500002DD004BF002384F8443094F84530FF2B04BF29
S31500002DE0002384F84530FFF785F8A36B2BB93246EC
S31500002DF0294604F1240000F043FD2046BDE870405A
S31500002E00FFF74ABB2DE9F0410446FFF753F8334B71
S31500002E10334E1A68334F01321A603568002D52D18D
S31500002E2034601B68012B1FD1B84640460135FEF7BA
S31500002E3061FF382D08F11408F7D1DFF8D0802A4D4C
S31500002E404046FEF757FF2846FEF754FF2748FEF791
S31500002E5051FF2748FEF74EFF2648FEF74BFF264B4D
S31500002E60C3F80080254B1D60254A136801331360A3
S31500002E70244AA3641168E36A8B4288BF1360142254
S31500002E805343F918201D4A68A2609568E56068609A
S31500002E909060FA5861610132FA50FFF72BF81A4B2D
S31500002EA01B6873B13368DA6AE36A9A4209D24FF053
S31500002EB0E0234FF08052C3F8042DBFF34F8FBFF3CA
S31500002EC06F8FBDE8F081104B1A68E36A002ACBD1F8
S31500002ED03268D26A9A4298BF3460C5E7ACE6000011
S31500002EE084EB000024E70000FCE60000E0E60000BA
S31500002EF0CCE60000B4E60000F8E60000F4E60000C8
S31500002F0090E60000A4E60000A0E6000010E700003E
S31500002F102DE9F8431F4B204C1D68204BD3F8008049
S31500002F201F4B0646D3F8009023682068002283F8DA
S31500002F30722004300F46FEF70DFF731C14D19FB1AB
S31500002F40184B21685A688A6021689068C8602168B1
S31500002F5004314160216804319160226853611A6826
S31500002F6001321A60BDE8F88323682168AD195D60F7
S31500002F7001F1040104D34846BDE8F843FEF7D3BE89
S31500002F804046FEF7D0FE084B1A68AA4288BF1D606D
S31500002F90E8E700BFA8E6000084EB0000F8E60000C2
S31500002FA0F4E60000B4E600008CE60000064A13686A
S31500002FB01968064B19B94FF0FF321A60704712684C
S31500002FC0D2681268F9E700BFF8E600008CE6000058
S31500002FD010B590F8713004463BB9006BFFF786F9DF
S31500002FE02046BDE81040FFF781B9012BF9D0022B2E
S31500002FF008D04FF0140383F31188BFF36F8FBFF32C
S315000030004F8FFEE710BD0000F8B50C4C0C4F0D4D70
S31500003010236803B9F8BDFEF74DFFFB68DE68301D77
S31500003020FEF798FE2B68013B2B602368013B23606B
S31500003030FEF760FF3046FFF7CBFFE9E7C8E6000082
S31500003040CCE60000ACE6000008B5084E4FF0E024E0
S315000030504FF08055FFF7D8FF3368012BFAD9C4F833
S31500003060045DBFF34F8FBFF36F8FF3E724E70000D4
S315000030702DE9F0470A9C9600324680460D46206BA5
S31500003080A5219946DDE9087A0EF03FFB236B043E45
S315000030901E4426F0070666646DB16B1E04F133020A
S315000030A00E3513F8011F02F8011F09B1AB42F8D122
S315000030B0002384F84230372F08D94FF0140383F3E6
S315000030C01188BFF36F8FBFF34F8FFEE7E762276567
S315000030D0201DFEF71AFEC7F1380704F11800FEF7A7
S315000030E014FE2461A76164624A4641463046FEF7F3
S315000030F0CBFE2060BAF1000F01D0CAF80040BDE84F
S31500003100F0872DE9F04387B0DDE90F940E460021E4
S315000031100546174698460491B9F1000F08D14FF0BD
S31500003120140383F31188BFF36F8FBFF34F8FFEE74E
S3150000313044B94FF0140383F31188BFF36F8FBFF3C5
S315000031404F8FFEE778230593059A9A4208D04FF0F1
S31500003150140383F31188BFF36F8FBFF34F8FFEE71E
S315000031602046059B0EF0D1FA022384F8713004AB99
S31500003170C4F8309001930E9B00933A46434631467D
S3150000318028460294FFF774FF2046FFF73BFE04989B
S3150000319007B0BDE8F0832DE9F043074685B09000FF
S315000031A0884616469946FEF7CBFF0546F0B17820CD
S315000031B0FEF7C6FF0446B0B1782200210EF0A5FA4C
S315000031C00D9B256301930C9B009332464B4641466B
S315000031D038460294FFF74CFF2046FFF713FE012006
S315000031E005B0BDE8F0832846FFF780F84FF0FF30C2
S315000031F0F6E70000F8B50446254DFEF75BFE04B978
S315000032002C68271D3846FEF7A5FDA36A1BB104F1FD
S315000032101800FEF79FFD1F4A1F4E13680133136007
S315000032202B68A342336800D15BB91C4A1368013B83
S315000032301360FFF7BBFEFEF75DFE2046FFF7C8FEF4
S3150000324009E017483946FEF763FD164A136801334D
S315000032501360FEF74FFE3368C3B12B68A34215D146
S31500003260114B1B6843B14FF0140383F31188BFF36E
S315000032706F8FBFF34F8FFEE74FF0E0234FF0805282
S31500003280C3F8042DBFF34F8FBFF36F8FF8BD00BF98
S3150000329084EB000090E60000A0E60000ACE600002B
S315000032A0CCE60000C8E6000084E600002DE9F04107
S315000032B0044640B94FF0140383F31188BFF36F8FB0
S315000032C0BFF34F8FFEE7194B1B68834226D0FEF7EC
S315000032D0F1FD174BD4F828801F68164B65691E68E8
S315000032E0FEF708FE144B98451AD0BD421AD0B542D7
S315000032F018D0124B9D4209D1A36A9BB994F870303D
S31500003300012B14BF03200220BDE8F0810C4B9D4227
S315000033100AD0002D14BF01200420F5E70020F3E7B2
S315000033200120F1E70220EFE70420EDE784EB00003F
S31500003330F8E60000F4E60000E0E60000B4E600006F
S31500003340CCE6000030B58DB008AB214A1D4612F818
S31500003350014B03F8014B002CF9D107AA06A905A8D1
S31500003360CDE90544FEF72CFB059B0293069B079AC5
S315000033701848CDE9004329462346FFF7C2FE164BFF
S315000033801860A8B100F052FE012815D14FF01403C1
S3150000339083F31188BFF36F8FBFF34F8F0F4B4FF03F
S315000033A0FF321A600E4B18600E4B1C60FEF7DEFDF6
S315000033B00D4B1B680DB030BD0130F9D14FF0140331
S315000033C083F31188BFF36F8FBFF34F8FFEE700BF04
S315000033D00C4921084940200888E600008CE60000D8
S315000033E0A0E60000A8E6000010000000024A1368EC
S315000033F001331360704700BF84E60000014B186874
S31500003400704700BFA8E6000008B5FEF76BFE014B4B
S31500003410186808BDA8E60000014B1868704700BF91
S31500003420ACE600002DE9F84F544B1B68002B40F02A
S315000034309E80534B1C6801341C60BCB9514B1A6802
S31500003440126842B14FF0140383F31188BFF36F8FF4
S31500003450BFF34F8FFEE74C4A196810681860116079
S315000034604A4A136801331360FFF7A0FD484D494AE5
S315000034702B68DFF82CB19C424FF000000FD2DBF82E
S315000034800030DB6A14214B43D358022B424B1B6896
S3150000349028BF0120002B18BF0120BDE8F88FDFF8F8
S315000034A004C10746374B1B681B681BB94FF0FF3337
S315000034B02B60E4E7334B1B68DB68DB6859688C429A
S315000034C001D22960DBE7D3E90219D3F81480C1F8E9
S315000034D00890C9F80410D8F8041003F1040E7145D9
S315000034E0D8F8001008BFC8F8049001395F61C8F821
S315000034F00010D3F82880B8F1000F13D0D3E90719CC
S31500003500C1F80890C9F80410D8F8041003F1180A95
S315000035105145D8F8001008BFC8F8049001399F62D9
S31500003520C8F80010D96ADCF800801426414506FB6D
S3150000353001F802EB080A88BFCCF80010DAF804900C
S31500003540C3F80890D9F80860DE60C6F804E0C9F848
S3150000355008E0C3F814A052F80830013342F80830E6
S31500003560DBF80030DB6A994288BF01209AE70B4AF4
S3150000357013680133136000208FE700BF84E6000064
S31500003580A8E60000F8E60000F4E6000094E6000075
S315000035908CE6000024E7000098E600009CE60000A8
S315000035A084EB0000A4E600002DE9F84FFEF782FC4C
S315000035B04C4B1A6842B94FF0140383F31188BFF3DA
S315000035C06F8FBFF34F8FFEE71A68013A1A601B68C8
S315000035D02BB10024FEF78EFC2046BDE8F88F424A48
S315000035E01268002AF5D04148414C424A424E434FA8
S315000035F014254FF0010C51E0C368DB68D3E90718C6
S31500003600D3F828E0C1F80880C8F80410DEF80410E2
S3150000361003F1180949454FF0000108BFCEF80480B0
S315000036209962DEF800100139CEF80010D3E90218CD
S31500003630D3F814E0C1F80880C8F80410DEF80410C6
S3150000364003F104094945DEF8001008BFCEF80480EE
S315000036500139CEF80010D3F82CE0216805FB0EF8EE
S3150000366002EB080A8E45DAF804109960D1F808B022
S31500003670C3F80CB0CBF80490C1F8089052F80810C3
S3150000368088BFC4F800E00131C3F814A042F808105E
S315000036903168C96A8E4501D9C7F800C0016800299A
S315000036A0AAD10BB1FFF782FC154D2C6844B1134E1D
S315000036B00127FFF7B7FE00B13760013CF9D12C6056
S315000036C00E4B1B68002B84D00B4B1B684FF0E0237E
S315000036D04FF08052C3F8042DBFF34F8FBFF36F8FA7
S315000036E0012477E784E60000ACE60000E0E600008F
S315000036F0A4E6000024E7000084EB000098E6000042
S315000037009CE6000008B550B94FF0E0234FF0805218
S31500003710C3F8042DBFF34F8FBFF36F8F08BDFFF7BC
S3150000372065FE0A4B1B68012B08D04FF0140383F388
S315000037301188BFF36F8FBFF34F8FFEE70021FFF7AE
S31500003740E7FBFFF731FF0028DED0E7E784E600005D
S315000037501C4B1A681C4BF0B512B101221A60F0BD61
S315000037601A481A601A4D03681A4E2A685A671A4987
S3150000377032684FF0140C0CFB02F35C18CF58A7B15B
S31500003780676808337F6867600B449F4204BFE3683D
S315000037906360142303FB02114B68DB68036032602D
S315000037A0036803685B6F2B60D9E742B94FF01403D7
S315000037B083F31188BFF36F8FBFF34F8FFEE7013A94
S315000037C0D9E700BF84E6000098E6000084EB00001D
S315000037D0B0E60000A4E6000024E7000010B50C46A1
S315000037E040B94FF0140383F31188BFF36F8FBFF313
S315000037F04F8FFEE7054B19681831FEF794FA2046FD
S315000038000121BDE81040FFF783BB00BF84EB000039
S3150000381030B4034640B94FF0140383F31188BFF365
S315000038206F8FBFF34F8FFEE71348006840B94FF024
S31500003830140383F31188BFF36F8FBFF34F8FFEE737
S315000038400E4C206841F00041816120685968C161D1
S3150000385020688D6805622068183068602068183016
S31500003860886021688B6219680131196030BC0121BA
S315000038701046FFF74DBB00BF84E6000084EB000056
S3150000388070B40C46114640B94FF0140383F3118807
S31500003890BFF36F8FBFF34F8FFEE70D4B42681D6876
S315000038A09668EA611D682E621D68183575601D6888
S315000038B01B681835956098620368002903F10103B7
S315000038C003600CBF20464FF0FF3070BCFFF720BBF3
S315000038D084EB0000C368DB68F0B543B94FF014030E
S315000038E083F31188BFF36F8FBFF34F8FFEE7D3E9E2
S315000038F007019A6A81604860506803F11804A04283
S3150000390008BF5160002199621168013911601D4A92
S31500003910D96A1268002A29D1D3E902405A69A060FF
S31500003920446054681D1DAC4208BF506010680138E1
S315000039301060154A1068814288BF1160134814222E
S315000039404A43861874689C60A768DF607D60A5603E
S315000039505E618358013383500D4B1B68DB6A9942C5
S3150000396083BF0C4B012018600020F0BD0A4A506846
S31500003970D86185681D626C6084609A621368013341
S315000039801360E9E784E60000A4E6000024E70000EF
S3150000399084EB000098E60000E0E60000294B1B6877
S315000039A0F0B543B94FF0140383F31188BFF36F8F5B
S315000039B0BFF34F8FFEE7C36841F00041016043B992
S315000039C04FF0140383F31188BFF36F8FBFF34F8F4C
S315000039D0FEE7D0E901410269A1604C605468844267
S315000039E008BF516000210161116801391160D3E9F6
S315000039F002015A698160486050681D1DA84208BFCF
S31500003A0051601168013911600F4AD96A1068814204
S31500003A1088BF11600D4814224A43861874689C605A
S31500003A20A768DF607D60A5605E61835801338350BF
S31500003A30074B1B68DB6A994282BF064B01221A605C
S31500003A40F0BD00BF84E60000A4E6000024E7000005
S31500003A5084EB000098E60000034B1B680360034BF1
S31500003A601B684360704700BF94E60000A8E60000AC
S31500003A7070B50D46044640B94FF0140383F3118820
S31500003A80BFF36F8FBFF34F8FFEE741B94FF01403BB
S31500003A9083F31188BFF36F8FBFF34F8FFEE7FEF7F7
S31500003AA009FA144B62681968134B186890F872008B
S31500003AB040B11B68002283F872200124FEF71AFA2F
S31500003AC0204670BD2B68581C12D00C48266800682A
S31500003AD0864204D08A4202D800232B60EDE7881A7A
S31500003AE08342F9D95B1A13442B602046FFF7B4FFD3
S31500003AF00024E3E7A8E6000084EB000094E600005B
S31500003B00014B01221A60704798E6000004290FD87D
S31500003B1058B9084B186840B94FF0140383F311885D
S31500003B20BFF36F8FBFF34F8FFEE7163140F82120AA
S31500003B30704700BF84EB0000014B1868704700BF58
S31500003B4084EB0000054B1B6833B1054B1868B0FACF
S31500003B5080F040094000704701207047A0E6000051
S31500003B6084E60000F8B5044600282ED01D4DC36A31
S31500003B702A68D26A93422DD282691B4E002AA1BFBF
S31500003B802A68D26AC2F138028261142202FB0363F8
S31500003B9042699A421AD1071D3846FEF7DBF82B68B0
S31500003BA0124ADB6A1168E3628B4288BF13601422F3
S31500003BB05343F1184A68A2609068E06047609760D6
S31500003BC0F25861610132F2500120F8BD2B68DB6AC0
S31500003BD0C362F9E72B68006DDB6A98422CBF0020B0
S31500003BE00120F2E784EB000024E70000A4E60000D1
S31500003BF070B5044608B9002070BD1F4B1B68834290
S31500003C0008D04FF0140383F31188BFF36F8FBFF30F
S31500003C104F8FFEE75B6D43B94FF0140383F31188B2
S31500003C20BFF36F8FBFF34F8FFEE7C16A026D013B93
S31500003C3091424365DFD0002BDDD1051D2846FEF7F6
S31500003C4089F8236DE362C3F13802A2610B4A116859
S31500003C508B4288BF13601421094A4B43D018416830
S31500003C60A1608E68E66075608D60D1586061013133
S31500003C70D1500120C0E700BF84EB0000A4E600009D
S31500003C8024E7000070B50446002846D0426D42B9CC
S31500003C904FF0140383F31188BFF36F8FBFF34F8F79
S31500003CA0FEE7036D994238BF1946C36A8B4234D08A
S31500003CB0012A32D1194A1268824208D14FF0140300
S31500003CC083F31188BFF36F8FBFF34F8FFEE78269CF
S31500003CD0134DC162002A4FF0140202FB03534269DE
S31500003CE0A4BFC1F1380181619A4216D1061D304642
S31500003CF0FEF730F80B4AE36A11688B4288BF1360FF
S31500003D0014225343E9184A68A2609068E06046604E
S31500003D109660EA5861610132EA5070BD84EB00009A
S31500003D2024E70000A4E60000044B1A6819689069AD
S31500003D301A68CB6AC3F138039361704784EB0000BD
S31500003D40034B186810B1436D01334365704700BFDC
S31500003D5084EB0000914208B5416000610AD8D21A8E
S31500003D6083699A420DD2084B011D1868FDF7DBFFE7
S31500003D70002008BD9A4201D2994202D2034B011D8E
S31500003D80F3E70120F5E700BF34EC000038EC000053
S31500003D9070B504460D461646A1692B46324629449F
S31500003DA02046FFF7D7FF00B970BDA36920461D4422
S31500003DB0236A9847F0E700000E4B1B68DB6870B576
S31500003DC0DC680546201D0E46FDF7C4FF94F8283032
S31500003DD05A0709D5324629462046FFF7D9FF236AF6
S31500003DE02046BDE87040184723F0010384F82830C8
S31500003DF0F5E700BF38EC0000F8B50F4E0546FFF7B3
S31500003E00FDFA33688342044609D90C4F3B681A68A9
S31500003E1052B90B4A116839601360012300E0002390
S31500003E202B6034602046F8BDDB684FF0FF31186820
S31500003E30FFF7C2FFEAE700BF28EC000038EC0000FD
S31500003E4034EC00002DE9F0415B4F5C4E86B03B68D8
S31500003E50D3F80080B8F1000F38D0DB68D3F80080C3
S31500003E600024FFF7C3FA02A8FFF7C6FF029B054628
S31500003E70002B48D164BB404530D3FFF795FB29465C
S31500003E804046FFF799FF1022002102A80DF03DFCE5
S31500003E903068002202A9FEF763FD0028D7D0029BF6
S31500003EA00498002B32DB049C6369002B35D101A8F2
S31500003EB0FFF7A2FF029B013B0546082BE8D8DFE887
S31500003EC003F03030535A733030535A000124C8E798
S31500003ED03B4B1B681C68B4FA84F4640930682246BC
S31500003EE0A8EB0501FEF76BFFFFF75EFB0028CAD1C2
S31500003EF04FF0E0234FF08052C3F8042DBFF34F8FED
S31500003F00BFF36F8FBFE7FFF74FFBBCE7039B059936
S31500003F109847029B002BBBDBC5E7201DFDF71AFF68
S31500003F20C5E794F82830A16943F0010384F82830E6
S31500003F30039B024619442046FFF70CFF0028A7D032
S31500003F4094F8283059070AD5A36903992A461944D3
S31500003F502046FFF71DFF236A2046984798E723F07F
S31500003F60010384F82830F6E794F8283023F001039B
S31500003F7084F828308CE794F8283043F0010384F85D
S31500003F8028300399A16141B94FF0140383F31188D6
S31500003F90BFF36F8FBFF34F8FFEE703460246014420
S31500003FA02046FFF7D7FE73E794F828309A07DDD44A
S31500003FB02046FEF79BF96BE738EC000030EC00007A
S31500003FC034EC0000F7B5114CFDF774FF2568BDB958
S31500003FD00F4F104E3846FDF78DFE3046FDF78AFE30
S31500003FE00D4B0E4A1F600E4B10211E6005200D4B17
S31500003FF00095FEF7D6FA206010B10B49FEF780FE59
S3150000400003B0BDE8F040FDF775BF00BF30EC00001F
S3150000401050EC00003CEC000038EC0000D8EB00004F
S3150000402034EC000088EB00001149210810B588B077
S31500004030FFF7C8FF124B1B68B3B1002407AA06A9F5
S3150000404005A8CDE90544FDF7C7FC059B0293069B31
S31500004050019337230093079A0A490B482346FFF733
S3150000406050F80A4B186040B94FF0140383F31188D7
S31500004070BFF36F8FBFF34F8FFEE7012008B010BD6F
S3150000408030EC000016492108454E20082CEC0000B3
S315000040901FB514461A466FF00103CDE900300548F6
S315000040A0CDE90214002369460068FEF7EDFB04B073
S315000040B010BD00BF30EC0000064BB0F1004F71F1AF
S315000040C000014FF000004FF001022ABF18701A706D
S315000040D01046704764EC0000F8B51E460A4B0746CA
S315000040E001240A481C700D460DF0B2FAB7F1004FD4
S315000040F075F1000505D3064831460DF041FA204614
S31500004100F8BD0020FCE700BF65EC00001E49210851
S315000041102C4921082DE9F04395B01122002107A86A
S315000041200DF0F3FA9A4D9B4F05262B78032BFCD8FE
S31500004130DFE813F0040042005400260100239649EC
S315000041401A4608200AF02CF8014628B193480DF0CB
S3150000415017FA15B0BDE8F08391480DF079FA0821F9
S31500004160904A40F20E534FF400700AF0BBF9044631
S31500004170014628B18C480DF003FA8C482146E6E743
S315000041808B480DF0FDF90CA9012009F051FA014602
S3150000419070B988480DF05CFA87480DF0F1F90CA863
S315000041A000F06CF985480DF053FA01232B70BCE73B
S315000041B083480DF0E5F9F8E782490022012009F06D
S315000041C035FD002108200AF027F9014608B17E488E
S315000041D0EFE77E480DF03CFA0223E7E77C4C2378B4
S315000041E0052BA2D86078BBB9392810D894F800807E
S315000041F06478B8F1050F1FD9764840F2D91105F059
S315000042001BFD744840F2E11105F016FDA4E005F02F
S3150000421009FC0028EAD088E75A1E012A05D9032B93
S3150000422006D0042B06D0052800E00F28DED97CE74F
S315000042300928FBE70B28F9E7B8F1030F10D9B8F105
S31500004240040F40F086800B2C04D962484FF4EF71BE
S3150000425005F0F2FC240104F1105404F598240BE057
S31500004260B8F1000F5FD14B2C66D804EB081424017B
S3150000427004F18C4404F598146468E4B2002C7FF4CD
S3150000428054AF5548DFF888810DF0E2F953492246CC
S31500004290052009F0CBFC44F62061D8F8000007ABF6
S315000042A0002206F0D5FD013E01465CD00028F2D181
S315000042B04B480DF0CDF9079A4A49130E03AC01930A
S315000042C0C2F3074300932046C2F30723D2B20DF090
S315000042D063F8214644480DF053F9444944480DF02B
S315000042E04FF9002116220DF132000DF00EFA40F2C0
S315000042F0BB13ADF838303F4B0F93D8F8003010930E
S315000043003D4B0D944FF001090CA8CDE91233ADF8E1
S31500004310309006F0BBFB014648B338480DF030F943
S3150000432085F8009001E7B8F1010F0BD13B2C8CBF4B
S3150000433000230123002B98D1264840F2DB1105F01B
S315000043407BFC92E7B8F1020F01D12B2CEFE71B2C77
S315000043508AE7052C3FF655AF294B5A6922FA04F431
S3150000436004F001048AE70028A2D02648EFE61F4998
S3150000437025480DF005F925480DF06AF9032315E7E0
S3150000438038460DF065F905F0B7FE04230EE700BFC9
S3150000439065EC0000214D2108404D210854492108B3
S315000043A08F4921081C000000B6492108FC49210854
S315000043B0324A2108624A2108814A21087F4A210897
S315000043C0874A2108D95020089C4A2108D14A210849
S315000043D014000000EE4A2108BE4B2108B9502008FF
S315000043E0234C21083C4C21084C4C2108754C2108D3
S315000043F0804C2108B04C2108D8512108B84C21081E
S3150000440000000812ED4B2108DC4C2108054D21085F
S3150000441018000000024A03480021FDF751B800BF0A
S315000044209C4D21081551200870477047704770470A
S3150000443008B500F031FD04F003F805F0CBFFBDE848
S31500004440084000F0FDBA7047FDF712B800F004B856
S315000044507047704770470000014800F0D9BE00BFA2
S31500004460C04D210808B5FCF765FFFFF7D3FFFCF741
S31500004470B5FF00B908BDFCF75CFFF8E71FB558B1FA
S315000044804379029303790193C37800938378427842
S31500004490017803480DF074F805B05DF804FB00BF21
S315000044A0C34D21080FB404B07047000070B5114B1E
S315000044B093F86130013BDBB2FD2B8EB018D86A460B
S315000044C00D4B0E4E154618685968144603C408333A
S315000044D0B3422246F7D10A4C2846D4F8443711F0A5
S315000044E05DF904F035F8D4F8443700200EB070BDFD
S315000044F00120FBE700050008610500089905000892
S3150000450000800524134B0168D3F84437F0B5012722
S31500004510013900D2F0BDD0F808C04668CCF3845506
S31500004520C5EBDC62346801320023013A0CD203FA8F
S3150000453005F203EA0C03C3F3150324EA0202AB40B7
S31500004540134333600830E3E707FA02FE43EA0E033B
S31500004550EBE700BF0080052408B51848FFF7D2FF37
S315000045601748FFF7CFFF04F07DFA04F08FFA04F046
S3150000457099FA04F0ABFA04F0B5FA1248FFF7C2FF55
S315000045801148FFF7BFFF1148FFF7BCFF1048FFF7C0
S31500004590B9FF1048FFF7B6FF0F48FFF7B3FF0F4804
S315000045A0FFF7B0FF0E48FFF7ADFF0E48FFF7AAFF73
S315000045B0BDE808400C48FFF7A5BF00BFB4100000D7
S315000045C018100000540C0000200D0000140D00000F
S315000045D0340D0000F40B0000E80B0000DC0B0000BB
S315000045E0300C0000780C00006C0C000010B5254C57
S315000045F0FFF7B2FF94F8040600F00100FFF756FF3C
S315000046004FF4C023C4F86C34D4F840311E4843F448
S315000046100023C4F84031D4F8403143F00103C4F814
S315000046204031D4F8403143F00203C4F84031FFF77B
S3150000463069FF16491648D1F8103543F00203C1F850
S315000046401035636923F400336361636943F480338F
S315000046506361D0F84027D0F87837C2F34342023A74
S3150000466023F4F07343EA4213C0F87837D1F8943450
S3150000467043F40023C1F89434236943F4601323619F
S3150000468010BD00BF00800424400E000000A00524D9
S315000046900080052408B550B10748FFF733FF0748E7
S315000046A0FFF730FF0648BDE80840FFF72BBF054877
S315000046B0FFF728FF0448F6E7880E0000300F0000D9
S315000046C0240F0000FC0E0000A80E00000B48D0F8D6
S315000046D000D05DF804EB5DF804CB5DF804BB5DF833
S315000046E004AB5DF8049B5DF8048B80BC40BC20BC29
S315000046F010BC08BC04BC02BC01BC704774EC0000D2
S31500004700FEE7FEE7054B064A06498B4200D3704793
S3150000471052F8040B43F8040BF7E700BF0C00000047
S31500004720B869210808110000064B0748DA1C121A5E
S31500004730C11E22F00302994288BF002200210CF01C
S31500004740E4BF00BF140201000811000008B5FFF71E
S31500004750D9FFFFF7E9FF00F0BDF8BDE80840FCF718
S31500004760E0BD000070B562B63C4B3D4A1A603D4B59
S315000047703D4A93F806363D4C3D4D03F00F030F2B93
S315000047804FF000634FF002060BBFD3F83714D3F88F
S315000047909C1511601160374A0CBFD3F83634D3F834
S315000047A09B35136004F054F82D4BE36305F0C8FD08
S315000047B0032004F011FB04F04DF82F4BDB694FF09A
S315000047C08061D3F880304FF08C409847EB6966F3F0
S315000047D00E33EB61294BDA696FF30202DA61304678
S315000047E004F0B2F81F4B0D22C3F828265A6942F08E
S315000047F001025A615A691A6A66F302021A621A6A51
S315000048001207FCD5AB69022262F38403AB61AB6984
S315000048101B04FCD51A4B1B495A6E1B4D6FF3410204
S315000048205A665A6E6FF300025A664FF4FA400C4B02
S315000048302161E16115496062002220624FF4004067
S31500004840C4E90033C4E90B15C4E90F33A260626101
S31500004850E360A06263636164A26170BDC8EC00009E
S31500004860005A62020080042470EC000078EC00001C
S31500004870008104246CEC0000000130000086042452
S315000048800084042400B4C404002D31010048E8016A
S315000048904FF0E02384B0D3F8402F0192D3F8442F91
S315000048A002920199094A91420DD10299084A914210
S315000048B009D1D3F8882D0392039A42F47002039229
S315000048C0039AC3F8882D04B0704700BF2100111069
S315000048D01100001113B50023009301932F4BD3F859
S315000048E010250092009A00922D4A116821F00F01BE
S315000048F0116011681160D3F89C1421F46071C3F83B
S315000049009C14D3F8041701910199C3F80415D3F840
S31500004910001701910199C3F80015D3F8101541F05D
S315000049201C01C3F81015D2F8024014F48074FAD1B1
S315000049301C48436943F480334361436964F351433C
S315000049404361FFF7A5FF184B4FF080725A60174B73
S31500004950C0F84031164B5A6864F3C3025A60036AC2
S315000049600E4A43F480330362036A43F4003303625E
S31500004970D2F8943443F40023C2F89434036943F420
S31500004980601303610B4B1A6842F400221A601A681E
S3150000499042F480221A6002B010BD00BF00A00524B8
S315000049A000000524008004240000304103000800B4
S315000049B0008104240084042430B50E4D2B6885B094
S315000049C043B90D4B0FCB6C4684E80F002046FCF72D
S315000049D0AEFE2860FCF73CFD022808D1286830B1FD
S315000049E04FF0FF3105B0BDE83040FCF7DDBE05B045
S315000049F030BD00BF1CED0000DC4D210808B5FCF7FA
S31500004A0027FD022806D1044B186818B1BDE80840F6
S31500004A10FCF7EFBE08BD00BF1CED000020F04040D3
S31500004A20012802D0022805D07047034A13680133D3
S31500004A3013607047014AF9E724ED000020ED0000FD
S31500004A4010B5124CE3689847A36811489847236944
S31500004A5002209847A46A01211520A04701211620AB
S31500004A60A0474FF4E1310120A0470A4C206810B955
S31500004A70FCF75DFE2060084B4FF48052C3F880209F
S31500004A80BFF34F8FBFF36F8F10BD00BFEC4D2108F2
S31500004A901D5A200828ED000000E100E013B5094C7E
S31500004AA000238DF804302360074B01219B6901A880
S31500004AB0984723681BB19DF8040002B010BD00F0B2
S31500004AC0A5FBF6E720ED0000EC4D210813B5094CD7
S31500004AD08DF8070000232360074B01215B690DF168
S31500004AE00700984723680BB102B010BD00F08EFB9B
S31500004AF0F8E700BF24ED0000EC4D210803681B78A1
S31500004B000022202B04D0093B042B01D9D0B27047D8
S31500004B100368591C01605B780132F2E70120704797
S31500004B2008B505F035FE162303604FF0FF3008BDCB
S31500004B3008B505F02DFE16230360FEE770B50D4699
S31500004B401446FCF785FC022805D10C4B4FF0FF31CB
S31500004B501868FCF729FE2E46731BA34209DBFCF7F7
S31500004B6077FC022803D1054B1868FCF742FE204665
S31500004B7070BD16F8010BFFF7A9FFEDE728ED000061
S31500004B804FF0FF3070474FF400534B6000207047E2
S31500004B9001207047002070470FB42DE9F0438BB019
S31500004BA012AB002453F8046B019304AD8DF810404A
S31500004BB0A846FFF773FF0D2805F8010B04D00A2855
S31500004BC002D00134142CF4D19E4B019FE34004F132
S31500004BD0280213F001030DEB02041ABF002304F8A8
S31500004BE0183C04F8173C9DF81030CDE90268002BFC
S31500004BF000F04E810025029B1B78002B4DD0DDF87E
S31500004C000C9099F80060002E47D002A8FFF776FFB7
S31500004C10044618B103A8FFF771FFECE7029A1346A2
S31500004C20517813F8010B0293252801D1252907D1C4
S31500004C308E4232D109F10103023203930292DAE77E
S31500004C4026462046A0461A7806F07C01002A7CD12A
S31500004C5000B1029309B3002C08BF6324082900F0B1
S31500004C608780202900F0AA80042916D157F8042B42
S31500004C704946144400200E780B460131002E6AD1B5
S31500004C8000286FD1B7E7692A50D01ED8632A52D0C0
S31500004C9011D8392A07D82F2A34D8E8B20BB0BDE884
S31500004CA0F04304B07047582AF7D146F02006013386
S31500004CB04FF0100832E0642AEFD146F4005646F071
S31500004CC0200601334FF00A0828E06F3AD1B20929CD
S31500004CD0E3D8092AE1D801A151F822F0215D200884
S31500004CE09B5C20089B5C20089B5C2008455D200897
S31500004CF09B5C2008BF5C20089B5C20089B5C20080E
S31500004D00AB5C2008002CC8D10A211A78303A01FB86
S31500004D10042413F8012F303A092AF6D9012092E724
S31500004D2046F0200601334FF00808F7E746F0200664
S31500004D3001338846F2E7012C46F0040638BF012409
S31500004D400133EBE746F00806FAE700299BD0002876
S31500004D5081D002937FE702F8016BA2424FF0010077
S31500004D6089D10B46994503933FF445AF013542E798
S31500004D7003A8FFF7C3FE039E57F8043B314603EB37
S31500004D80040C00200C4611F8012B12B960B10394F3
S31500004D900AE00D2A0FD8082AF8D803F8012B634534
S31500004DA04FF00100EED10391039A96423FF423AFF0
S31500004DB000221A70DAE7202AEFD1E7E703A8FFF707
S31500004DC09DFE039BB8F1000F10D0B8F1100F17D15C
S31500004DD01A78302A14D15A7802F0DF02582A0FD1F5
S31500004DE002330393023C4FF0100809E01A78302A88
S31500004DF016D15A7802F0DF02582AF1D04FF008088F
S31500004E00039B1A782B2A0ED02D2A0FD10133039338
S31500004E10013C4FF0FF31039A00201444844616E00B
S31500004E204FF00A08ECE701330393013C0121F2E756
S31500004E30A9F14103052B02D920B3039222E0A9F17F
S31500004E40370317E0010010000CFB083C012092F824
S31500004E5000909646B9F1000FEED0A242ECD0A9F12F
S31500004E603003DBB2092B06D9A9F16103052BDFD884
S31500004E70A9F15703DBB2984502F10102E4D808B163
S31500004E80CDF80CE057F8043B0CFB01F119606DE717
S31500004E904FF0FF3501E700BF044802231421C21872
S31500004EA001334B2B82F80013F9D1704700E100E083
S31500004EB038B5234B0222C3F88420BFF34F8FBFF3CC
S31500004EC06F8F204BD3F80028D30735D4012319461A
S31500004ED0202B01D11C4606E001FA03F4144203F12B
S31500004EE0010027D0DCB2184B03EB04139A68C2F317
S31500004EF08162032A22D09B689B0F032B1ED0134B83
S31500004F00142202FB0433D3E90253ED1A18BF01251C
S31500004F100F4B0E4ADB680C49DB690E4898472DB1EA
S31500004F20084A01235169A3400B435361044B0222F3
S31500004F305A6038BD0346CBE70024D4E70025E7E7EF
S31500004F4000E100E00000034400FC02001CEE00004B
S31500004F50000130003805000038B5244B4FF480625C
S31500004F60C3F88020BFF34F8FBFF36F8F204BD3F86A
S31500004F700028D30736D4012319460C2B01D11C4631
S31500004F8006E001FA03F4144203F1010028D0DCB272
S31500004F90184B03EB04139A68C2F38162032A23D0E9
S31500004FA09B689B0F032B1FD0134B142202FB043369
S31500004FB0D3E90253ED1A18BF0125104B0E4ADB68E0
S31500004FC00C49DB690E4898472DB1094A01235169FE
S31500004FD0A3400B435361054B4FF480621A6038BD02
S31500004FE00346CAE70024D3E70025E6E700E100E030
S31500004FF000800724001C06242CED00000001300070
S315000050002C050000064B1868002382B262F30F03DA
S31500005010000C60F31F4382B0184602B0704700BF11
S31500005020604E2108014B1868704700BF4405000018
S31500005030014803F0A9B800BF44050000014903F088
S3150000504063B800BF44050000014803F03BB800BF49
S315000050504405000037B504460B200D4600F002FA61
S31500005060064B1B680193064B00930246054B2946E7
S31500005070204602F0E9FD03B030BD00BF14F1000088
S315000050802C05000044050000014802F0D9BD00BF10
S3150000509044050000014802F0D0BD00BF44050000F1
S315000050A07FB5104BD3E90354B2F5806F2E883ABF13
S315000050B002F1FF33C3F3090340F2FF3363F30D1626
S315000050C02E80258863F30D15074B25801B680293F8
S315000050D0064B0193064B0093024B02F075FD04B09C
S315000050E070BD00BF4405000014F100002CED000067
S315000050F02C0500000D4B1A69B1F5806F13B538BF4A
S3150000510001F1FF33148834BFC3F3090340F2FF33C0
S3150000511063F30D14064B14801B680193054B009333
S31500005120024A054B02F0B2FC02B010BD4405000075
S3150000513014F100002CED00002C0500000D4BDA6880
S31500005140B1F5806F13B538BF01F1FF33148834BF52
S31500005150C3F3090340F2FF3363F30D14064B1480C7
S315000051601B680193054B0093024A054B02F0E0FBD6
S3150000517002B010BD4405000014F100002CED000043
S315000051802C050000024B034A1B68034902F028BBAA
S3150000519014F100002C05000044050000034B0449EF
S315000051A004484FF400129A6402F0CABA0084042438
S315000051B02C0500004405000007B5064B0193064B7D
S315000051C00093064A064B074902F02AFA03B05DF837
S315000051D004FB00BF9CF0000014F100002C05000049
S315000051E0001C062444050000014802F0F1B800BF87
S315000051F0CC050000014802F0EBB800BF88050000AE
S31500005200014802F0E5B800BF44050000FFF7F8BF0B
S3150000521013B5837804468BB9012004F0BEFA63788F
S315000052208DF8043023788DF8053000238DF806308C
S31500005230019802B0BDE8104004F038BC0020ECE74D
S31500005240354BDFED366AD3F8102242F04002C3F840
S31500005250102207EE900AD3F81022F4EEE67A42F016
S315000052601002F1EE10FA07EE101A82B0C3F81022FF
S3150000527006DCF0EE086AB4EEE67AF1EE10FA08D52E
S31500005280D3F8102242F02002C3F81022002002B008
S3150000529070479FED237AF4EEC77AF1EE10FA10D537
S315000052A0D3F810226FF30302C3F81022D3F81022AA
S315000052B06FF38612C3F81022D3F810226FF304128C
S315000052C0E2E777EEC77ADFED176A134A87EEA67A2A
S315000052D0F7EE007A77EE277AFCEEE77ACDED017AE3
S315000052E09DF80430F6EE007A77EE277A07EE103A4C
S315000052F0B8EE477AB4EEE77AF1EE10FAC2BFFCEEEA
S31500005300E77ACDED017A9DF80430D2F8101263F3F6
S315000053100301C2F81012B9E70038042433333340CE
S31500005320CDCCCC3F0AD7A33D0A4B9A6C013A052A4D
S315000053300ED8DFE802F003050705090B586C704725
S31500005340D86A7047D86B7047186B7047586B7047B0
S315000053500020704778EC000006281DD8DFE800F032
S31500005360040A0D10131619000C4B586809B1B0FB4E
S31500005370F1F07047094B186AF8E7084B586AF5E7E9
S31500005380064B986AF2E7054BD86AEFE7034B186BB2
S31500005390ECE7024BD868E9E70020E7E778EC000085
S315000053A010B5032814D8DFE800F0020A0D100F48E4
S315000053B0C06A7AB1A3B981B1B0FBF1F00DE00B4838
S315000053C0C069F6E709484069F3E708488068F0E7EE
S315000053D00020EEE723B909B9400810BD4900EBE704
S315000053E0CB07FAD50229F8D9E6E700BF78EC00002A
S315000053F0F8B50C461546042828D8DFE800F0032146
S315000054001B1E2400FFF790FF15B394B10AF03AFF74
S31500005410064620460F460AF035FF104B00220AF0DA
S31500005420F5FD02460B46304639460BF0CFF80BF039
S315000054303DFAF8BD0A4BD869E6E7094B5869E3E738
S31500005440074B9868E0E7064BD868DDE70020DBE706
S31500005450002CEED0B0FBF4F0EBE700BF0000E03F1D
S3150000546078EC000010B50E2800F28F81DFE810F00E
S315000054700F001E002D005300720084009600B3003A
S31500005480CA00DD00E70009013201600182014FF028
S315000054908C43BDE81040D869D969DA69C1F3C30104
S315000054A0C2F3407200F00700FFF7A2BF4FF08C4333
S315000054B0BDE81040D869D969DA69C1F38321C2F31E
S315000054C08072C0F3C210FFF793BF4FF08C4293690E
S315000054D09469C3F3C233C4F3C324052B19D8DFE898
S315000054E003F003090C0F1215FFF71EFF0CB1B0FBFA
S315000054F0F4F010BD8C4B9868F8E78B4B1869F5E70C
S31500005500894B5869F2E7884BD869EFE7864BD8682C
S31500005510ECE70020EAE74FF08C42936A946AC3F303
S315000055204243C4F30554032B12D8DFE803F0020804
S315000055300B0EFFF7F9FE002CDBD06400D7E77A4BA1
S315000055405869F8E7784B9868F5E7774BD868F2E73B
S315000055500020F0E74FF08C43BDE810409869996948
S315000055609A69DB69C2F34022C3F30073C1F3C50134
S3150000557000F00700FFF714BF4FF08C43BDE8104062
S31500005580D86F99699A69DB69C2F34022C3F3007345
S31500005590C1F3C501C0F34220FFF702BF4FF08C43B1
S315000055A09B69C3F30263042B00F2EF80DFE803F08C
S315000055B003060A0D10005C4BD8689AE7BDE8104058
S315000055C0FFF7B2BE584B986893E7574BD86990E7F8
S315000055D0554B58698DE74FF08C42916993699269F2
S315000055E011F4802F5049C2F3C0520CBF4869886835
S315000055F0C3F3C3431AB1002B3FF47BAF12E083B968
S31500005600400876E74FF08C439A6A9B6A12F4806FE3
S31500005610454A0CBF9069D068C3F3C523002B3FF4FD
S3150000562068AF5B00B0FBF3F063E7404B986999699C
S31500005630BDE81040C1F34641000FFFF78DBE3B4B5E
S31500005640DA69DB69C2F34302C3F34713052A16D8A6
S31500005650DFE802F00306090C0F12334A5068DDE753
S31500005660314A106ADAE7304A506AD7E72E4A906A1A
S31500005670D4E72D4AD06AD1E72B4A106BCEE700203B
S31500005680CCE72A4B1A6A1B6AC2F34302C3F34213DE
S31500005690072A1DD8DFE802F004070A0D10131619B1
S315000056A0214A5068A7E7204A106AA4E71E4A506AB2
S315000056B0A1E71D4A906A9EE71B4AD06A9BE71A4AF1
S315000056C0106B98E7184AD06895E7174A506B92E72F
S315000056D0002090E7154B1B6BC3F34303062B54D8EE
S315000056E001A252F823F000BF056720080B672008C7
S315000056F011672008176720081D6720082367200800
S31500005700B7652008084B5868F3E6074B186AF0E6B9
S31500005710054B586AEDE6044B986AEAE6024BD86AEE
S31500005720E7E6014B186BE4E678EC0000001404246D
S31500005730174B5B6BC3F34303082B26D801A252F821
S3150000574023F000BF056720080B67200811672008B3
S31500005750176720081D67200823672008B7652008FB
S31500005760696720086F6720080A4B586BC1E6094B2A
S315000057709869BEE6064BD86AD96ABDE81040C1F3FF
S315000057804711C0F34300FFF7E7BD0020B1E600BFB5
S315000057900014042478EC0000024B1B68D3F8BC30DC
S315000057A0184700BF00013000024B1B68D3F8CC300D
S315000057B0184700BF00013000024B1B68D3F8EC30DD
S315000057C0184700BF0001300007EE100AFDEEC77A49
S315000057D0F8EEE76AF4EEC76AF1EE10FA41BF17EE8B
S315000057E0903A013307EE903AF8EEE76A16EE900A21
S315000057F070470000024B01219B69C0B2184700BFE9
S31500005800C8F10000FFF7F6BF1346054A126810B448
S31500005810546C0A46A44600215DF8044B604700BF5D
S315000058200001300010B54FF4006003F04DF8094C4C
S31500005830094B4FF000725A6422782AB9074B084880
S315000058401B6A01219B6A9847237843F00103237062
S3150000585010BD00BF18F500000084042400013000CC
S315000058600014042482B0ADF804000A4B4FF4006221
S315000058701A609DF80420084B2AB9D3F8082242F48E
S315000058800062C3F808225A68002042F001025A60FA
S3150000589002B0704700E100E0003804242DE9F04F23
S315000058A0224B234893F81CE0224B1A7800231C460F
S315000058B002F59875D9B28E450CD8DFF880800023A2
S315000058C0A8F5107902F5907CDAB2964509D8002041
S315000058D0BDE8F08F30F815108C4238BF0C46013306
S315000058E0E8E743B929F81C300133EDE7B5F820B0F5
S315000058F0594489B20AE000271FFA83FABEB2B442BD
S31500005900F2D900220C4D104635F8021F8C4203D9FD
S31500005910B142EBD1013080B2013292B25245F3D39B
S3150000592001370028EAD128F81360DDE7C8F1000046
S31500005930E8F10000C4F1000026F4000028F400009D
S31500005940012800D17047C30701D44008F8E70020BA
S31500005950704703460120834208DC00EBD072A3EBBC
S315000059606203B3EBA00FB8BF400870474000F2E7F0
S3150000597084B02DE9F7430AAC84E80F000023ADF8A4
S3150000598006309DF8BC515F4B9DF8BD715A885B6827
S31500005990B3FBF2F30DB9012F40D15B4901250A880B
S315000059A05A4C07EE903A92B20AAB03EB820393EDA0
S315000059B0057AF8EE677AB8EE477AC7EE877A17EE79
S315000059C0900AFFF701FF07EE900A0B88FCEEE77AD4
S315000059D09BB203F5987317EE902A24F813200B88D0
S315000059E09BB203F5987334F81330012B06D80B8855
S315000059F09BB203F59873022224F81320444E0DF14E
S31500005A0038094FF00008B7EE006A5FFA88F39F4244
S31500005A1007D803B0BDE8F04304B070470DF10601A6
S31500005A20BDE7B8F1000F17D0D9ED007A3288B8EE8D
S31500005A30677AD9ED017AF8EE677AC7EE277A17EE1C
S31500005A40900AFFF7C1FE07EE900AFCEEE77A17EE22
S31500005A50903A13FB02F37380012F08D07288104628
S31500005A60FFF76EFF18B91046FFF773FF70808DB110
S31500005A700B880AAA9BB202EB4303B3F8F430012B5E
S31500005A8008D10B889BB203F5987334F8132092085B
S31500005A9024F81320DFED1F7A00231FFA88F09842BE
S31500005AA0ADF806300AD2F4EEC67AF1EE10FA27DC2B
S31500005AB008F10108023609F10409A6E70A8892B23C
S31500005AC002F59872013334F8122007EE102AB8EE68
S31500005AD0477A9BB2C6EE076A77EEA67ADFE70A88B0
S31500005AE092B202F59872013334F812C04FEA4C0CA8
S31500005AF024F812C09BB29842ADF80630EFD2D7E731
S31500005B000023F8E7C8F10000C4F10000E8F1000046
S31500005B1046F400000000000007EE100ADFED087AE8
S31500005B20084837EE277AF7EE006AC6EE877AFCEE6B
S31500005B30E77A17EE903A834228BF03461846704725
S31500005B4095BFD633404B4C0084B0F0B506AC84E824
S31500005B500E00DFED957A002123AC0DF16B050A46A8
S31500005B600B46CEB2B04200F2B080002B00F0A4800B
S31500005B70B0EE007AF4EEC77AF1EE10FAB0EE047ADF
S31500005B8005DBF4EEC77AF1EE10FA00F1DD80F4EEF3
S31500005B90C77AF1EE10FAB0EE087A05DBF4EEC77AB2
S31500005BA0F1EE10FA00F1D680F4EEC77AF1EE10FAB3
S31500005BB0B1EE007A05DBF4EEC77AF1EE10FA00F1E9
S31500005BC0CC80F4EEC77AF1EE10FAB1EE047A05DB7A
S31500005BD0F4EEC77AF1EE10FA00F1C280F4EEC77A5D
S31500005BE0F1EE10FA07DBB1EE087AF4EEC77AF1EEC1
S31500005BF010FA00F1B880B1EE0C7AF4EEC77AF1EE45
S31500005C0010FAB2EE007A05DBF4EEC77AF1EE10FA7E
S31500005C1000F1AC80F4EEC77AF1EE10FAB2EE027A39
S31500005C2005DBF4EEC77AF1EE10FA00F1A280F4EE8D
S31500005C30C77AF1EE10FA07DBB2EE047AF4EEC77A11
S31500005C40F1EE10FA00F19880B2EE087AF4EEC77A17
S31500005C50F1EE10FA06DBB2EE0C7AF4EEC77AF1EE4C
S31500005C6010FA61D4B3EE017AF4EEC77AF1EE10FAC7
S31500005C7006DBB3EE027AF4EEC77AF1EE10FA60D4E0
S31500005C80B3EE097AF4EEC77AF1EE10FA06DBB3EE5C
S31500005C900A7AF4EEC77AF1EE10FA70D9B3EE0B7AFF
S31500005CA0F4EEC77AF1EE10FA06DB9FED407AF4EED9
S31500005CB0C77AF1EE10FA74D9DFED3D7A9FED3D7AA1
S31500005CC0002A18BFF0EE477A65E015F8016FA6F1D5
S31500005CD0140CBCF1020F2F7C0FD894ED007AF4EE71
S31500005CE0C77AF1EE10FA03D50133DBB2F0EE477A4C
S31500005CF00D2F16D00131043433E7A7F10A0CBCF19D
S31500005D00020F0CD894ED007AB4EEE77AF1EE10FAB1
S31500005D1003DD0133DBB2F0EE477A182EE9E7182EE1
S31500005D20E6D10132D2B2E5E7DFED237A9AB39FEDF1
S31500005D30217AF4EEC77AF1EE10FA23D5F0EE477A1F
S31500005D4029E0DFED1E7AF1E7DFED1D7AD2B1DFED56
S31500005D50197A20E0DFED1B7AF8E7DFED1B7AF5E72D
S31500005D60DFED1A7AF2E7DFED1A7AEFE7DFED197A5F
S31500005D70ECE7DFED197AE9E7DFED187AE6E7DFED24
S31500005D80187A42B19FED0A7AF4EE477AF1EE10FAEC
S31500005D9048BFF0EE477ABDE8F04017EE900A04B02F
S31500005DA07047DFED107AECE70000000000004C427F
S31500005DB095BFD6338BE16A36EFE608369F9D4236AD
S31500005DC02E5A823301A90C3437F859342439EC346D
S31500005DD034580F35AD186335883E8A35ACC5A735BE
S31500005DE0B1B49D36F2DD1C3770B50D461646044635
S31500005DF0D0B9FFF7E1FCAA4807222146FFF704FDC8
S31500005E00002D40F0AA81012E00F09F810B2C1DD0A1
S31500005E100C2C40F0F5800520FFF7CEFCA0480722A9
S31500005E200521FFF7F1FC98E0012818D10220FFF7C1
S31500005E30C3FC9B4807220221FFF7E6FC002D76D122
S31500005E40012E00F082810B2C40F0DA800320FFF750
S31500005E50B3FC072203219248FFF7D6FC96E00228FE
S31500005E600ED10420FFF7A8FC072204218C48FFF777
S31500005E70CBFC002D00F06681012D40F0778155E1C5
S31500005E80032805D10620FFF797FC07220621EDE738
S31500005E90042805D10820FFF78FFC07220821E5E733
S31500005EA0052805D10A20FFF787FC07220A21DDE72E
S31500005EB006280CD17B4B20225A601920FFF774FC70
S31500005EC01920FFF769FC78480E221921B4E7072844
S31500005ED01ED1744B20225A601B20FFF765FC1B2045
S31500005EE0FFF75AFC0E221B216F48FFF78DFC002D91
S31500005EF000F02881012D40F0D980012E00F0198193
S31500005F000C2C21D10520FFF757FC07220521A2E71B
S31500005F10082840F0FD80634B20225A601D20FFF7C1
S31500005F2043FC1D20FFF738FC0E221D21DCE70B2C5D
S31500005F301ED0012D40F01A81012E00F0FA800C2CA3
S31500005F40E0D00D2C00F0C1800E2C50D00F2C6FD05D
S31500005F50102C75D12EE0022D40D0032D52D1012EEA
S31500005F6059D00E2C70D00F2C62D0102C30D121E0DD
S31500005F700320FFF721FC4A4807220321FFF744FCD0
S31500005F80022D2BD0032D03D1012E44D0002070BD4D
S31500005F90042D00F0A480052DDAD1012E40F0A38057
S31500005FA00720FFF709FC07223D481146FFF72CFCA6
S31500005FB0102C5ED13B4B20225A601A20FFF7F4FBCF
S31500005FC01A20FFF7E9FB38480E221A21FFF71CFCBE
S31500005FD0112C50D0072D5CD1012E88E0012ED5D191
S31500005FE069E0012E67D00D2C0FD00E2CBBD10920F5
S31500005FF0FFF7E2FB2A4807220921FFF705FCCAE75B
S315000060000D2C62D00E2C68D1F1E70B20FFF7D4FBE4
S3150000601007220B211FE70B20FFF7CEFB20480722A4
S315000060200B21FFF7F1FB8FE70E2CE0D00F2CB2D13E
S315000060300720FFF7C1FB072219481146FFF7E4FBCB
S31500006040062DC5D1012E4FE00920FFF7B5FB07222B
S31500006050092100E70920FFF7AFFB114807220921B4
S31500006060FFF7D2FB7FE70720FFF7A6FB07221146C3
S31500006070F1E6112C0DD10B4B20225A601C20FFF7A4
S3150000608093FB1C20FFF788FB07480E221C21FFF715
S31500006090BBFB122C2FD0082D7FF478AF012E28E001
S315000060A000C004240000304100001346022D7FF496
S315000060B054AF012E99D10520FFF77EFB2E4807220B
S315000060C00521FFF7A1FB0D2CAED10B20FFF774FBCA
S315000060D0294807220B21FFF797FB042DA6D1012E95
S315000060E0B8D00F2CBFD0102C3FF464AF112CC2D007
S315000060F0122C7FF44BAF214B20225A601E20FFF753
S3150000610053FB1E20FFF748FB1D480E221E21A3E667
S315000061100A287FF475AE0120FFF74EFB16480722CA
S315000061200121FFF771FB012D7FF415AF012E7FF4DE
S315000061302DAF0320FFF740FB0F4807220321FFF78F
S3150000614063FB65E6012E7FF421AF0120FFF734FBE8
S31500006150094807220121FFF757FB0B2C3FF408AF34
S31500006160012D3FF4E9AE0C2C3FF455AE022D3FF461
S3150000617038AF0D2CA9D0F0E600C004240000304151
S315000061800000134682B02DE9F0410F2906AC84E8E1
S315000061900C005FD8BDF82040BDF8225044EA050344
S315000061A0B3F5806F56D22E4B079E9DF824809DF83E
S315000061B025E043F8212001F1100701F1400C43F8D6
S315000061C0276001F15007B24223F81C4023F817500C
S315000061D042D0B8F1000F17D001F1300802EB4402AB
S315000061E0C0F8D42143F8282044EAC12242F40048EA
S315000061F0C0F8D881D0F8D881C0F8D821D0F8D821F5
S3150000620043F82C8043F82720BEF1000F1DD001F182
S31500006210600204EB4504344443F82240CA0202F506
S3150000622080622A43C0F8D44142F40044C0F8D84101
S3150000623001F17004D0F8D85143F824508031C0F8E9
S31500006240D821D0F8D82143F821200020BDE8F0411C
S3150000625002B070470120F9E742F20210F6E700BFEC
S31500006260E8F100000F2910B528D892B1144A01F1BF
S31500006270300452F82440C0F8D44101F1400452F8E9
S315000062802440C0F8D84101F1500452F82420C0F847
S31500006290D8218BB10A4B01F1600253F82220C0F8D5
S315000062A0D42101F17002803153F8222053F82130B5
S315000062B0C0F8D821C0F8D831002010BD0120FCE775
S315000062C0E8F1000010B5274B27485A685A6842F093
S315000062D001025A60D3F8082242F48062C3F8082209
S315000062E003F5B4331A68026852BBD3F8402442F46B
S315000062F06752C3F840241D4AD2F80230DC05FBD4AD
S315000063001B4BD3F80427D107FBD5D3F80427D207B4
S31500006310FBD4D3F84824174C174B21681A6093080E
S3150000632003F4F8530B43910001F07C0112020B4376
S3150000633002F47832134343F08103236001230360A0
S315000063400C4B1A680A4BC3F84424084AD2F80230A8
S3150000635013F48073FAD1034A516863F30001516064
S3150000636010BD00BF00380424B8F100000000052469
S3150000637000A00524C0F10000BCF1000084B070B597
S315000063802DED028B82B008AC84E80F00444C6E9A67
S31500006390A2610D9A43499DF8B531BDF814012377E2
S315000063A0013A8A4278D20DA90122934209D8012BDB
S315000063B06FD19DF8B43173B101280FD942F206109E
S315000063C060E00E4651F8045F3668B54264D8002D89
S315000063D062D00132E9E7B0F5806FEFD2FFF722FA1B
S315000063E0314B32485A689FED328A6FF38A225A60DF
S315000063F0DA686FF31842DA60DA68042161F3090299
S31500006400DA605A682B4942F480625A60FEF718FF38
S31500006410294B5B686360FFF755FF02F081FB208123
S3150000642002F072FB208202F081FBC0F30D0307EE3F
S31500006430103AB8EEC77A830BC7EE086A07EE903AB1
S31500006440F8EEE77A77EEA67AC4ED037A02F062FBFD
S31500006450C0F30D0307EE103AB8EEC77A830BC7EE0A
S31500006460086A01A807EE903AF8EEE77A002377EE7D
