S0190000776966695F687474705F6F7461665F736F632E73333760
S31500000000010000000D900D9084E800000100000042
S3150000001000102000AEC6EA610000000000000000EB
S3150000002000000000000000000000000000000000CA
S315000000300000000000000000000000000D900D9080
S31500000040A55A0000002020080000008000000000E3
S31500000050000000000000000000000000000000009A
S31500000060000000000000000000000000000000008A
S31500000070000000000000000000000000000000007A
S31500000080000000000000000000000000000000006A
S3150000100068250100914C2008454C2008454C2008D5
S31500001010454C2008454C2008454C2008000000009F
S31500001020000000000000000000000000512720081A
S31500001030454C200800000000A127200803232008B3
S31500001040454C2008454C2008454C2008454C2008B6
S31500001050454C2008454C2008454C2008454C2008A6
S31500001060454C2008454C20089D542008C175200891
S3150000107045572008454C2008454C2008454C20087B
S31500001080454C2008454C2008499F2008ED9F200824
S31500001090454C2008E19E2008454C2008454C200878
S315000010A0454C2008454C2008454C2008454C200856
S315000010B0454C2008454C200868250100454C200871
S315000010C0914C2008F5532008454C2008454C200833
S315000010D0454C2008454C20082D5720083957200834
S315000010E0114C2008454C2008454C2008F7556D59F1
S315000010F0454C2008454C2008454C2008454C200806
S31500001100454C2008454C2008B19E2008C99E200861
S31500001110F19D2008099E2008219E2008399E20085E
S31500001120519E2008699E2008819E2008999E2008CD
S31500001130454C2008454C2008454C2008454C2008C5
S31500001140454C2008454C2008454C2008454C2008B5
S31500001150454C2008454C2008454C2008454C2008A5
S31500001160454C2008454C2008F1A820080000000046
S315000011700000000000000000000000000000000069
S315000011800348044B834202D0034B03B11847704710
S31500001190480A0000480A0000000000000548064B07
S315000011A01B1AD90F01EBA301491002D0034B03B15F
S315000011B018477047480A0000480A0000000000006F
S315000011C010B5064C237843B9FFF7DAFF044B13B189
S315000011D00448AFF300800123237010BD480A0000C5
S315000011E000000000ECE6200808B5054B1BB10549D8
S315000011F00548AFF30080BDE80840FFF7CFBF00BF4A
S31500001200000000004C0A0000ECE62008EFF3118015
S315000012100C2383F31188704780F31188BFF36F8F17
S31500001220704708B500F012F800F054F8FEE7704772
S31500001230704708B502F0B6FB02F0C2FB02F0C2FB33
S3150000124002F0C1FBBDE8084002F0BEBB08B5FFF7DF
S31500001250EEFF02F029FDFFF7EBFF00F05FF800F06C
S3150000126007F802F0AAFBBDE8084000F019B870477D
S3150000127008B502F093FB02F092FB02F091FB02F03C
S3150000128090FBFFF7F4FF08BD08B502F0A5FB034B82
S315000012901868BDE8084000F0D8B800BF640A00002E
S315000012A030B5094D0FCD8BB001AC0FC40FCD0FC4B7
S315000012B02B680648236001AA002100F071F8044B50
S315000012C018600BB030BD00BFBCDE200889222008A4
S315000012D0640A000002F072BB10B5EFF3058414B186
S315000012E00124204610BD02F007F80128F9D0EFF3DB
S315000012F01083002BF4D1EFF31184003C18BF0124B6
S31500001300EFE708B54FF0E0231B6901F0F5FF012870
S3150000131003D0BDE8084000F0E9BA08BD08B5FFF7FC
S31500001320DBFF48B901F0E8FF0128034607D1054A6B
S31500001330106820B9136008BD6FF00500FBE74FF099
S31500001340FF30F8E75817000008B501F0D5FF38B1AF
S31500001350022804D0034B1868431E5842584108BD62
S315000013600320FCE75817000010B5FFF7B5FF044649
S3150000137068B901F0C1FF01280CD1084B1A68012A8F
S3150000138008D102221A6001F033FC204610BD6FF02E
S315000013900500FBE74FF0FF30F8E700BF58170000E5
S315000013A02DE9F04186B0002305460E46904605938A
S315000013B0FFF792FF00BBFDB1B8F1000F3ED0D8F8A1
S315000013C018402CB1631E372B03D906B0BDE8F08157
S315000013D01824D8F80430DB0735D4D8F814306BB1AC
S315000013E09A08D8E90270D8F8001057B1772803D9BF
S315000013F0D8F8100000B1BBB90598E6E74FF4807243
S31500001400EFE70028F8D1D8F81030002BF4D105AB5F
S31500001410013C019300943346284601F012FB012853
S315000014201CBF00230593E7E7013CCDE901070094C3
S315000014303346284601F0BBFA0590DDE741461824FD
S315000014404FF48072E3E70020BFE738B50546FFF7A3
S3150000145043FF044650B965B1284601F07DFB0428D8
S315000014600AD0284601F01CFB204638BD6FF0050067
S31500001470FBE76FF00300F8E76FF00200F5E737B51A
S315000014800C46054630B3B1F1807F23D2FFF724FF27
S31500001490C8B1002301AA21462846019300F010F99D
S315000014A0D8B1284600F0B8F8019B4BB14FF0E023C5
S315000014B04FF08052C3F8042DBFF34F8FBFF36F8FE9
S315000014C0204303B030BD2146284603B0BDE8304076
S315000014D000F0B0B86FF00300F3E76FF00200F0E73A
S315000014E038B50546FFF7F8FE10B10024204638BD92
S315000014F025B9BDE83840012000F09CBE6B681A078C
S31500001500F3D4D5E9021203F0010379B14F2AECD9DD
S315000015109BB1042000F05AFE04460028E5D0296855
S3150000152009B101F079F844F00104DFE7002ADCD1C3
S315000015307BB1042000F07EFEEEE7012000F046FEBF
S3150000154004460028D1D029680029CFD001F064F8DC
S31500001550CCE7012000F06EFEF2E7F8B505460C4632
S3150000156020F0010600F00107FFF7B6FEA0B9012D35
S3150000157015D92146304667B101F02DF8012801D171
S315000015800020F8BD002C14BF6FF001006FF00200C0
S31500001590F7E700F06CFFF1E76FF00500F1E76FF099
S315000015A00300EEE770B5044620F0010500F00106E1
S315000015B0FFF792FE90B9012C13D946B1284600F0E8
S315000015C01AFE01280CBF00206FF0020070BD3346E2
S315000015D032463146284600F03DFDF2E76FF0050041
S315000015E0F4E76FF00300F1E7034B0360034B0B6076
S315000015F04FF4807313607047E0160000E01200009D
S31500001600034B0360034B0B604FF40073136070478A
S3150000161068120000680A0000EFF311834FF014020D
S3150000162082F31188BFF36F8FBFF34F8F006883F388
S31500001630118870472DE9F0410D46044640B94FF038
S31500001640140383F31188BFF36F8FBFF34F8FFEE749
S31500001650B1F1807F08D34FF0140383F31188BFF3F1
S315000016606F8FBFF34F8FFEE700F10C0601F014FBFE
S31500001670236820692B43236000258642216807D111
S3150000168021EA0501216001F0DDFB2068BDE8F0815B
S31500001690D0E9002822F07F4312F0806F03EA0107A9
S315000016A002D11FB94046E8E7BB42FBD1D20141F067
S315000016B0007148BF1D4301F061FDF3E7FFF7BABFB4
S315000016C013460A460146014802F0B0B8BD26200876
S315000016D000F108034FF0FF32C0E9022343600361C3
S315000016E000230360704700230361704743684B6023
S315000016F09A688A60516099600368086101330360E3
S31500001700704730B50C68631C0AD103695A684A6091
S3150000171091608B605960036808610133036030BDD6
S3150000172000F10802134652681568A542FAD9EDE79A
S31500001730D0E9011203698A6051605968814208BF85
S315000017405A6000220261186801381860704700006C
S31500001750074B19680868B0E8F04F80F30988BFF3B3
S315000017606F8F4FF0000080F311887047AFF3008051
S31500001770C0E4000008480068006880F308884FF05D
S31500001780000080F3148862B661B6BFF34F8FBFF3D3
S315000017906F8F00DF00BF000008ED00E000000000D2
S315000017A0EFF30980BFF36F8F154B1A681EF0100F09
S315000017B008BF20ED108A20E9F04F10602DE90900DE
S315000017C04FF0140080F31188BFF34F8FBFF36F8F74
S315000017D001F0E6FB4FF0000080F3118809BC1968A0
S315000017E00868B0E8F04F1EF0100F08BFB0EC108A82
S315000017F080F30988BFF36F8F704700BFAFF3008097
S31500001800C0E40000DFF80C00016841F470010160DB
S315000018107047000088ED00E082B0002301930D4B75
S315000018201B68013308D04FF0140383F31188BFF30C
S315000018306F8FBFF34F8FFEE74FF0140383F31188CA
S31500001840BFF36F8FBFF34F8F019B002BFCD002B00D
S31500001850704700BF0C0000004FF0807340F8043C56
S31500001860074B40F80C3C21F001016FF0020340F8F1
S31500001870081C40F8202C40F8243C4438704700BF30
S31500001880192820084FF0140383F31188BFF36F8FD4
S31500001890BFF34F8F0A4A13680133012B13600ED131
S315000018A04FF0E023D3F8043DDBB243B14FF014030D
S315000018B083F31188BFF36F8FBFF34F8FFEE7704737
S315000018C00C000000084A136843B94FF0140383F371
S315000018D01188BFF36F8FBFF34F8FFEE7013B136095
S315000018E00BB983F3118870470C00000008B54FF060
S315000018F0140383F31188BFF36F8FBFF34F8F01F08B
S31500001900DFF928B14FF0E0234FF08052C3F8042DE1
S31500001910002383F3118808BD4FF0E02200231361F2
S315000019209361054B4FF47A711B68B3FBF1F3013BEE
S31500001930536107231361704700E600004FF0E02370
S3150000194037B5D3F8001D534A914208D14FF014031E
S3150000195083F31188BFF36F8FBFF34F8FFEE7D3F882
S31500001960001D4D4A914208D14FF0140383F31188AC
S31500001970BFF36F8FBFF34F8FFEE7D3F8083D474A9B
S31500001980D96A914208D04FF0140383F31188BFF34C
S315000019906F8FBFF34F8FFEE79A6B414B9A4208D089
S315000019A04FF0140383F31188BFF36F8FBFF34F8F8C
S315000019B0FEE7002301933B4B1A78D2B28DF8022042
S315000019C0FF221A701B78384ADBB28DF803309DF877
S315000019D0033003F01403137043B94FF0140383F379
S315000019E01188BFF36F8FBFF34F8FFEE79DF803306B
S315000019F0DB4313F0140F10D04FF0140383F3118858
S31500001A00BFF36F8FBFF34F8FFEE7013301939DF84E
S31500001A1003305B00DBB28DF803309DF8033013F022
S31500001A20800F019BF1D1082B18BF019B1F4A14BFE1
S31500001A30C3F1070300231B0203F4E06313609DF860
S31500001A400230184A4FF0E024DBB21370D4F8203D80
S31500001A5043F47F03C4F8203DD4F8203D002543F02D
S31500001A607F43C4F8203DC4F81C5DFFF755FF104BBB
S31500001A701D60FFF7C7FED4F8343F43F04043C4F877
S31500001A80343FFFF777FE01F08BFAFFF7C5FE2846D5
S31500001A9003B030BD71C20F4170C20F4151272008FB
S31500001AA0A127200800E400E0601700005C17000092
S31500001AB00C000000EFF305830F2B0ED9114A9B5C37
S31500001AC0114A12789A4208D94FF0140383F3118809
S31500001AD0BFF36F8FBFF34F8FFEE74FF0E0230B4A44
S31500001AE0D3F80C3D126803F4E063934208D94FF033
S31500001AF0140383F31188BFF36F8FBFF34F8FFEE795
S31500001B00704700BFF0E300E0601700005C170000BC
S31500001B10F8B5431E0A33624D24D901F0BDF82B688F
S31500001B2063BB00245F4A604853071FBFD11D21F0E5
S31500001B30070102F54842531A0CBF4FF448430A46C0
S31500001B401344083B23F00703002141600260C3E908
S31500001B500011991AC2E900312B60544B1960544B9D
S31500001B6019601BE010F0070300F108040BD101F027
S31500001B7093F82B68002BD5D0002C11DA01F062F90E
S31500001B8000252846F8BDA3F10902A242C5D31030AC
S31500001B90C41A01F081F82B68002BC3D0002CEDDDB0
S31500001BA0DFF80CC1DCF80010A142E7D33E4ADFF8AB
S31500001BB0F4E01368734502D33E4FBB4217D94FF08A
S31500001BC0140383F31188BFF36F8FBFF34F8FFEE7C4
S31500001BD0764502D3BE421A4608D94FF0140383F362
S31500001BE01188BFF36F8FBFF34F8FFEE733465868F8
S31500001BF0A04202D21E68002EEAD12D689D42BDD0B9
S31500001C0015680835754501D3BD4208D94FF0140350
S31500001C1083F31188BFF36F8FBFF34F8FFEE71F6803
S31500001C201760A0420FD3001B102819D91E1916F0F1
S31500001C30070F11D04FF0140383F31188BFF36F8F92
S31500001C40BFF34F8FFEE74FF0140383F31188BFF302
S31500001C506F8FBFF34F8FFEE770605C601F51166099
S31500001C6058680A1A1149CCF800200C68A24238BFFD
S31500001C700A6000221A60104A40F00040586013685B
S31500001C800133136001F0DEF86B073FF47AAF4FF0D3
S31500001C90140383F31188BFF36F8FBFF34F8FFEE7F3
S31500001CA07417000080170000781700006C170000FA
S31500001CB0701700007FDF000068170000F8B50546C2
S31500001CC000286FD0384FA0F10804BC4212D3374E1B
S31500001CD0B4420FD850F8043C002B14DA50F8082C04
S31500001CE0D2B14FF0140383F31188BFF36F8FBFF3A4
S31500001CF04F8FFEE74FF0140383F31188BFF36F8F06
S31500001D00BFF34F8FFEE74FF0140383F31188BFF341
S31500001D106F8FBFF34F8FFEE723F0004340F8043C7C
S31500001D2000F0BAFF224A55F8041C13680B441360EE
S31500001D30204B18461A461B689C42FBD882420CD0A0
S31500001D40BA4201D3B24208D94FF0140383F3118883
S31500001D50BFF36F8FBFF34F8FFEE750681618B4427C
S31500001D6006D1014450188342516010D1144602E056
S31500001D706018834213D11048006883421FBF586819
S31500001D804018606018682060A24218BF14600B4AB1
S31500001D90136801331360BDE8F84001F053B845F805
S31500001DA0083CF1E7F8BD00BF801700007FDF0000A8
S31500001DB07017000078170000741700006417000001
S31500001DC010B50446FFF75EFDA46BFFF77BFDB4FA82
S31500001DD084F0400910BD70B51646026C856B04464A
S31500001DE042B906689EB9806801F0DCFAA660013542
S31500001DF0A56370BD6EB9406809F072F96368226C1C
S31500001E001344A2686360934224BF23686360002082
S31500001E10EDE7C06809F064F9226CE36851429B1A49
S31500001E202268E36093423EBFA3685B18E360022E1C
S31500001E30EDD10DB1013DEAE72846D8E7034610B4D7
S31500001E401A6C08466AB1DC68996814448C4228BF4B
S31500001E501968DC6028BFD960D9685DF8044B09F0C1
S31500001E603FB95DF8044B704770B50446FFF70AFDAD
S31500001E7094F8455004F124066DB2002D14DCFF23BE
S31500001E8084F84530FFF71EFDFFF7FCFC94F844503C
S31500001E9004F110066DB2002D12DCFF2384F84430E5
S31500001EA0BDE87040FFF70EBD636A002BE7D03046F1
S31500001EB001F000F908B101F013FA013D6DB2DCE75B
S31500001EC02369002BE9D0304601F0F4F808B101F09F
S31500001ED007FA013D6DB2DEE770B50E46044640B91D
S31500001EE04FF0140383F31188BFF36F8FBFF34F8F47
S31500001EF0FEE7C56BA5B3036CA3FB053585BBFFF7F2
S31500001F00C1FCD4E90F31226862604B43D0185B1ADA
S31500001F101A44FF23A563A06084F84430E26084F885
S31500001F204530A6B9236973B104F1100001F0C2F877
S31500001F3048B14FF0E0234FF08052C3F8042DBFF3B1
S31500001F404F8FBFF36F8FFFF7BDFC012070BD04F10B
S31500001F501000FFF7BDFB04F12400FFF7B9FBF2E721
S31500001F604FF0140383F31188BFF36F8FBFF34F8FC6
S31500001F70FEE737B50D461C4643B94FF0140383F30D
S31500001F801188BFF36F8FBFF34F8FFEE748B3B2B12F
S31500001F9039B350230193019B502B19D1019B226029
S31500001FA00121C4E90F0584F846102046FFF794FF87
S31500001FB09DF8183084F84C30204603B030BD81B906
S31500001FC050230193019B502B02D1019B2246E6E749
S31500001FD04FF0140383F31188BFF36F8FBFF34F8F56
S31500001FE0FEE74FF0140383F31188BFF36F8FBFF33F
S31500001FF04F8FFEE72DE9F0410D461746064600B322
S31500002000A1FB0038B8F1000F1BD1484310F1510F66
S3150000201017D85030FFF77CFD044668B180F846803B
S315000020206DB100F15003C4E90F652360012120461C
S31500002030FFF752FF84F84C702046BDE8F081034656
S31500002040F1E74FF0140383F31188BFF36F8FBFF3EB
S315000020504F8FFEE7F0B585B00E4601921D46044649
S3150000206040B94FF0140383F31188BFF36F8FBFF3AA
S315000020704F8FFEE751B9036C43B14FF0140383F35E
S315000020801188BFF36F8FBFF34F8FFEE7022D0BD181
S31500002090E36B012B08D04FF0140383F31188BFF3D1
S315000020A06F8FBFF34F8FFEE701F026F908B9019B4A
S315000020B003BBFFF7E7FBA26BE36B9A4223D22A46E8
S315000020C031462046FFF787FE636A1BB104F1240000
S315000020D000F0F0FF48B14FF0E0234FF08052C3F814
S315000020E0042DBFF34F8FBFF36F8FFFF7EBFB01207C
S315000020F005B0F0BD4FF0140383F31188BFF36F8F63
S31500002100BFF34F8FFEE7022DD9D000231F4637E0DD
S3150000211013B902A801F090F8FFF7D4FB00F0BCFD5C
S31500002120FFF7B0FB94F84430FF2B08BF84F84470E7
S3150000213094F84530FF2B08BF84F84570FFF7C2FBC3
S3150000214001A902A801F084F8002839D1FFF79AFB0B
S31500002150A26BE36B9A421AD1FFF7B4FB019904F123
S31500002160100000F063FF2046FFF77EFE00F06AFED7
S31500002170D8B1FFF787FBA36BE26B9A429FD8012386
S31500002180019A002AC4D1FFF79DFB0020B0E7FFF7B4
S3150000219099FB2046FFF768FE00F054FEFFF772FB3E
S315000021A0A26BE36B9A42EAD289E74FF0E0234FF045
S315000021B08052C3F8042DBFF34F8FBFF36F8FEDE747
S315000021C02046FFF751FE00F03DFEDEE713B5002284
S315000021D00B46009011460120FFF7CBFE044638B1AE
S315000021E0002383600360C3601A461946FFF732FF77
S315000021F0204602B010BD38B5044640B94FF014036E
S3150000220083F31188BFF36F8FBFF34F8FFEE78568A7
S3150000221001F06CF885420BD1E368013BE3600BB13A
S31500002220012038BD1A4619462046FFF713FFF7E787
S315000022300020F6E710B5024600210120FFF7DAFE7E
S31500002240044638B1002383600360C3601A4619460A
S31500002250FFF700FF204610BD2DE9F84389461746D3
S315000022601E46044640B94FF0140383F31188BFF3AA
S315000022706F8FBFF34F8FFEE751B9036C43B14FF039
S31500002280140383F31188BFF36F8FBFF34F8FFEE7FD
S31500002290022E0BD1E36B012B08D04FF0140383F30E
S315000022A01188BFF36F8FBFF34F8FFEE7FFF702FC76
S315000022B0EFF311884FF0140383F31188BFF36F8F88
S315000022C0BFF34F8FA26BE36B9A4201D3022E2DD13F
S315000022D094F84550A36B6DB2324649462046FFF747
S315000022E07AFD6B1C0ED1636A3BB104F1240000F049
S315000022F0E1FE10B10FB101233B60012088F3118884
S31500002300BDE8F88300F0D6FC8542F6D27F2D08D1D1
S315000023104FF0140383F31188BFF36F8FBFF34F8F12
S31500002320FEE701356DB284F84550E6E70020E5E7A3
S31500002330F0B585B00E460192044640B94FF014033D
S3150000234083F31188BFF36F8FBFF34F8FFEE751B949
S31500002350036C43B14FF0140383F31188BFF36F8FFF
S31500002360BFF34F8FFEE700F0C7FF50B9019B43B1A3
S315000023704FF0140383F31188BFF36F8FBFF34F8FB2
S31500002380FEE7FFF77FFAA56BDDB131462046FFF782
S3150000239055FD2369013DA56373B104F1100000F0FA
S315000023A089FE48B14FF0E0234FF08052C3F8042D68
S315000023B0BFF34F8FBFF36F8FFFF784FA012005B08D
S315000023C0F0BD019B1BB9FFF77DFA0020F7E702A8D5
S315000023D000F032FF2F46FFF775FA00F05DFCFFF7BD
S315000023E051FA94F84430FF2B08BF84F8447094F8EF
S315000023F04530FF2B08BF84F84570FFF763FA01A943
S3150000240002A800F025FF38BB2046FFF7D9FCE8B14B
S31500002410019904F1240000F009FE2046FFF724FD8F
S3150000242000F010FD48B94FF0E0234FF08052C3F89A
S31500002430042DBFF34F8FBFF36F8FFFF723FAA56B02
S31500002440002DA2D1019B002BC5D1BCE72046FFF78A
S315000024500BFD00F0F7FCF0E72046FFF705FD00F066
S31500002460F1FC2046FFF7ACFC0028E6D0ADE7F0B55E
S3150000247085B00446019140B94FF0140383F31188E7
S31500002480BFF36F8FBFF34F8FFEE7056C45B14FF07B
S31500002490140383F31188BFF36F8FBFF34F8FFEE7EB
S315000024A000F02AFF064620B32E460027FFF7EAF97A
S315000024B0A36B53B3013BA363236813B901F00EF872
S315000024C0A060236973B104F1100000F0F3FD48B178
S315000024D04FF0E0234FF08052C3F8042DBFF34F8F27
S315000024E0BFF36F8FFFF7EEF9012005B0F0BD35465B
S315000024F0DBE7019B002BFAD04FF0140383F311881E
S31500002500BFF36F8FBFF34F8FFEE7019B1BB9FFF73A
S31500002510D9F90020E9E716B902A800F08DFEFFF709
S31500002520D1F900F0B9FBFFF7ADF994F84430FF2B71
S3150000253008BF84F8447094F84530FF2B08BF84F830
S315000025404570FFF7BFF901A902A800F081FE50BB54
S315000025502046FFF735FC00B323683BB9FFF792F935
S31500002560A06800F0D9FE0546FFF7ACF9019904F121
S31500002570240000F05BFD2046FFF776FC00F062FCCD
S3150000258048B94FF0E0234FF08052C3F8042DBFF353
S315000025904F8FBFF36F8F012688E72046FFF764FC55
S315000025A000F050FCF7E72046FFF75EFC00F04AFC1F
S315000025B02046FFF705FC0028EDD0002DA9D0FFF737
S315000025C061F9616A19B1236B1968C1F13801A06814
S315000025D000F032FF9BE770B50D46044640B94FF058
S315000025E0140383F31188BFF36F8FBFF34F8FFEE79A
S315000025F0866800F07BFE864204D1E3680133E3601F
S31500002600012070BD29462046FFF731FF0028F8D08B
S31500002610E3680133E360F4E770B540B94FF01403A3
S3150000262083F31188BFF36F8FBFF34F8FFEE7B9B106
S315000026300C4A00231C4615465668864204D105EB13
S31500002640C403C3E900100BE01BB91668002E08BFCF
S3150000265013460134082C02F10802EDD1002BF0D10B
S3150000266070BD00BF80DF000070B504460D461646FB
S31500002670FFF708F994F84430FF2B04BF002384F8D1
S31500002680443094F84530FF2B04BF002384F84530CE
S31500002690FFF718F9A36B2BB93246294604F124003B
S315000026A000F0DEFC2046BDE87040FFF7DDBB000011
S315000026B02DE9F0410446FFF7E5F8334B334E1A682F
S315000026C0334F01321A603568002D52D134601B68D1
S315000026D0012B1FD1B84640460135FEF7F9FF382DCC
S315000026E008F11408F7D1DFF8D0802A4D4046FEF7EE
S315000026F0EFFF2846FEF7ECFF2748FEF7E9FF2748DD
S31500002700FEF7E6FF2648FEF7E3FF264BC3F80080F8
S31500002710254B1D60254A136801331360244AA364C0
S315000027201168E36A8B4288BF136014225343F91879
S31500002730201D4A68A2609568E56068609060FA5856
S3150000274061610132FA50FFF7BDF81A4B1B6873B18D
S315000027503368DA6AE36A9A4209D24FF0E0234FF00F
S315000027608052C3F8042DBFF34F8FBFF36F8FBDE8C0
S31500002770F081104B1A68E36A002ACBD13268D26A1C
S315000027809A4298BF3460C5E7E8DF0000C0E4000065
S3150000279060E0000038E000001CE0000008E00000F7
S315000027A0F0DF000034E0000030E00000CCDF000085
S315000027B0E0DF0000DCDF00004CE000002DE9F8431C
S315000027C01F4B204C1D68204BD3F800801F4B06463C
S315000027D0D3F8009023682068002283F87220043022
S315000027E00F46FEF7A5FF731C14D19FB1184B216845
S315000027F05A688A6021689068C8602168043141601F
S31500002800216804319160226853611A6801321A60A6
S31500002810BDE8F88323682168AD195D6001F1040104
S3150000282004D34846BDE8F843FEF76BBF4046FEF7C3
S3150000283068FF084B1A68AA4288BF1D60E8E700BF18
S31500002840E4DF0000C0E4000034E0000030E00000F7
S31500002850F0DF0000C8DF0000064A13681968064B5F
S3150000286019B94FF0FF321A6070471268D2681268C1
S31500002870F9E700BF34E00000C8DF000010B590F8AB
S31500002880713004463BB9006BFFF718FA2046BDE8E5
S315000028901040FFF713BA012BF9D0022B08D04FF0E6
S315000028A0140383F31188BFF36F8FBFF34F8FFEE7D7
S315000028B010BD0000F8B50C4C0C4F0D4D236803B944
S315000028C0F8BDFEF7DFFFFB68DE68301DFEF730FF60
S315000028D02B68013B2B602368013B2360FEF7F2FF68
S315000028E03046FFF7CBFFE9E704E0000008E0000010
S315000028F0E8DF000008B5084E4FF0E0244FF08055A1
S31500002900FFF7D8FF3368012BFAD9C4F8045DBFF38B
S315000029104F8FBFF36F8FF3E760E000002DE9F047BC
S315000029200A9C9600324680460D46206BA5219946A4
S31500002930DDE9087A08F060FB236B043E1E4426F0AE
S31500002940070666646DB16B1E04F133020E3513F88B
S31500002950011F02F8011F09B1AB42F8D1002384F828
S315000029604230372F08D94FF0140383F31188BFF391
S315000029706F8FBFF34F8FFEE7E7622765201DFEF7D7
S31500002980B2FEC7F1380704F11800FEF7ACFE246169
S31500002990A76164624A4641463046FEF75DFF206005
S315000029A0BAF1000F01D0CAF80040BDE8F0872DE962
S315000029B0F04387B0DDE90F940E4600210546174621
S315000029C098460491B9F1000F08D14FF0140383F330
S315000029D01188BFF36F8FBFF34F8FFEE744B94FF0F7
S315000029E0140383F31188BFF36F8FBFF34F8FFEE796
S315000029F078230593059A9A4208D04FF0140383F37F
S31500002A001188BFF36F8FBFF34F8FFEE72046059BFC
S31500002A1008F0F2FA022384F8713004ABC4F830905F
S31500002A2001930E9B00933A4643463146284602944C
S31500002A30FFF774FF2046FFF73BFE049807B0BDE89A
S31500002A40F0832DE9F043074685B090008846164688
S31500002A509946FFF75DF80546F0B17820FFF758F87C
S31500002A600446B0B17822002108F0C6FA0D9B256312
S31500002A7001930C9B009332464B46414638460294DE
S31500002A80FFF74CFF2046FFF713FE012005B0BDE817
S31500002A90F0832846FFF712F94FF0FF30F6E7000003
S31500002AA0F8B50446254DFEF7EDFE04B92C68271D42
S31500002AB03846FEF73DFEA36A1BB104F11800FEF787
S31500002AC037FE1F4A1F4E1368013313602B68A3425B
S31500002AD0336800D15BB91C4A1368013B1360FFF7EA
S31500002AE0BBFEFEF7EFFE2046FFF7C8FE09E01748DB
S31500002AF03946FEF7FBFD164A136801331360FEF7ED
S31500002B00E1FE3368C3B12B68A34215D1114B1B6894
S31500002B1043B14FF0140383F31188BFF36F8FBFF3F4
S31500002B204F8FFEE74FF0E0234FF08052C3F8042D9D
S31500002B30BFF34F8FBFF36F8FF8BD00BFC0E4000037
S31500002B40CCDF0000DCDF0000E8DF000008E000006A
S31500002B5004E00000C0DF00002DE9F041044640B962
S31500002B604FF0140383F31188BFF36F8FBFF34F8FBA
S31500002B70FEE7194B1B68834226D0FEF783FE174BF0
S31500002B80D4F828801F68164B65691E68FEF79AFE02
S31500002B90144B98451AD0BD421AD0B54218D0124BE4
S31500002BA09D4209D1A36A9BB994F87030012B14BFDA
S31500002BB003200220BDE8F0810C4B9D420AD0002D77
S31500002BC014BF01200420F5E70020F3E70120F1E718
S31500002BD00220EFE70420EDE7C0E4000034E0000047
S31500002BE030E000001CE00000F0DF000008E000001C
S31500002BF030B58DB008AB214A1D4612F8014B03F8DB
S31500002C00014B002CF9D107AA06A905A8CDE9054470
S31500002C10FEF7EAFC059B0293069B079A1848CDE946
S31500002C20004329462346FFF7C2FE164B1860A8B19B
S31500002C3000F0CAFD012815D14FF0140383F3118863
S31500002C40BFF36F8FBFF34F8F0F4B4FF0FF321A60FA
S31500002C500E4B18600E4B1C60FEF770FE0D4B1B688A
S31500002C600DB030BD0130F9D14FF0140383F3118854
S31500002C70BFF36F8FBFF34F8FFEE700BFE0DE200884
S31500002C80F5382008C4DF0000C8DF0000DCDF0000E4
S31500002C90E4DF000010000000024A136801331360ED
S31500002CA0704700BFC0DF0000014B1868704700BFC7
S31500002CB0E4DF0000014B1868704700BFE8DF000042
S31500002CC02DE9F84F544B1B68002B40F09E80534B68
S31500002CD01C6801341C60BCB9514B1A68126842B1B9
S31500002CE04FF0140383F31188BFF36F8FBFF34F8F39
S31500002CF0FEE74C4A19681068186011604A4A136862
S31500002D0001331360FFF7A8FD484D494A2B68DFF8E9
S31500002D102CB19C424FF000000FD2DBF80030DB6A8A
S31500002D2014214B43D358022B424B1B6828BF01206A
S31500002D30002B18BF0120BDE8F88FDFF804C1074655
S31500002D40374B1B681B681BB94FF0FF332B60E4E75A
S31500002D50334B1B68DB68DB6859688C4201D22960FB
S31500002D60DBE7D3E90219D3F81480C1F80890C9F853
S31500002D700410D8F8041003F1040E7145D8F80010B9
S31500002D8008BFC8F8049001395F61C8F80010D3F88D
S31500002D902880B8F1000F13D0D3E90719C1F80890BD
S31500002DA0C9F80410D8F8041003F1180A5145D8F8E8
S31500002DB0001008BFC8F8049001399F62C8F80010D7
S31500002DC0D96ADCF800801426414506FB01F802EBBF
S31500002DD0080A88BFCCF80010DAF80490C3F8089007
S31500002DE0D9F80860DE60C6F804E0C9F808E0C3F860
S31500002DF014A052F80830013342F80830DBF80030EE
S31500002E00DB6A994288BF01209AE70B4A13680133AF
S31500002E10136000208FE700BFC0DF0000E4DF000082
S31500002E2034E0000030E00000D0DF0000C8DF000022
S31500002E3060E00000D4DF0000D8DF0000C0E400003E
S31500002E40E0DF00002DE9F84FFEF71CFD4C4B1A6839
S31500002E5042B94FF0140383F31188BFF36F8FBFF3AA
S31500002E604F8FFEE71A68013A1A601B682BB10024DF
S31500002E70FEF728FD2046BDE8F88F424A1268002A70
S31500002E80F5D04148414C424A424E434F14254FF03B
S31500002E90010C51E0C368DB68D3E90718D3F828E0D2
S31500002EA0C1F80880C8F80410DEF8041003F1180908
S31500002EB049454FF0000108BFCEF804809962DEF85C
S31500002EC000100139CEF80010D3E90218D3F814E047
S31500002ED0C1F80880C8F80410DEF8041003F10409EC
S31500002EE04945DEF8001008BFCEF804800139CEF857
S31500002EF00010D3F82CE0216805FB0EF802EB080A57
S31500002F008E45DAF804109960D1F808B0C3F80CB011
S31500002F10CBF80490C1F8089052F8081088BFC4F89E
S31500002F2000E00131C3F814A042F808103168C96AFC
S31500002F308E4501D9C7F800C001680029AAD10BB196
S31500002F40FFF78AFC154D2C6844B1134E0127FFF795
S31500002F50B7FE00B13760013CF9D12C600E4B1B68FF
S31500002F60002B84D00B4B1B684FF0E0234FF08052B0
S31500002F70C3F8042DBFF34F8FBFF36F8F012477E79C
S31500002F80C0DF0000E8DF00001CE00000E0DF00001A
S31500002F9060E00000C0E40000D4DF0000D8DF0000DD
S31500002FA01C4B1A681C4BF0B512B101221A60F0BD19
S31500002FB01A481A601A4D03681A4E2A685A671A493F
S31500002FC032684FF0140C0CFB02F35C18CF58A7B113
S31500002FD0676808337F6867600B449F4204BFE368F5
S31500002FE06360142303FB02114B68DB6803603260E5
S31500002FF0036803685B6F2B60D9E742B94FF014038F
S3150000300083F31188BFF36F8FBFF34F8FFEE7013A4B
S31500003010D9E700BFC0DF0000D4DF0000C0E4000035
S31500003020ECDF0000E0DF000060E0000010B50C46B9
S3150000303040B94FF0140383F31188BFF36F8FBFF3CA
S315000030404F8FFEE7054B19681831FEF75AFB2046ED
S315000030500121BDE81040FFF7B1BB00BFC0E400008E
S3150000306070B40C46114640B94FF0140383F311882F
S31500003070BFF36F8FBFF34F8FFEE70D4B42681D689E
S315000030809668EA611D682E621D68183575601D68B0
S315000030901B681835956098620368002903F10103DF
S315000030A003600CBF20464FF0FF3070BCFFF786BBB5
S315000030B0C0E40000C368DB68F0B543B94FF0140301
S315000030C083F31188BFF36F8FBFF34F8FFEE7D3E90A
S315000030D007019A6A81604860506803F11804A042AB
S315000030E008BF5160002199621168013911601D4ABB
S315000030F0D96A1268002A29D1D3E902405A69A06028
S31500003100446054681D1DAC4208BF50601068013809
S315000031101060154A1068814288BF11601348142256
S315000031204A43861874689C60A768DF607D60A56066
S315000031305E618358013383500D4B1B68DB6A9942ED
S3150000314083BF0C4B012018600020F0BD0A4A50686E
S31500003150D86185681D626C6084609A621368013369
S315000031601360E9E7C0DF0000E0DF000060E0000078
S31500003170C0E40000D4DF00001CE00000294B1B68FF
S31500003180F0B543B94FF0140383F31188BFF36F8F83
S31500003190BFF34F8FFEE7C36841F00041016043B9BA
S315000031A04FF0140383F31188BFF36F8FBFF34F8F74
S315000031B0FEE7D0E901410269A1604C60546884428F
S315000031C008BF516000210161116801391160D3E91E
S315000031D002015A698160486050681D1DA84208BFF7
S315000031E051601168013911600F4AD96A106881422D
S315000031F088BF11600D4814224A43861874689C6083
S31500003200A768DF607D60A5605E61835801338350E7
S31500003210074B1B68DB6A994282BF064B01221A6084
S31500003220F0BD00BFC0DF0000E0DF000060E000008E
S31500003230C0E40000D4DF0000034B1B680360034BAF
S315000032401B684360704700BFD0DF0000E4DF00006A
S3150000325070B50D46044640B94FF0140383F3118848
S31500003260BFF36F8FBFF34F8FFEE741B94FF01403E3
S3150000327083F31188BFF36F8FBFF34F8FFEE7FEF71F
S3150000328001FB144B62681968134B186890F87200BA
S3150000329040B11B68002283F872200124FEF712FB5E
S315000032A0204670BD2B68581C12D00C482668006852
S315000032B0864204D08A4202D800232B60EDE7881AA2
S315000032C08342F9D95B1A13442B602046FFF7B4FFFB
S315000032D00024E3E7E4DF0000C0E40000D0DF0000E4
S315000032E0014B01221A607047D4DF0000014B1868B9
S315000032F0704700BFC0E40000054B1B6833B1054BA7
S315000033001868B0FA80F04009400070470120704705
S31500003310DCDF0000C0DF0000F8B5044600282ED030
S315000033201D4DC36A2A68D26A93422DD282691B4E0A
S31500003330002AA1BF2A68D26AC2F138028261142229
S3150000334002FB036342699A421AD1071D3846FEF70B
S31500003350EFF92B68124ADB6A1168E3628B4288BF79
S31500003360136014225343F1184A68A2609068E06023
S3150000337047609760F25861610132F2500120F8BD52
S315000033802B68DB6AC362F9E72B68006DDB6A98423B
S315000033902CBF00200120F2E7C0E4000060E000003E
S315000033A0E0DF000070B5044608B9002070BD1F4B71
S315000033B01B68834208D04FF0140383F31188BFF3D0
S315000033C06F8FBFF34F8FFEE75B6D43B94FF014036A
S315000033D083F31188BFF36F8FBFF34F8FFEE7C16A88
S315000033E0026D013B91424365DFD0002BDDD1051D07
S315000033F02846FEF79DF9236DE362C3F13802A26108
S315000034000B4A11688B4288BF13601421094A4B434B
S31500003410D0184168A1608E68E66075608D60D158ED
S3150000342060610131D1500120C0E700BFC0E4000057
S31500003430E0DF000060E0000070B50446002846D0DA
S31500003440426D42B94FF0140383F31188BFF36F8FB7
S31500003450BFF34F8FFEE7036D994238BF1946C36A23
S315000034608B4234D0012A32D1194A1268824208D1DD
S315000034704FF0140383F31188BFF36F8FBFF34F8FA1
S31500003480FEE78269134DC162002A4FF0140202FB67
S3150000349003534269A4BFC1F1380181619A4216D132
S315000034A0061D3046FEF744F90B4AE36A11688B4263
S315000034B088BF136014225343E9184A68A2609068D3
S315000034C0E06046609660EA5861610132EA5070BD7C
S315000034D0C0E4000060E00000E0DF0000034B186875
S315000034E010B1436D01334365704700BFC0E400006F
S315000034F0914208B5416000610AD8D21A83699A429E
S315000035000DD2084B011D1868FEF7FBF8002008BD18
S315000035109A4201D2994202D2034B011DF3E70120E0
S31500003520F5E700BF70E5000074E5000070B50446DD
S315000035300D461646A1692B46324629442046FFF71A
S31500003540D7FF00B970BDA36920461D44236A98477A
S31500003550F0E700000E4B1B68DB6870B5DC680546BB
S31500003560201D0E46FEF7E4F894F828305A0709D5D0
S31500003570324629462046FFF7D9FF236A2046BDE892
S315000035807040184723F0010384F82830F5E700BFA0
S3150000359074E50000F8B50F4E0546FFF785FB336866
S315000035A08342044609D90C4F3B681A6852B90B4A44
S315000035B0116839601360012300E000232B6034603A
S315000035C02046F8BDDB684FF0FF311868FFF7C2FFF1
S315000035D0EAE700BF64E5000074E5000070E500005E
S315000035E02DE9F0415B4F5C4E86B03B68D3F8008016
S315000035F0B8F1000F38D0DB68D3F800800024FFF75D
S315000036004BFB02A8FFF7C6FF029B0546002B48D1DD
S3150000361064BB404530D3FFF715FC29464046FFF70B
S3150000362099FF1022002102A807F0E6FC306800226C
S3150000363002A9FEF77DFE0028D7D0029B0498002B36
S3150000364032DB049C6369002B35D101A8FFF7A2FF8A
S31500003650029B013B0546082BE8D8DFE803F0303033
S31500003660535A733030535A000124C8E73B4B1B684A
S315000036701C68B4FA84F4640930682246A8EB050194
S31500003680FEF7F2FFFFF7DEFB0028CAD14FF0E0237A
S315000036904FF08052C3F8042DBFF34F8FBFF36F8FE7
S315000036A0BFE7FFF7CFFBBCE7039B05999847029B53
S315000036B0002BBBDBC5E7201DFEF73AF8C5E794F8FB
S315000036C02830A16943F0010384F82830039B0246A1
S315000036D019442046FFF70CFF0028A7D094F828309D
S315000036E059070AD5A36903992A4619442046FFF7C4
S315000036F01DFF236A2046984798E723F0010384F8C4
S315000037002830F6E794F8283023F0010384F82830AF
S315000037108CE794F8283043F0010384F828300399A5
S31500003720A16141B94FF0140383F31188BFF36F8F82
S31500003730BFF34F8FFEE70346024601442046FFF7DC
S31500003740D7FE73E794F828309A07DDD42046FEF7B3
S31500003750B5FA6BE774E500006CE5000070E5000063
S31500003760F7B5114CFEF78EF82568BDB90F4F104E10
S315000037703846FDF7ADFF3046FDF7AAFF0D4B0E4A62
S315000037801F600E4B10211E6005200D4B0095FEF7A5
S31500003790F0FB206010B10B49FEF73EFF03B0BDE819
S315000037A0F040FEF78FB800BF6CE500008CE5000026
S315000037B078E5000074E5000014E5000070E50000FF
S315000037C0C4E40000E5DE200810B588B0FFF7C8FFA6
S315000037D0124B1B68B3B1002407AA06A905A8CDE9B8
S315000037E00544FDF70DFF059B0293069B01933723C6
S315000037F00093079A0A490B482346FFF7D8F80A4B65
S31500003800186040B94FF0140383F31188BFF36F8F2C
S31500003810BFF34F8FFEE7012008B010BD6CE5000036
S31500003820EADE2008E145200868E500001FB51446D9
S315000038301A466FF00103CDE900300548CDE90214C0
S31500003840002369460068FEF707FD04B010BD00BFFF
S315000038506CE5000010B50B4C05F07CFA002361788E
S3150000386020781A4605F08CFD23786278A07843EA22
S31500003870022343EA004005F01BFCBDE81040024865
S3150000388007F0B2BB14000000F2DE200837B53C4C4E
S315000038902378052B16D86078FBB939280ED82578F9
S315000038A06478052D29D937484FF4127105F0CCFC00
S315000038B034484FF4147105F0C7FC4FE005F0B4FB33
S315000038C00028ECD0304807F08FFB00232F4A0193E5
S315000038D0019B93424ED303B030BD5A1E012A05D92F
S315000038E0032B06D0042B06D10B2800E00F28D6D9CF
S315000038F0E8E70928FBE70528F9E7032D0ED9042D8B
S315000039002AD10B2C04D91F4840F24D2105F09CFC0E
S31500003910240104F1105404F598240EE095B94B2CBB
S3150000392004D9184840F24A2105F08EFC04EB051430
S31500003930240104F18C4404F59814636883F00103B0
S315000039406360BFE7012D01D13B2CE9E7022D01D1D0
S315000039502B2CE5E71B2CE3E7052CA9D80C4BA40080
S315000039601A591959C2F3401282F0010262F3451145
S315000039701951A7E700BF019B01330193A8E700BFD8
S315000039801400000010DF2008E0DF2008C0304600E9
S315000039901C860424FFF75EBFFFF778BF70477047A9
S315000039A07047704708B500F019FD03F0EBFF05F00E
S315000039B0A1FFBDE8084000F0E5BA7047FDF7D4BCAA
S315000039C000F004B87047704770470000014800F0E7
S315000039D0C1BE00BFE9DF200808B5FDF72AFCFFF7E6
S315000039E0D9FFFFF7D9FFFCE70FB404B0704700001A
S315000039F070B5114B93F86130013BDBB2FD2B8EB0F5
S31500003A0018D86A460D4B0E4E154618685968144666
S31500003A1003C40833B3422246F7D10A4C2846D4F8E9
S31500003A20443709F063FE04F035F8D4F84437002033
S31500003A300EB070BD0120FBE7000500086105000817
S31500003A409905000800800524134B0168D3F8443714
S31500003A50F0B50127013900D2F0BDD0F808C046689C
S31500003A60CCF38455C5EBDC62346801320023013A9D
S31500003A700CD203FA05F203EA0C03C3F3150324EA96
S31500003A800202AB40134333600830E3E707FA02FE55
S31500003A9043EA0E03EBE700BF0080052408B518488B
S31500003AA0FFF7D2FF1748FFF7CFFF04F06BFA04F0D9
S31500003AB07DFA04F087FA04F099FA04F0A3FA1248A2
S31500003AC0FFF7C2FF1148FFF7BFFF1148FFF7BCFF22
S31500003AD01048FFF7B9FF1048FFF7B6FF0F48FFF78A
S31500003AE0B3FF0F48FFF7B0FF0E48FFF7ADFF0E48D4
S31500003AF0FFF7AAFFBDE808400C48FFF7A5BF00BFC7
S31500003B00F409000058090000940500006006000052
S31500003B105406000074060000340500002805000065
S31500003B201C05000070050000B8050000AC0500008B
S31500003B3010B5254CFFF7B2FF94F8040600F001001B
S31500003B40FFF756FF4FF4C023C4F86C34D4F8403165
S31500003B501E4843F40023C4F84031D4F8403143F002
S31500003B600103C4F84031D4F8403143F00203C4F8ED
S31500003B704031FFF769FF16491648D1F8103543F072
S31500003B800203C1F81035636923F400336361636986
S31500003B9043F480336361D0F84027D0F87837C2F316
S31500003BA04342023A23F4F07343EA4213C0F87837EB
S31500003BB0D1F8943443F40023C1F89434236943F4D0
S31500003BC06013236110BD00BF00800424800700003D
S31500003BD000A005240080052408B550B10748FFF76A
S31500003BE033FF0748FFF730FF0648BDE80840FFF7F8
S31500003BF02BBF0548FFF728FF0448F6E7C807000073
S31500003C0070080000640800003C080000E807000097
S31500003C100B48D0F800D05DF804EB5DF804CB5DF8F6
S31500003C2004BB5DF804AB5DF8049B5DF8048B80BCB7
S31500003C3040BC20BC10BC08BC04BC02BC01BC704724
S31500003C40ACE50000FEE7FEE7054B064A06498B4257
S31500003C5000D3704752F8040B43F8040BF7E700BF94
S31500003C600C00000008E92008480A0000064B074837
S31500003C70DA1C121AC11E22F00302994288BF0022E2
S31500003C80002107F0B9B900BF68F50000480A000036
S31500003C9008B5FFF7D9FFFFF7E9FF00F0BDF8BDE86B
S31500003CA00840FDF7BEBA000070B562B63C4B3D4A0F
S31500003CB01A603D4B3D4A93F806363D4C3D4D03F0A8
S31500003CC00F030F2B4FF000634FF002060BBFD3F824
S31500003CD03714D3F89C1511601160374A0CBFD3F81E
S31500003CE03634D3F89B35136004F054F82D4BE36358
S31500003CF005F0D2FD032004F0FFFA04F04DF82F4B37
S31500003D00DB694FF08061D3F880304FF08C409847E4
S31500003D10EB6966F30E33EB61294BDA696FF3020246
S31500003D20DA61304604F0B2F81F4B0D22C3F828269C
S31500003D305A6942F001025A615A691A6A66F3020226
S31500003D401A621A6A1207FCD5AB69022262F384036F
S31500003D50AB61AB691B04FCD51A4B1B495A6E1B4D54
S31500003D606FF341025A665A6E6FF300025A664FF4B9
S31500003D70FA400C4B2161E161154960620022206224
S31500003D804FF40040C4E90033C4E90B15C4E90F330E
S31500003D90A2606261E360A06263636164A26170BD58
S31500003DA000E60000005A620200800424A8E5000034
S31500003DB0B0E5000000810424A4E500000001300005
S31500003DC0008604240084042400B4C404002D3101B8
S31500003DD00048E8014FF0E02384B0D3F8402F019269
S31500003DE0D3F8442F02920199094A91420DD10299C2
S31500003DF0084A914209D1D3F8882D0392039A42F4D6
S31500003E0070020392039AC3F8882D04B0704700BF6E
S31500003E10210011101100001113B500230093019326
S31500003E202F4BD3F810250092009A00922D4A116864
S31500003E3021F00F01116011681160D3F89C1421F470
S31500003E406071C3F89C14D3F8041701910199C3F863
S31500003E500415D3F8001701910199C3F80015D3F89A
S31500003E60101541F01C01C3F81015D2F8024014F4E5
S31500003E708074FAD11C48436943F480334361436933
S31500003E8064F351434361FFF7A5FF184B4FF080726F
S31500003E905A60174BC0F84031164B5A6864F3C30298
S31500003EA05A60036A0E4A43F480330362036A43F49A
S31500003EB000330362D2F8943443F40023C2F89434F6
S31500003EC0036943F4601303610B4B1A6842F4002242
S31500003ED01A601A6842F480221A6002B010BD00BF50
S31500003EE000A00524000005240080042400003041C1
S31500003EF003000800008104240084042430B50E4D1C
S31500003F002B6885B043B90D4B0FCB6C4684E80F0088
S31500003F102046FDF7E5FA2860FDF716FA022808D1D3
S31500003F20286830B14FF0FF3105B0BDE83040FDF7ED
S31500003F3014BB05B030BD00BF54E60000ECDF20081E
S31500003F4008B5FDF701FA022806D1044B186818B126
S31500003F50BDE80840FDF726BB08BD00BF54E60000DB
S31500003F6020F04040012802D0022805D07047034ABD
S31500003F701368013313607047014AF9E75CE60000F5
S31500003F8058E6000010B5124CE3689847A36811483C
S31500003F909847236902209847A46A01211520A04763
S31500003FA001211620A0474FF4E1310120A0470A4C19
S31500003FB0206810B9FDF794FA2060084B4FF4805240
S31500003FC0C3F88020BFF34F8FBFF36F8F10BD00BFC4
S31500003FD0FCDF2008614F200860E6000000E100E0F9
S31500003FE013B5094C00238DF804302360074B0121DB
S31500003FF09B6901A8984723681BB19DF8040002B08D
S3150000400010BD00F0A5FBF6E758E60000FCDF20082F
S3150000401013B5094C8DF8070000232360074B0121D7
S315000040205B690DF10700984723680BB102B010BD1C
S3150000403000F08EFBF8E700BF5CE60000FCDF20081E
S3150000404003681B780022202B04D0093B042B01D9DE
S31500004050D0B270470368591C01605B780132F2E701
S315000040600120704708B505F07DFC162303604FF06C
S31500004070FF3008BD08B505F075FC16230360FEE7A2
S3150000408070B50D461446FDF75FF9022805D10C4BB5
S315000040904FF0FF311868FDF760FA2E46731BA342F6
S315000040A009DBFDF751F9022803D1054B1868FDF726
S315000040B079FA204670BD16F8010BFFF7A9FFEDE768
S315000040C060E600004FF0FF3070474FF400534B603E
S315000040D00020704701207047002070470FB42DE97B
S315000040E0F0438BB012AB002453F8046B019304AD7C
S315000040F08DF81040A846FFF773FF0D2805F8010B51
S3150000410004D00A2802D00134142CF4D19E4B019F0E
S31500004110E34004F1280213F001030DEB02041ABF79
S31500004120002304F8183C04F8173C9DF81030CDE93C
S315000041300268002B00F04E810025029B1B78002BA5
S315000041404DD0DDF80C9099F80060002E47D002A8FB
S31500004150FFF776FF044618B103A8FFF771FFECE7F7
S31500004160029A1346517813F8010B0293252801D1C0
S31500004170252907D18E4232D109F101030232039378
S315000041800292DAE726462046A0461A7806F07C0117
S31500004190002A7CD100B1029309B3002C08BF632426
S315000041A0082900F08780202900F0AA80042916D16A
S315000041B057F8042B4946144400200E780B4601316B
S315000041C0002E6AD100286FD1B7E7692A50D01ED8D1
S315000041D0632A52D011D8392A07D82F2A34D8E8B200
S315000041E00BB0BDE8F04304B07047582AF7D146F04B
S315000041F0200601334FF0100832E0642AEFD146F46E
S31500004200005646F0200601334FF00A0828E06F3AC0
S31500004210D1B20929E3D8092AE1D801A151F822F03F
S3150000422065522008DF512008DF512008DF512008A1
S3150000423089522008DF51200803522008DF51200848
S31500004240DF512008EF512008002CC8D10A211A7826
S31500004250303A01FB042413F8012F303A092AF6D923
S31500004260012092E746F0200601334FF00808F7E7F1
S3150000427046F0200601338846F2E7012C46F0040694
S3150000428038BF01240133EBE746F00806FAE70029B8
S315000042909BD0002881D002937FE702F8016BA242EF
S315000042A04FF0010089D10B46994503933FF445AF82
S315000042B0013542E703A8FFF7C3FE039E57F8043B08
S315000042C0314603EB040C00200C4611F8012B12B901
S315000042D060B103940AE00D2A0FD8082AF8D803F82B
S315000042E0012B63454FF00100EED10391039A9642EC
S315000042F03FF423AF00221A70DAE7202AEFD1E7E76E
S3150000430003A8FFF79DFE039BB8F1000F10D0B8F18C
S31500004310100F17D11A78302A14D15A7802F0DF021A
S31500004320582A0FD102330393023C4FF0100809E0DC
S315000043301A78302A16D15A7802F0DF02582AF1D0BC
S315000043404FF00808039B1A782B2A0ED02D2A0FD17E
S3150000435001330393013C4FF0FF31039A00201444CC
S31500004360844616E04FF00A08ECE701330393013C5C
S315000043700121F2E7A9F14103052B02D920B30392EB
S3150000438022E0A9F1370317E0010010000CFB083CFE
S31500004390012092F800909646B9F1000FEED0A242A5
S315000043A0ECD0A9F13003DBB2092B06D9A9F16103E0
S315000043B0052BDFD8A9F15703DBB2984502F10102BC
S315000043C0E4D808B1CDF80CE057F8043B0CFB01F13A
S315000043D019606DE74FF0FF3501E700BF044802237F
S315000043E01421C21801334B2B82F80013F9D1704700
S315000043F000E100E038B5234B0222C3F88420BFF366
S315000044004F8FBFF36F8F204BD3F80028D30735D4D7
S3150000441001231946202B01D11C4606E001FA03F4BC
S31500004420144203F1010027D0DCB2184B03EB04134E
S315000044309A68C2F38162032A22D09B689B0F032BE2
S315000044401ED0134B142202FB0433D3E90253ED1A98
S3150000445018BF01250F4B0E4ADB680C49DB690E4875
S3150000446098472DB1084A01235169A3400B43536174
S31500004470044B02225A6038BD0346CBE70024D4E73A
S315000044800025E7E700E100E00000034400FC02002D
S3150000449054E70000000130002400000038B5244B2A
S315000044A04FF48062C3F88020BFF34F8FBFF36F8F46
S315000044B0204BD3F80028D30736D4012319460C2BFA
S315000044C001D11C4606E001FA03F4144203F101008F
S315000044D028D0DCB2184B03EB04139A68C2F381624E
S315000044E0032A23D09B689B0F032B1FD0134B142248
S315000044F002FB0433D3E90253ED1A18BF0125104B12
S315000045000E4ADB680C49DB690E4898472DB1094A0B
S3150000451001235169A3400B435361054B4FF480625D
S315000045201A6038BD0346CAE70024D3E70025E6E74C
S3150000453000E100E000800724001C062464E6000079
S315000045400001300018000000064B1868002382B2F4
S3150000455062F30F03000C60F31F4382B0184602B0EB
S31500004560704700BF70E02008014B1868704700BF15
S3150000457030000000014803F0A9B800BF3000000079
S31500004580014903F063B800BF30000000014803F0A2
S315000045903BB800BF3000000037B504460B200D467F
S315000045A000F002FA064B1B680193064B0093024685
S315000045B0054B2946204602F0E9FD03B030BD00BF99
S315000045C04CEA00001800000030000000014802F02C
S315000045D0D9BD00BF30000000014802F0D0BD00BFC9
S315000045E0300000007FB5104BD3E90354B2F5806F5D
S315000045F02E883ABF02F1FF33C3F3090340F2FF33BB
S3150000460063F30D162E80258863F30D15074B258061
S315000046101B680293064B0193064B0093024B02F074
S3150000462075FD04B070BD00BF300000004CEA00000C
S3150000463064E60000180000000D4B1A69B1F5806FA2
S3150000464013B538BF01F1FF33148834BFC3F3090330
S3150000465040F2FF3363F30D14064B14801B6801937D
S31500004660054B0093024A054B02F0B2FC02B010BDA6
S31500004670300000004CEA000064E60000180000006C
S315000046800D4BDA68B1F5806F13B538BF01F1FF3312
S31500004690148834BFC3F3090340F2FF3363F30D14E8
S315000046A0064B14801B680193054B0093024A054B89
S315000046B002F0E0FB02B010BD300000004CEA000042
S315000046C064E6000018000000024B034A1B68034919
S315000046D002F028BB4CEA0000180000003000000081
S315000046E0034B044904484FF400129A6402F0CABA14
S315000046F000840424180000003000000007B5064BB3
S315000047000193064B0093064A064B074902F02AFA24
S3150000471003B05DF804FB00BFD4E900004CEA0000DA
S3150000472018000000001C062430000000014802F0BA
S31500004730F1B800BFB8000000014802F0EBB800BFB6
S3150000474074000000014802F0E5B800BF3000000028
S31500004750FFF7F8BF13B5837804468BB9012004F040
S31500004760ACFA63788DF8043023788DF80530002391
S315000047708DF80630019802B0BDE8104004F098BCF0
S315000047800020ECE7354BDFED366AD3F8102242F015
S315000047904002C3F8102207EE900AD3F81022F4EE76
S315000047A0E67A42F01002F1EE10FA07EE101A82B025
S315000047B0C3F8102206DCF0EE086AB4EEE67AF1EEF3
S315000047C010FA08D5D3F8102242F02002C3F81022BE
S315000047D0002002B070479FED237AF4EEC77AF1EE1F
S315000047E010FA10D5D3F810226FF30302C3F8102283
S315000047F0D3F810226FF38612C3F81022D3F81022D2
S315000048006FF30412E2E777EEC77ADFED176A134A11
S3150000481087EEA67AF7EE007A77EE277AFCEEE77A4D
S31500004820CDED017A9DF80430F6EE007A77EE277A20
S3150000483007EE103AB8EE477AB4EEE77AF1EE10FAE0
S31500004840C2BFFCEEE77ACDED017A9DF80430D2F8CE
S31500004850101263F30301C2F81012B9E700380424FA
S3150000486033333340CDCCCC3F0AD7A33D0A4B9A6CA9
S31500004870013A052A0ED8DFE802F003050705090B01
S31500004880586C7047D86A7047D86B7047186B70477A
S31500004890586B704700207047B0E5000006281DD809
S315000048A0DFE800F0040A0D10131619000C4B5868C7
S315000048B009B1B0FBF1F07047094B186AF8E7084BED
S315000048C0586AF5E7064B986AF2E7054BD86AEFE7B0
S315000048D0034B186BECE7024BD868E9E70020E7E7E3
S315000048E0B0E5000010B5032814D8DFE800F0020A8E
S315000048F00D100F48C06A7AB1A3B981B1B0FBF1F0CF
S315000049000DE00B48C069F6E709484069F3E7084837
S315000049108068F0E70020EEE723B909B9400810BD2A
S315000049204900EBE7CB07FAD50229F8D9E6E700BF3D
S31500004930B0E50000F8B50C461546042828D8DFE88F
S3150000494000F003211B1E2400FFF790FF15B394B15E
S3150000495005F094F9064620460F4605F08FF9104BF0
S31500004960002205F04FF802460B463046394605F060
S3150000497029FB05F097FCF8BD0A4BD869E6E7094B19
S315000049805869E3E7074B9868E0E7064BD868DDE728
S315000049900020DBE7002CEED0B0FBF4F0EBE700BF25
S315000049A00000E03FB0E5000010B50E2800F28F8150
S315000049B0DFE810F00F001E002D0053007200840087
S315000049C09600B300CA00DD00E7000901320160016C
S315000049D082014FF08C43BDE81040D869D969DA6985
S315000049E0C1F3C301C2F3407200F00700FFF7A2BF94
S315000049F04FF08C43BDE81040D869D969DA69C1F334
S31500004A008321C2F38072C0F3C210FFF793BF4FF049
S31500004A108C4293699469C3F3C233C4F3C324052B50
S31500004A2019D8DFE803F003090C0F1215FFF71EFF74
S31500004A300CB1B0FBF4F010BD8C4B9868F8E78B4BCB
S31500004A401869F5E7894B5869F2E7884BD869EFE7AB
S31500004A50864BD868ECE70020EAE74FF08C42936A71
S31500004A60946AC3F34243C4F30554032B12D8DFE818
S31500004A7003F002080B0EFFF7F9FE002CDBD06400F2
S31500004A80D7E77A4B5869F8E7784B9868F5E7774B9C
S31500004A90D868F2E70020F0E74FF08C43BDE81040FD
S31500004AA0986999699A69DB69C2F34022C3F3007376
S31500004AB0C1F3C50100F00700FFF714BF4FF08C43A8
S31500004AC0BDE81040D86F99699A69DB69C2F3402244
S31500004AD0C3F30073C1F3C501C0F34220FFF702BF61
S31500004AE04FF08C439B69C3F30263042B00F2EF8003
S31500004AF0DFE803F003060A0D10005C4BD8689AE75E
S31500004B00BDE81040FFF7B2BE584B986893E7574B85
S31500004B10D86990E7554B58698DE74FF08C429169FB
S31500004B209369926911F4802F5049C2F3C0520CBFA9
S31500004B3048698868C3F3C3431AB1002B3FF47BAFBF
S31500004B4012E083B9400876E74FF08C439A6A9B6A75
S31500004B5012F4806F454A0CBF9069D068C3F3C52331
S31500004B60002B3FF468AF5B00B0FBF3F063E7404B0C
S31500004B7098699969BDE81040C1F34641000FFFF7F7
S31500004B808DBE3B4BDA69DB69C2F34302C3F34713BD
S31500004B90052A16D8DFE802F00306090C0F12334A7D
S31500004BA05068DDE7314A106ADAE7304A506AD7E7DB
S31500004BB02E4A906AD4E72D4AD06AD1E72B4A106B69
S31500004BC0CEE70020CCE72A4B1A6A1B6AC2F34302DF
S31500004BD0C3F34213072A1DD8DFE802F004070A0DC3
S31500004BE010131619214A5068A7E7204A106AA4E74D
S31500004BF01E4A506AA1E71D4A906A9EE71B4AD06A80
S31500004C009BE71A4A106B98E7184AD06895E7174A47
S31500004C10506B92E7002090E7154B1B6BC3F34303E1
S31500004C20062B54D801A252F823F000BF495C200895
S31500004C304F5C2008555C20085B5C2008615C2008FE
S31500004C40675C2008FB5A2008084B5868F3E6074BB8
S31500004C50186AF0E6054B586AEDE6044B986AEAE6F0
S31500004C60024BD86AE7E6014B186BE4E6B0E50000B4
S31500004C7000140424174B5B6BC3F34303082B26D89D
S31500004C8001A252F823F000BF495C20084F5C2008BF
S31500004C90555C20085B5C2008615C2008675C200886
S31500004CA0FB5A2008AD5C2008B35C20080A4B586B01
S31500004CB0C1E6094B9869BEE6064BD86AD96ABDE8D3
S31500004CC01040C1F34711C0F34300FFF7E7BD0020D2
S31500004CD0B1E600BF00140424B0E50000024B1B68D7
S31500004CE0D3F8BC30184700BF00013000024B1B68E8
S31500004CF0D3F8CC30184700BF00013000024B1B68C8
S31500004D00D3F8EC30184700BF0001300007EE100A58
S31500004D10FDEEC77AF8EEE76AF4EEC76AF1EE10FA2E
S31500004D2041BF17EE903A013307EE903AF8EEE76A84
S31500004D3016EE900A70470000024B01219B69C0B233
S31500004D40184700BF00EB0000FFF7F6BF1346054A01
S31500004D50126810B4546C0A46A44600215DF8044B50
S31500004D60604700BF0001300010B54FF4006003F04B
S31500004D704DF8094C094B4FF000725A6422782AB953
S31500004D80074B08481B6A01219B6A9847237843F022
S31500004D900103237010BD00BF50EE00000084042400
S31500004DA0000130000014042482B0ADF804000A4B60
S31500004DB04FF400621A609DF80420084B2AB9D3F814
S31500004DC0082242F40062C3F808225A68002042F022
S31500004DD001025A6002B0704700E100E00038042486
S31500004DE02DE9F04F224B234893F81CE0224B1A780A
S31500004DF000231C4602F59875D9B28E450CD8DFF80B
S31500004E0080800023A8F5107902F5907CDAB29645E9
S31500004E1009D80020BDE8F08F30F815108C4238BF55
S31500004E200C460133E8E743B929F81C300133EDE7B6
S31500004E30B5F820B0594489B20AE000271FFA83FA70
S31500004E40BEB2B442F2D900220C4D104635F8021F0C
S31500004E508C4203D9B142EBD1013080B2013292B219
S31500004E605245F3D301370028EAD128F81360DDE76D
S31500004E7000EB000020EB0000FCEA00005EED000005
S31500004E8060ED0000012800D17047C30701D4400837
S31500004E90F8E70020704703460120834208DC00EB58
S31500004EA0D072A3EB6203B3EBA00FB8BF4008704704
S31500004EB04000F2E784B02DE9F7430AAC84E80F001E
S31500004EC00023ADF806309DF8BC515F4B9DF8BD71CF
S31500004ED05A885B68B3FBF2F30DB9012F40D15B49E9
S31500004EE001250A885A4C07EE903A92B20AAB03EBB8
S31500004EF0820393ED057AF8EE677AB8EE477AC7EE45
S31500004F00877A17EE900AFFF701FF07EE900A0B88E3
S31500004F10FCEEE77A9BB203F5987317EE902A24F815
S31500004F2013200B889BB203F5987334F81330012BCA
S31500004F3006D80B889BB203F59873022224F8132037
S31500004F40444E0DF138094FF00008B7EE006A5FFADB
S31500004F5088F39F4207D803B0BDE8F04304B070471A
S31500004F600DF10601BDE7B8F1000F17D0D9ED007AB3
S31500004F703288B8EE677AD9ED017AF8EE677AC7EE2D
S31500004F80277A17EE900AFFF7C1FE07EE900AFCEEAD
S31500004F90E77A17EE903A13FB02F37380012F08D0DD
S31500004FA072881046FFF76EFF18B91046FFF773FFB9
S31500004FB070808DB10B880AAA9BB202EB4303B3F84B
S31500004FC0F430012B08D10B889BB203F5987334F8A3
S31500004FD01320920824F81320DFED1F7A00231FFA0E
S31500004FE088F09842ADF806300AD2F4EEC67AF1EEB1
S31500004FF010FA27DC08F10108023609F10409A6E7D0
S315000050000A8892B202F59872013334F8122007EE3C
S31500005010102AB8EE477A9BB2C6EE076A77EEA67AF2
S31500005020DFE70A8892B202F59872013334F812C0AB
S315000050304FEA4C0C24F812C09BB29842ADF80630E9
S31500005040EFD2D7E70023F8E700EB0000FCEA000008
S3150000505020EB00007EED00000000000007EE100AC5
S31500005060DFED087A084837EE277AF7EE006AC6EED3
S31500005070877AFCEEE77A17EE903A834228BF03461A
S315000050801846704795BFD633404B4C0084B0F0B5F8
S3150000509006AC84E80E00DFED957A002123AC0DF115
S315000050A06B050A460B46CEB2B04200F2B080002B2A
S315000050B000F0A480B0EE007AF4EEC77AF1EE10FAB2
S315000050C0B0EE047A05DBF4EEC77AF1EE10FA00F1E1
S315000050D0DD80F4EEC77AF1EE10FAB0EE087A05DB61
S315000050E0F4EEC77AF1EE10FA00F1D680F4EEC77A44
S315000050F0F1EE10FAB1EE007A05DBF4EEC77AF1EEC6
S3150000510010FA00F1CC80F4EEC77AF1EE10FAB1EEA7
S31500005110047A05DBF4EEC77AF1EE10FA00F1C280EC
S31500005120F4EEC77AF1EE10FA07DBB1EE087AF4EE88
S31500005130C77AF1EE10FA00F1B880B1EE0C7AF4EE0F
S31500005140C77AF1EE10FAB2EE007A05DBF4EEC77A12
S31500005150F1EE10FA00F1AC80F4EEC77AF1EE10FA37
S31500005160B2EE027A05DBF4EEC77AF1EE10FA00F140
S31500005170A280F4EEC77AF1EE10FA07DBB2EE047AFB
S31500005180F4EEC77AF1EE10FA00F19880B2EE087AE2
S31500005190F4EEC77AF1EE10FA06DBB2EE0C7AF4EE14
S315000051A0C77AF1EE10FA61D4B3EE017AF4EEC77A5B
S315000051B0F1EE10FA06DBB3EE027AF4EEC77AF1EE00
S315000051C010FA60D4B3EE097AF4EEC77AF1EE10FA6B
S315000051D006DBB3EE0A7AF4EEC77AF1EE10FA70D96E
S315000051E0B3EE0B7AF4EEC77AF1EE10FA06DB9FED1A
S315000051F0407AF4EEC77AF1EE10FA74D9DFED3D7A13
S315000052009FED3D7A002A18BFF0EE477A65E015F863
S31500005210016FA6F1140CBCF1020F2F7C0FD894ED90
S31500005220007AF4EEC77AF1EE10FA03D50133DBB259
S31500005230F0EE477A0D2F16D00131043433E7A7F18B
S315000052400A0CBCF1020F0CD894ED007AB4EEE77AA2
S31500005250F1EE10FA03DD0133DBB2F0EE477A182ED9
S31500005260E9E7182EE6D10132D2B2E5E7DFED237A7F
S315000052709AB39FED217AF4EEC77AF1EE10FA23D5B0
S31500005280F0EE477A29E0DFED1E7AF1E7DFED1D7AD1
S31500005290D2B1DFED197A20E0DFED1B7AF8E7DFED1A
S315000052A01B7AF5E7DFED1A7AF2E7DFED1A7AEFE718
S315000052B0DFED197AECE7DFED197AE9E7DFED187A29
S315000052C0E6E7DFED187A42B19FED0A7AF4EE477A07
S315000052D0F1EE10FA48BFF0EE477ABDE8F04017EE5F
S315000052E0900A04B07047DFED107AECE7000000008A
S315000052F000004C4295BFD6338BE16A36EFE608369E
S315000053009F9D42362E5A823301A90C3437F8593400
S315000053102439EC3434580F35AD186335883E8A3558
S31500005320ACC5A735B1B49D36F2DD1C3770B50D4658
S3150000533016460446D0B9FFF7E1FCAA4807222146E3
S31500005340FFF704FD002D40F0AA81012E00F09F8199
S315000053500B2C1DD00C2C40F0F5800520FFF7CEFC61
S31500005360A04807220521FFF7F1FC98E0012818D193
S315000053700220FFF7C3FC9B4807220221FFF7E6FC49
S31500005380002D76D1012E00F082810B2C40F0DA80C0
S315000053900320FFF7B3FC072203219248FFF7D6FC50
S315000053A096E002280ED10420FFF7A8FC072204216C
S315000053B08C48FFF7CBFC002D00F06681012D40F0F4
S315000053C0778155E1032805D10620FFF797FC0722D0
S315000053D00621EDE7042805D10820FFF78FFC0722F8
S315000053E00821E5E7052805D10A20FFF787FC0722F3
S315000053F00A21DDE706280CD17B4B20225A601920B2
S31500005400FFF774FC1920FFF769FC78480E22192172
S31500005410B4E707281ED1744B20225A601B20FFF7E1
S3150000542065FC1B20FFF75AFC0E221B216F48FFF775
S315000054308DFC002D00F02881012D40F0D980012E31
S3150000544000F019810C2C21D10520FFF757FC07220B
S315000054500521A2E7082840F0FD80634B20225A6010
S315000054601D20FFF743FC1D20FFF738FC0E221D21EF
S31500005470DCE70B2C1ED0012D40F01A81012E00F026
S31500005480FA800C2CE0D00D2C00F0C1800E2C50D0F0
S315000054900F2C6FD0102C75D12EE0022D40D0032D8D
S315000054A052D1012E59D00E2C70D00F2C62D0102C58
S315000054B030D121E00320FFF721FC4A4807220321CF
S315000054C0FFF744FC022D2BD0032D03D1012E44D02F
S315000054D0002070BD042D00F0A480052DDAD1012E28
S315000054E040F0A3800720FFF709FC07223D4811463C
S315000054F0FFF72CFC102C5ED13B4B20225A601A2061
S31500005500FFF7F4FB1A20FFF7E9FB38480E221A21B1
S31500005510FFF71CFC112C50D0072D5CD1012E88E022
S31500005520012ED5D169E0012E67D00D2C0FD00E2C9F
S31500005530BBD10920FFF7E2FB2A4807220921FFF722
S3150000554005FCCAE70D2C62D00E2C68D1F1E70B20C2
S31500005550FFF7D4FB07220B211FE70B20FFF7CEFB3B
S31500005560204807220B21FFF7F1FB8FE70E2CE0D036
S315000055700F2CB2D10720FFF7C1FB072219481146AD
S31500005580FFF7E4FB062DC5D1012E4FE00920FFF7FA
S31500005590B5FB0722092100E70920FFF7AFFB1148F9
S315000055A007220921FFF7D2FB7FE70720FFF7A6FBBB
S315000055B007221146F1E6112C0DD10B4B20225A6021
S315000055C01C20FFF793FB1C20FFF788FB07480E22E1
S315000055D01C21FFF7BBFB122C2FD0082D7FF478AFD0
S315000055E0012E28E000C004240000304100001346CC
S315000055F0022D7FF454AF012E99D10520FFF77EFBD3
S315000056002E4807220521FFF7A1FB0D2CAED10B205A
S31500005610FFF774FB294807220B21FFF797FB042DA0
S31500005620A6D1012EB8D00F2CBFD0102C3FF464AFFA
S31500005630112CC2D0122C7FF44BAF214B20225A6082
S315000056401E20FFF753FB1E20FFF748FB1D480E22C6
S315000056501E21A3E60A287FF475AE0120FFF74EFB54
S31500005660164807220121FFF771FB012D7FF415AFC4
S31500005670012E7FF42DAF0320FFF740FB0F480722D2
S315000056800321FFF763FB65E6012E7FF421AF0120BE
S31500005690FFF734FB094807220121FFF757FB0B2CC4
S315000056A03FF408AF012D3FF4E9AE0C2C3FF455AEA4
S315000056B0022D3FF438AF0D2CA9D0F0E600C004242B
S315000056C0000030410000134682B02DE9F0410F2959
S315000056D006AC84E80C005FD8BDF82040BDF8225027
S315000056E044EA0503B3F5806F56D22E4B079E9DF80C
S315000056F024809DF825E043F8212001F1100701F1EF
S31500005700400C43F8276001F15007B24223F81C40D1
S3150000571023F8175042D0B8F1000F17D001F1300826
S3150000572002EB4402C0F8D42143F8282044EAC122FF
S3150000573042F40048C0F8D881D0F8D881C0F8D82102
S31500005740D0F8D82143F82C8043F82720BEF1000F6B
S315000057501DD001F1600204EB4504344443F82240B5
S31500005760CA0202F580622A43C0F8D44142F40044DA
S31500005770C0F8D84101F17004D0F8D85143F824504C
S315000057808031C0F8D821D0F8D82143F82120002054
S31500005790BDE8F04102B070470120F9E742F202107D
S315000057A0F6E700BF20EB00000F2910B528D892B10C
S315000057B0144A01F1300452F82440C0F8D44101F1F2
S315000057C0400452F82440C0F8D84101F1500452F880
S315000057D02420C0F8D8218BB10A4B01F1600253F89E
S315000057E02220C0F8D42101F17002803153F8222022
S315000057F053F82130C0F8D821C0F8D831002010BDA8
S315000058000120FCE720EB000010B5274B27485A681B
S315000058105A6842F001025A60D3F8082242F48062C4
S31500005820C3F8082203F5B4331A68026852BBD3F8EA
S31500005830402442F46752C3F840241D4AD2F802308D
S31500005840DC05FBD41B4BD3F80427D107FBD5D3F8D3
S315000058500427D207FBD4D3F84824174C174B2168EA
S315000058601A60930803F4F8530B43910001F07C018E
S3150000587012020B4302F47832134343F08103236090
S31500005880012303600C4B1A680A4BC3F84424084AE8
S31500005890D2F8023013F48073FAD1034A516863F3E5
S315000058A00001516010BD00BF00380424F0EA00007A
S315000058B00000052400A00524F8EA0000F4EA000030
S315000058C084B070B52DED028B82B008AC84E80F0071
S315000058D0444C6E9AA2610D9A43499DF8B531BDF8C4
S315000058E014012377013A8A4278D20DA90122934204
S315000058F009D8012B6FD19DF8B43173B101280FD9A6
S3150000590042F2061060E00E4651F8045F3668B54272
S3150000591064D8002D62D00132E9E7B0F5806FEFD28E
S31500005920FFF722FA314B32485A689FED328A6FF3FD
S315000059308A225A60DA686FF31842DA60DA6804215C
S3150000594061F30902DA605A682B4942F480625A60B0
S31500005950FEF718FF294B5B686360FFF755FF02F0FF
S315000059606FFB208102F060FB208202F06FFBC0F328
S315000059700D0307EE103AB8EEC77A830BC7EE086A36
S3150000598007EE903AF8EEE77A77EEA67AC4ED037A58
S3150000599002F050FBC0F30D0307EE103AB8EEC77ADB
S315000059A0830BC7EE086A01A807EE903AF8EEE77A8D
S315000059B0002377EEA67A0193C4ED057A03F03EF84C
S315000059C0003818BF0120404202B0BDEC028BBDE892
S315000059D0704004B07047013B0F2B90E742F2041071
S315000059E0F2E700BF00EB0000A025260000380424E3
S315000059F03333334000007A44CDCC4C40B0E5000050
S31500005A0084B010B52DED028B82B006AC84E80F0091
S31500005A109DF818300F2B7FD84249434C0B706C9978
S31500005A20A16106A901EB8301404849699DF8AD21B2
S31500005A3022770139814271D2012A6AD106AA02EB84
S31500005A4043039DF8AC21B3F8F43022B1012B05D9FC
S31500005A5042F2061056E0B3F5806FF9D2FFF784F9EB
S31500005A60334B34485A689FED348A6FF38A225A6062
S31500005A70DA686FF31842DA60DA68042161F3090222
S31500005A80DA605A682D4942F480625A60FEF77AFE5F
S31500005A90FFF7BAFE2A4B5B68636002F0D1FA2081F9
S31500005AA002F0C2FA208202F0D1FAC0F30D0307EE2B
S31500005AB0103AB8EEC77A830BC7EE086A07EE903A3B
S31500005AC0F8EEE77A77EEA67AC4ED037A02F0B2FA38
S31500005AD0C0F30D0307EE103AB8EEC77A830BC7EE94
S31500005AE0086A01A807EE903AF8EEE77A002377EE07
S31500005AF0A67A0193C4ED057A02F0A0FF003818BF1C
S31500005B000120404202B0BDEC028BBDE8104004B05B
S31500005B107047013A0F2A9AE70120F3E742F2041090
S31500005B20F0E700BFFCEA000000EB0000A02526001D
S31500005B30003804243333334000007A44CDCC4C4043
S31500005B40B0E500000F29024610B54FF001000CD851
S31500005B50D2F8CC4100FA01F32343D2F8CC119BB220
S31500005B6063F30F01C2F8CC11002010BD0F290246C5
S31500005B7010B54FF001000DD8D2F8CC4100FA01F370
S31500005B8043EA1443D2F8CC119BB263F31F41C2F827
S31500005B90CC11002010BD30B50F299DF80C402CD833
S31500005BA01F2A2AD80F2B28D8012C26D845686D061F
S31500005BB00FD5090134B14518AC6B44EA835343F061
S31500005BC08063AB6301448B6B43EA42438B630020E3
S31500005BD030BD5CB1D0F8081241F40071C0F808126B
S31500005BE0D0F8081263F34811C0F80812D0F808324A
S31500005BF062F30403C0F80832E9E70120E8E7000091
S31500005C0029B9D0F8083261F3CB23C0F80832064B25
S31500005C105B68DB0741BF43686FF300034360002006
S31500005C2058BF4FF0FF30704700380424C1B2024815
S31500005C3082B002B0FFF7E4BF003804240F2915D85C
S31500005C400D4B5A68520603D4D3F8DC31002B0FDA19
S31500005C50D0F8DC2101238B401343D0F8DC219BB222
S31500005C6063F30F02C0F8DC21002070470120704763
S31500005C704FF40450704700BF00380424B1F5007F8C
S31500005C8014D2B2F5806F11D243686FF38A23436052
S31500005C90C36861F31843C360C36862F30903C36052
S31500005CA0436843F4806343600020704701207047D7
S31500005CB00F2925D8012A05D1436A6FF3D7534362CA
S31500005CC000207047022A0BD1436A6FF30003436238
S31500005CD0436A6FF304134362436A6FF3C303EEE749
S31500005CE0084BD3F8DC31002BEADA436A0122C3F30E
S31500005CF0CF138A4023EA0201436A61F3D613DEE733
S31500005D0001207047003804240F2903464FF0010094
S31500005D1014D81A6A00FA01F189B2186AC2F30F227E
S31500005D200A4362F3172018621A6AC2F30F2222EAA4
S31500005D300102196A62F317211962002070470000F8
S31500005D4010B510B1012804D010BDBDE81040FFF712
S31500005D500BB84FF4006002F073F80A4A13786FF339
S31500005D6000031370DBB2002BEED1074B07484FF050
S31500005D7000729A64064B1B6ABDE81040DB6B022179
S31500005D80184700BF50EE00000084042400140424C9
S31500005D900001300013B50D4BADF804004FF400625E
S31500005DA0C3F88020BFF34F8FBFF36F8F032201210B
S31500005DB0002002F017FF044628B90120FFF7C0FFB4
S31500005DC0204602B010BD4FF0FF30FAE700E100E0D8
S31500005DD04368064A61F349234360D2F8403443EAF4
S31500005DE04143C2F840340020704700BF00A005249C
S31500005DF084B02DE9F04F2DED028BF1B07CAC84E838
S31500005E000F009DF8853365934FF4C47201237FA973
S31500005E10684669939DED818A9DF8845305F060F983
S31500005E2094E80E006598BA4CFFF730F905EE900A33
S31500005E30FFF714F994ED017A07EE900AB8EE476A77
S31500005E40F8EE677AB7EE007A87EE065AC7EE276A4B
S31500005E50C6EE857A17EE900AFEF758FF07EE900A0F
S31500005E60FCEEE77A17EE903AC5EE857A9EB217EE0B
S31500005E70900AFEF74BFF07EE900AFCEEE77A17EE64
S31500005E80903A9FB2BE4204BF0136B6B2002D5ED133
S31500005E90BDF8843327804FF4C27280A968466680B5
S31500005EA09C4CADF8843105F01BF97CAB0FCBFFF7AA
S31500005EB001F8FEF795FF324639462046FFF7DEFE2B
S31500005EC001212046FFF784FF6368934EDFF8409276
S31500005ED043F000636360636843F040036360636894
S31500005EE065F3410363603323C4F8E431636843F028
S31500005EF004036360D4F8DC3143F00043C4F8DC31BA
S31500005F000DF2E223669306F18103A8AF06F13E0B7C
S31500005F1067930DF5F878659AEBB29A4200F28D8098
S31500005F207E4B6A9300227E4B6B9369A9104602F062
S31500005F30BDFD10B1452840F0E78069996AAA0020A6
S31500005F4002F022FE003818BF012040426EE0B8EE93
S31500005F50488A3946C6EE087A17EE900AFEF7D6FE4C
S31500005F6007EE106A07EE900AB8EEC77A6948B4EEF3
S31500005F70E77AF1EE10FA49BFFCEEE77A324617EE01
S31500005F80903A9AB24DBF6280278066802780FFF7DD
S31500005F9075FE01215F48FFF71BFF5E4B5A6842F012
S31500005FA000625A605A686FF386125A606A1E012AA6
S31500005FB05A684FF0000194BF42F0020265F34102B5
S31500005FC05A60C3F8E4115A6842F004025A60D3F8E2
S31500005FD0DC2161F3DF72C3F8DC219DF8F1219DF825
S31500005FE044029DF854125AB1D3F8086262F3492666
S31500005FF0C3F80862D3F8086261F34816C3F808626A
S31500006000444ED6F8083260F30403C6F80832FFF7A8
S315000060108DF92A4600213046FFF74AFE62886368FA
S31500006020B3FBF2F33F4A0020C2F8803271B0BDECF8
S31500006030028BBDE8F04F04B0704798F854A098F86A
S315000060406430649318F8013F6393009352462946DF
S31500006050649B2046FFF79FFD36F8021F328C012A0B
S3150000606008D0AB0003F1105303F58723A3F83811CA
S31500006070C3F8782129462046FFF7E0FDDDE96321D4
S315000060805046FFF753F929462046FFF76FFD7B6E12
S315000060906C93D7F8A4306D93669B33F802AF669382
S315000060A040F20113ADF8BC31ADF8B8A1ADF8BAA114
S315000060B070AB13E90300DDE96C238DE80300294684
S315000060C02046FFF701FB29462046FFF73BFD00224D
S315000060D029462046FFF7ECFDB9F80220D9F804302E
S315000060E0B3FBF2F3328CB3FBF2F34BF8043F57F8F1
S315000060F0043FA6F8D0A0CBF85030679B639A03F80C
S31500006100012F0135679306E74FF0FF308EE700BF9A
S3150000611000EB0000003804245EED0000395D200825
S31500006120495D200820EB000084B02DE9F04FEDB06A
S3150000613076AC84E80F009DF8D8419DF86C639DF815
S315000061406DA301200F2C659000F21281DFF84082CA
S315000061508A4D88F800404FF4C47279A9684604F065
S31500006160BFFF76AB0ECB5046FEF790FF05EE900ACA
S31500006170FEF774FF95ED017A07EE900AB8EE476ACE
S31500006180F8EE677AB7EE007AC7EE276AC7EE067AA8
S31500006190C6EEA77A17EE900AFEF7B8FD07EE900A4C
S315000061A0FCEEE77A17EE903A66EE257A9FB217EE86
S315000061B0900AFEF7ABFD07EE900AFCEEE77A17EEC3
S315000061C0903A1FFA83F94F4504BF0137BFB2002E3C
S315000061D051D1BDF86C336A4C6F804FF4C2727AA904
S315000061E06846A5F80090ADF8843104F079FF76ABE7
S315000061F00FCBFEF75FFEFEF7F3FD3A464946204613
S31500006200FFF73CFD01212046FFF7E2FD63685D4F85
S3150000621043F000636360636843F040036360636850
S3150000622066F3410363603323C4F8E431636843F0E3
S3150000623004036360D4F8DC3143F00043C4F8DC3176
S31500006240F3B29A4500F2A6804F4B669300224F4B5D
S31500006250679365A9104602F029FC10B1452840F065
S315000062602A81659966AA002002F08EFC003818BFC4
S31500006270012040427CE076AB03EB8404D4ED057A42
S31500006280F8EE677A4946C6EE277A17EE900AFEF7C9
S315000062903DFD07EE107A07EE900AB8EEC77A384849
S315000062A0B4EEE77AF1EE10FA49BFFCEEE77A3A4629
S315000062B017EE903A9AB24DBF6A80A5F800906F80AB
S315000062C0A5F80090FFF7DAFC01212D48FFF780FDC5
S315000062D02B4B5A6842F000625A605A686FF3861276
S315000062E05A60721E012A5A684FF0000194BF42F0AC
S315000062F0020266F341025A60C3F8E4115A6842F09A
S3150000630004025A60D3F8DC2161F3DF72C3F8DC21A2
S3150000631098F8002002F5EC726A4492F8540092F85C
S31500006320641052785AB1D3F8084262F34924C3F88C
S315000063300842D3F8084261F34814C3F80842104FE4
S31500006340D7F8083260F30403C7F80832FEF7EEFF09
S3150000635098F80040324621463846FFF7A9FCA0349B
S315000063606A886B68B3FBF2F3064A42F824300020D1
S315000063706DB0BDE8F04F04B0704700BF00EB000001
S315000063800038042420EB0000395D2008495D200810
S31500006390FCEA000098F80010639101F5EC736B4479
S315000063A0204693F8642093F8549093F801B06292D3
S315000063B01346CDF800B04A46FFF7EDFB639901F5A9
S315000063C0907337F8130001F5987337F81320012AF4
S315000063D008D08B0003F1105303F58723A3F8380187
S315000063E0C3F878212046FFF729FC5A4662994846A9
S315000063F0FEF79CFF98F8009020464946FFF7B6FB4B
S3150000640076AB03EB89030136D3F81431689376AB88
S3150000641003EB8903D3F85431699376AB03EB490355
S31500006420B3F8F430ADF8A831ADF8AA3140F2011353
S31500006430ADF8AC316CAB13E90300DDE968238DE8F8
S31500006440030049462046FFF73FF998F8009020469A
S315000064504946FFF777FB494600222046FFF728FC0E
S3150000646009F1A00269886B68B3FBF1F309F598712D
